{
  "contractName": "MerkleDistributor",
  "abi": [
    {
      "inputs": [
        {
          "internalType": "address",
          "name": "token_",
          "type": "address"
        },
        {
          "internalType": "bytes32",
          "name": "merkleRoot_",
          "type": "bytes32"
        }
      ],
      "stateMutability": "nonpayable",
      "type": "constructor"
    },
    {
      "anonymous": false,
      "inputs": [
        {
          "indexed": false,
          "internalType": "uint256",
          "name": "round",
          "type": "uint256"
        },
        {
          "indexed": false,
          "internalType": "uint256",
          "name": "index",
          "type": "uint256"
        },
        {
          "indexed": false,
          "internalType": "address",
          "name": "account",
          "type": "address"
        },
        {
          "indexed": false,
          "internalType": "uint256",
          "name": "amount",
          "type": "uint256"
        }
      ],
      "name": "Claimed",
      "type": "event"
    },
    {
      "anonymous": false,
      "inputs": [
        {
          "indexed": false,
          "internalType": "uint256",
          "name": "round",
          "type": "uint256"
        }
      ],
      "name": "Pause",
      "type": "event"
    },
    {
      "anonymous": false,
      "inputs": [
        {
          "indexed": false,
          "internalType": "uint256",
          "name": "round",
          "type": "uint256"
        }
      ],
      "name": "Start",
      "type": "event"
    },
    {
      "inputs": [],
      "name": "lock",
      "outputs": [
        {
          "internalType": "bool",
          "name": "",
          "type": "bool"
        }
      ],
      "stateMutability": "view",
      "type": "function"
    },
    {
      "inputs": [],
      "name": "merkleRoot",
      "outputs": [
        {
          "internalType": "bytes32",
          "name": "",
          "type": "bytes32"
        }
      ],
      "stateMutability": "view",
      "type": "function"
    },
    {
      "inputs": [],
      "name": "owner",
      "outputs": [
        {
          "internalType": "address",
          "name": "",
          "type": "address"
        }
      ],
      "stateMutability": "view",
      "type": "function"
    },
    {
      "inputs": [],
      "name": "round",
      "outputs": [
        {
          "internalType": "uint256",
          "name": "",
          "type": "uint256"
        }
      ],
      "stateMutability": "view",
      "type": "function"
    },
    {
      "inputs": [],
      "name": "token",
      "outputs": [
        {
          "internalType": "address",
          "name": "",
          "type": "address"
        }
      ],
      "stateMutability": "view",
      "type": "function"
    },
    {
      "inputs": [],
      "name": "getMoneyBack",
      "outputs": [],
      "stateMutability": "nonpayable",
      "type": "function"
    },
    {
      "inputs": [],
      "name": "pause",
      "outputs": [],
      "stateMutability": "nonpayable",
      "type": "function"
    },
    {
      "inputs": [],
      "name": "start",
      "outputs": [],
      "stateMutability": "nonpayable",
      "type": "function"
    },
    {
      "inputs": [
        {
          "internalType": "bytes32",
          "name": "_merkleRoot",
          "type": "bytes32"
        }
      ],
      "name": "changeMerkleRoot",
      "outputs": [
        {
          "internalType": "uint256",
          "name": "",
          "type": "uint256"
        }
      ],
      "stateMutability": "nonpayable",
      "type": "function"
    },
    {
      "inputs": [
        {
          "internalType": "uint256",
          "name": "index",
          "type": "uint256"
        }
      ],
      "name": "isClaimed",
      "outputs": [
        {
          "internalType": "bool",
          "name": "",
          "type": "bool"
        }
      ],
      "stateMutability": "view",
      "type": "function"
    },
    {
      "inputs": [
        {
          "internalType": "uint256",
          "name": "index",
          "type": "uint256"
        },
        {
          "internalType": "address",
          "name": "account",
          "type": "address"
        },
        {
          "internalType": "uint256",
          "name": "amount",
          "type": "uint256"
        },
        {
          "internalType": "bytes32[]",
          "name": "merkleProof",
          "type": "bytes32[]"
        }
      ],
      "name": "claim",
      "outputs": [],
      "stateMutability": "nonpayable",
      "type": "function"
    }
  ],
  "bytecode": "0x60a060405234801561001057600080fd5b50604051610ad7380380610ad78339818101604052604081101561003357600080fd5b5080516020909101516001600160601b031960609290921b91909116608052600155600080546001600160a01b031916331790556002805460ff1916905560805160601c610a3f610098600039806103525280610798528061089e5250610a3f6000f3fe608060405234801561001057600080fd5b50600436106100a95760003560e01c80639e34070f116100715780639e34070f1461018a578063be9a6555146101bb578063ebcea3db146101c3578063f1a252b8146101e0578063f83d08ba146101e8578063fc0c546a146101f0576100a9565b8063146ca531146100ae5780632e7ba6ef146100c85780632eb4a7ab146101565780638456cb591461015e5780638da5cb5b14610166575b600080fd5b6100b66101f8565b60408051918252519081900360200190f35b610154600480360360808110156100de57600080fd5b8135916001600160a01b03602082013516916040820135919081019060808101606082013564010000000081111561011557600080fd5b82018360208201111561012757600080fd5b8035906020019184602083028401116401000000008311171561014957600080fd5b5090925090506101fe565b005b6100b6610490565b610154610496565b61016e61056a565b604080516001600160a01b039092168252519081900360200190f35b6101a7600480360360208110156101a057600080fd5b5035610579565b604080519115158252519081900360200190f35b6101546105ac565b6100b6600480360360208110156101d957600080fd5b5035610681565b61015461072a565b6101a7610893565b61016e61089c565b60035481565b60025460ff1615610243576040805162461bcd60e51b815260206004820152600a6024820152693637b1b59032b93937b960b11b604482015290519081900360640190fd5b61024c85610579565b156102885760405162461bcd60e51b815260040180806020018281038252602881526020018061099e6028913960400191505060405180910390fd5b6040805160208082018890526bffffffffffffffffffffffff19606088901b168284015260548083018790528351808403909101815260748301808552815191830191909120609492860280850184019095528582529361030c939192879287928392909101908490808284376000920191909152505060015491508490506108c0565b6103475760405162461bcd60e51b81526004018080602001828103825260218152602001806109c66021913960400191505060405180910390fd5b61035086610969565b7f00000000000000000000000000000000000000000000000000000000000000006001600160a01b031663a9059cbb86866040518363ffffffff1660e01b815260040180836001600160a01b03166001600160a01b0316815260200182815260200192505050602060405180830381600087803b1580156103d057600080fd5b505af11580156103e4573d6000803e3d6000fd5b505050506040513d60208110156103fa57600080fd5b50516104375760405162461bcd60e51b81526004018080602001828103825260238152602001806109e76023913960400191505060405180910390fd5b60035460408051918252602082018890526001600160a01b0387168282015260608201869052517fb94bf7f9302edf52a596286915a69b4b0685574cffdedd0712e3c62f2550f0ba9181900360800190a1505050505050565b60015481565b60025460ff16156104db576040805162461bcd60e51b815260206004820152600a6024820152693637b1b59032b93937b960b11b604482015290519081900360640190fd5b6000546001600160a01b03163314610526576040805162461bcd60e51b81526020600482015260096024820152683337b93134b23232b760b91b604482015290519081900360640190fd5b6002805460ff1916600117905560035460408051918252517f68b095021b1f40fe513109f513c66692f0b3219aee674a69f4efc57badb8201d9181900360200190a1565b6000546001600160a01b031681565b600354600090815260046020908152604080832061010085048452909152902054600160ff9092169190911b9081161490565b60025460ff1615156001146105f5576040805162461bcd60e51b815260206004820152600a6024820152693637b1b59032b93937b960b11b604482015290519081900360640190fd5b6000546001600160a01b03163314610640576040805162461bcd60e51b81526020600482015260096024820152683337b93134b23232b760b91b604482015290519081900360640190fd5b6002805460ff1916905560035460408051918252517ff06a29c94c6f4edc1085072972d9441f7603e81c8535a308f214285d0653c8509181900360200190a1565b60025460009060ff1615156001146106cd576040805162461bcd60e51b815260206004820152600a6024820152693637b1b59032b93937b960b11b604482015290519081900360640190fd5b6000546001600160a01b03163314610718576040805162461bcd60e51b81526020600482015260096024820152683337b93134b23232b760b91b604482015290519081900360640190fd5b50600190815560038054918201905590565b6000546001600160a01b03163314610775576040805162461bcd60e51b81526020600482015260096024820152683337b93134b23232b760b91b604482015290519081900360640190fd5b600054604080516370a0823160e01b815230600482015290516001600160a01b037f000000000000000000000000000000000000000000000000000000000000000081169363a9059cbb9391169184916370a08231916024808301926020929190829003018186803b1580156107ea57600080fd5b505afa1580156107fe573d6000803e3d6000fd5b505050506040513d602081101561081457600080fd5b5051604080516001600160e01b031960e086901b1681526001600160a01b03909316600484015260248301919091525160448083019260209291908290030181600087803b15801561086557600080fd5b505af1158015610879573d6000803e3d6000fd5b505050506040513d602081101561088f57600080fd5b5050565b60025460ff1681565b7f000000000000000000000000000000000000000000000000000000000000000081565b600081815b855181101561095e5760008682815181106108dc57fe5b602002602001015190508083116109235782816040516020018083815260200182815260200192505050604051602081830303815290604052805190602001209250610955565b808360405160200180838152602001828152602001925050506040516020818303038152906040528051906020012092505b506001016108c5565b509092149392505050565b60035460009081526004602090815260408083206101008504845290915290208054600160ff9093169290921b909117905556fe4d65726b6c654469737472696275746f723a2044726f7020616c726561647920636c61696d65642e4d65726b6c654469737472696275746f723a20496e76616c69642070726f6f662e4d65726b6c654469737472696275746f723a205472616e73666572206661696c65642ea26469706673582212207e7cecd3aabc126d11d37f51298ee05e3a3c756fc497505444e187029e0370d464736f6c63430006090033",
  "immutableReferences": {
    "5009": [
      {
        "length": 32,
        "start": 850
      },
      {
        "length": 32,
        "start": 1944
      },
      {
        "length": 32,
        "start": 2206
      }
    ]
  },
  "source": "/**\n *Submitted for verification at Etherscan.io on 2020-09-16\n*/\n\n// SPDX-License-Identifier: UNLICENSED\npragma solidity >=0.6.9;\n\n/**\n * @dev Interface of the ERC20 standard as defined in the EIP.\n */\ninterface IERC20 {\n    /**\n     * @dev Returns the amount of tokens in existence.\n     */\n    function totalSupply() external view returns (uint256);\n\n    /**\n     * @dev Returns the amount of tokens owned by `account`.\n     */\n    function balanceOf(address account) external view returns (uint256);\n\n    /**\n     * @dev Moves `amount` tokens from the caller's account to `recipient`.\n     *\n     * Returns a boolean value indicating whether the operation succeeded.\n     *\n     * Emits a {Transfer} event.\n     */\n    function transfer(address recipient, uint256 amount) external returns (bool);\n\n    /**\n     * @dev Returns the remaining number of tokens that `spender` will be\n     * allowed to spend on behalf of `owner` through {transferFrom}. This is\n     * zero by default.\n     *\n     * This value changes when {approve} or {transferFrom} are called.\n     */\n    function allowance(address owner, address spender) external view returns (uint256);\n\n    /**\n     * @dev Sets `amount` as the allowance of `spender` over the caller's tokens.\n     *\n     * Returns a boolean value indicating whether the operation succeeded.\n     *\n     * IMPORTANT: Beware that changing an allowance with this method brings the risk\n     * that someone may use both the old and the new allowance by unfortunate\n     * transaction ordering. One possible solution to mitigate this race\n     * condition is to first reduce the spender's allowance to 0 and set the\n     * desired value afterwards:\n     * https://github.com/ethereum/EIPs/issues/20#issuecomment-263524729\n     *\n     * Emits an {Approval} event.\n     */\n    function approve(address spender, uint256 amount) external returns (bool);\n\n    /**\n     * @dev Moves `amount` tokens from `sender` to `recipient` using the\n     * allowance mechanism. `amount` is then deducted from the caller's\n     * allowance.\n     *\n     * Returns a boolean value indicating whether the operation succeeded.\n     *\n     * Emits a {Transfer} event.\n     */\n    function transferFrom(address sender, address recipient, uint256 amount) external returns (bool);\n\n    /**\n     * @dev Emitted when `value` tokens are moved from one account (`from`) to\n     * another (`to`).\n     *\n     * Note that `value` may be zero.\n     */\n    event Transfer(address indexed from, address indexed to, uint256 value);\n\n    /**\n     * @dev Emitted when the allowance of a `spender` for an `owner` is set by\n     * a call to {approve}. `value` is the new allowance.\n     */\n    event Approval(address indexed owner, address indexed spender, uint256 value);\n}\n\n/**\n * @dev These functions deal with verification of Merkle trees (hash trees),\n */\nlibrary MerkleProof {\n    /**\n     * @dev Returns true if a `leaf` can be proved to be a part of a Merkle tree\n     * defined by `root`. For this, a `proof` must be provided, containing\n     * sibling hashes on the branch from the leaf to the root of the tree. Each\n     * pair of leaves and each pair of pre-images are assumed to be sorted.\n     */\n    function verify(bytes32[] memory proof, bytes32 root, bytes32 leaf) internal pure returns (bool) {\n        bytes32 computedHash = leaf;\n\n        for (uint256 i = 0; i < proof.length; i++) {\n            bytes32 proofElement = proof[i];\n\n            if (computedHash <= proofElement) {\n                // Hash(current computed hash + current element of the proof)\n                computedHash = keccak256(abi.encodePacked(computedHash, proofElement));\n            } else {\n                // Hash(current element of the proof + current computed hash)\n                computedHash = keccak256(abi.encodePacked(proofElement, computedHash));\n            }\n        }\n\n        // Check if the computed hash (root) is equal to the provided root\n        return computedHash == root;\n    }\n}\n\n// Allows anyone to claim a token if they exist in a merkle root.\ninterface IMerkleDistributor {\n    // Returns the address of the token distributed by this contract.\n    function token() external view returns (address);\n    // Returns the merkle root of the merkle tree containing account balances available to claim.\n    function merkleRoot() external view returns (bytes32);\n    // Returns true if the index has been marked claimed.\n    function isClaimed(uint256 index) external view returns (bool);\n    // Claim the given amount of the token to the given address. Reverts if the inputs are invalid.\n    function claim(uint256 index, address account, uint256 amount, bytes32[] calldata merkleProof) external;\n\n    function getMoneyBack() external;\n    //\n    function owner() external returns(address);\n\n    function round() external view returns(uint256);\n\n    function changeMerkleRoot(bytes32) external returns(uint256);\n\n    function lock() external view returns(bool);\n\n    function pause() external;\n\n    function start() external;\n\n    event Pause(uint256 round);\n\n    event Start(uint256 round);\n\n    // This event is triggered whenever a call to #claim succeeds.\n    event Claimed(uint256 round,uint256 index, address account, uint256 amount);\n}\n\ncontract MerkleDistributor is IMerkleDistributor {\n    address public immutable override token;\n    address public override owner;\n    bytes32 public override merkleRoot;\n    bool public override lock;\n    uint256 public override round;\n\n    // This is a packed array of booleans.\n    mapping(uint256=>mapping(uint256 => uint256)) private claimedBitMap;\n\n    constructor(address token_, bytes32 merkleRoot_) public {\n        token = token_;\n        merkleRoot = merkleRoot_;\n        owner = msg.sender;\n        lock = false;\n    }\n\n    modifier isOwner(){\n        require(msg.sender == owner,\"forbidden\");\n        _;\n    }\n\n    modifier isLock(){\n        require(lock == true,\"lock error\");\n        _;\n    }\n\n    modifier isUnLock(){\n        require(lock == false,\"lock error\");\n        _;\n    }\n\n    function getMoneyBack() public override isOwner(){\n        IERC20(token).transfer(owner, IERC20(token).balanceOf(address(this)));\n    }\n\n    function pause() public override isUnLock() isOwner(){\n        lock = true;\n        emit Pause(round);\n    }\n\n    function start() public override isLock() isOwner(){\n        lock = false;\n        emit Start(round);\n    }\n\n    function changeMerkleRoot(bytes32 _merkleRoot) public override isLock() isOwner() returns(uint256){\n        merkleRoot = _merkleRoot;\n        return round++;\n    }\n\n    function isClaimed(uint256 index) public view override returns (bool) {\n        uint256 claimedWordIndex = index / 256;\n        uint256 claimedBitIndex = index % 256;\n        uint256 claimedWord = claimedBitMap[round][claimedWordIndex];\n        uint256 mask = (1 << claimedBitIndex);\n        return claimedWord & mask == mask;\n    }\n\n    function _setClaimed(uint256 index) private {\n        uint256 claimedWordIndex = index / 256;\n        uint256 claimedBitIndex = index % 256;\n        claimedBitMap[round][claimedWordIndex] = claimedBitMap[round][claimedWordIndex] | (1 << claimedBitIndex);\n    }\n\n    function claim(uint256 index, address account, uint256 amount, bytes32[] calldata merkleProof) external override isUnLock(){\n        require(!isClaimed(index), 'MerkleDistributor: Drop already claimed.');\n\n        // Verify the merkle proof.\n        bytes32 node = keccak256(abi.encodePacked(index, account, amount));\n        require(MerkleProof.verify(merkleProof, merkleRoot, node), 'MerkleDistributor: Invalid proof.');\n\n        // Mark it claimed and send the token.\n        _setClaimed(index);\n        require(IERC20(token).transfer(account, amount), 'MerkleDistributor: Transfer failed.');\n\n        emit Claimed(round,index, account, amount);\n    }\n}",
  "sourcePath": "/Users/yinwei/work/miniswap/contracts/libraries/MerkleDistributor.sol",
  "compiler": {
    "name": "solc",
    "version": "0.6.9+commit.3e3065ac.Emscripten.clang"
  },
  "schemaVersion": "3.2.1",
  "updatedAt": "2020-09-23T09:03:05.621Z",
  "devdoc": {
    "methods": {}
  },
  "userdoc": {
    "methods": {}
  }
}