{
  "contractName": "MiniswapMiner",
  "abi": [
    {
      "inputs": [
        {
          "internalType": "uint256",
          "name": "_minFee",
          "type": "uint256"
        },
        {
          "internalType": "address",
          "name": "_mini",
          "type": "address"
        },
        {
          "internalType": "address",
          "name": "_feeder",
          "type": "address"
        },
        {
          "internalType": "address",
          "name": "_developer",
          "type": "address"
        }
      ],
      "stateMutability": "nonpayable",
      "type": "constructor"
    },
    {
      "anonymous": false,
      "inputs": [
        {
          "indexed": false,
          "internalType": "address",
          "name": "",
          "type": "address"
        }
      ],
      "name": "AddWhitelist",
      "type": "event"
    },
    {
      "anonymous": false,
      "inputs": [
        {
          "indexed": false,
          "internalType": "address",
          "name": "",
          "type": "address"
        }
      ],
      "name": "RemoveWhitelist",
      "type": "event"
    },
    {
      "inputs": [],
      "name": "developer",
      "outputs": [
        {
          "internalType": "address",
          "name": "",
          "type": "address"
        }
      ],
      "stateMutability": "view",
      "type": "function"
    },
    {
      "inputs": [],
      "name": "feeder",
      "outputs": [
        {
          "internalType": "address",
          "name": "",
          "type": "address"
        }
      ],
      "stateMutability": "view",
      "type": "function"
    },
    {
      "inputs": [],
      "name": "minFee",
      "outputs": [
        {
          "internalType": "uint256",
          "name": "",
          "type": "uint256"
        }
      ],
      "stateMutability": "view",
      "type": "function"
    },
    {
      "inputs": [
        {
          "internalType": "uint256",
          "name": "",
          "type": "uint256"
        }
      ],
      "name": "mineInfo",
      "outputs": [
        {
          "internalType": "uint256",
          "name": "",
          "type": "uint256"
        }
      ],
      "stateMutability": "view",
      "type": "function"
    },
    {
      "inputs": [],
      "name": "owner",
      "outputs": [
        {
          "internalType": "address",
          "name": "",
          "type": "address"
        }
      ],
      "stateMutability": "view",
      "type": "function"
    },
    {
      "inputs": [
        {
          "internalType": "address",
          "name": "",
          "type": "address"
        }
      ],
      "name": "whitelistMap",
      "outputs": [
        {
          "internalType": "bool",
          "name": "",
          "type": "bool"
        }
      ],
      "stateMutability": "view",
      "type": "function"
    },
    {
      "inputs": [
        {
          "internalType": "address",
          "name": "token",
          "type": "address"
        },
        {
          "internalType": "address",
          "name": "to",
          "type": "address"
        }
      ],
      "name": "getToken",
      "outputs": [],
      "stateMutability": "nonpayable",
      "type": "function"
    },
    {
      "inputs": [
        {
          "internalType": "uint256",
          "name": "_minFee",
          "type": "uint256"
        }
      ],
      "name": "changeMinFee",
      "outputs": [],
      "stateMutability": "nonpayable",
      "type": "function"
    },
    {
      "inputs": [
        {
          "internalType": "address",
          "name": "pair",
          "type": "address"
        }
      ],
      "name": "addWhitelist",
      "outputs": [],
      "stateMutability": "nonpayable",
      "type": "function"
    },
    {
      "inputs": [
        {
          "internalType": "address",
          "name": "factory",
          "type": "address"
        },
        {
          "internalType": "address",
          "name": "token0",
          "type": "address"
        },
        {
          "internalType": "address",
          "name": "token1",
          "type": "address"
        }
      ],
      "name": "addWhitelistByTokens",
      "outputs": [],
      "stateMutability": "nonpayable",
      "type": "function"
    },
    {
      "inputs": [
        {
          "internalType": "address",
          "name": "pair",
          "type": "address"
        }
      ],
      "name": "removeWhitelist",
      "outputs": [],
      "stateMutability": "nonpayable",
      "type": "function"
    },
    {
      "inputs": [
        {
          "internalType": "address",
          "name": "factory",
          "type": "address"
        },
        {
          "internalType": "address",
          "name": "token0",
          "type": "address"
        },
        {
          "internalType": "address",
          "name": "token1",
          "type": "address"
        }
      ],
      "name": "removeWhitelistByTokens",
      "outputs": [],
      "stateMutability": "nonpayable",
      "type": "function"
    },
    {
      "inputs": [
        {
          "internalType": "address",
          "name": "factory",
          "type": "address"
        },
        {
          "internalType": "address",
          "name": "to",
          "type": "address"
        },
        {
          "internalType": "address",
          "name": "token",
          "type": "address"
        },
        {
          "internalType": "uint256",
          "name": "amount",
          "type": "uint256"
        }
      ],
      "name": "mining",
      "outputs": [],
      "stateMutability": "nonpayable",
      "type": "function"
    }
  ],
  "bytecode": "0x608060405234801561001057600080fd5b506040516118393803806118398339818101604052608081101561003357600080fd5b5080516020820151604083015160609093015160008054336001600160a01b03199182161782556006949094556008805485166001600160a01b0394851617905560018054851695841695909517909455600280549093169116179055436007556117959081906100a490396000f3fe608060405234801561001057600080fd5b50600436106100cf5760003560e01c80638da5cb5b1161008c578063ca4b208b11610066578063ca4b208b1461021c578063cf29ddc414610224578063ea47186f1461025c578063f80f5dd514610298576100cf565b80638da5cb5b146101d3578063a317ea06146101f7578063a788a71614610214576100cf565b806324ec7590146100d457806332531c3c146100ee5780635487aae21461012857806367244714146101455780636d8f99901461017557806378c8cda7146101ad575b600080fd5b6100dc6102be565b60408051918252519081900360200190f35b6101146004803603602081101561010457600080fd5b50356001600160a01b03166102c4565b604080519115158252519081900360200190f35b6100dc6004803603602081101561013e57600080fd5b50356102d9565b6101736004803603604081101561015b57600080fd5b506001600160a01b03813581169160200135166102eb565b005b6101736004803603606081101561018b57600080fd5b506001600160a01b038135811691602081013582169160409091013516610439565b610173600480360360208110156101c357600080fd5b50356001600160a01b03166104a8565b6101db61051a565b604080516001600160a01b039092168252519081900360200190f35b6101736004803603602081101561020d57600080fd5b5035610529565b6101db61057f565b6101db61058e565b6101736004803603606081101561023a57600080fd5b506001600160a01b03813581169160208101358216916040909101351661059d565b6101736004803603608081101561027257600080fd5b506001600160a01b03813581169160208101358216916040820135169060600135610606565b610173600480360360208110156102ae57600080fd5b50356001600160a01b03166107da565b60065481565b60036020526000908152604090205460ff1681565b60046020526000908152604090205481565b6000546001600160a01b0316331461033c576040805162461bcd60e51b815260206004820152600f60248201526e3337b93134b23232b71d37bbb732b960891b604482015290519081900360640190fd5b604080516370a0823160e01b815230600482015290516000916001600160a01b038516916370a0823191602480820192602092909190829003018186803b15801561038657600080fd5b505afa15801561039a573d6000803e3d6000fd5b505050506040513d60208110156103b057600080fd5b50516040805163a9059cbb60e01b81526001600160a01b0385811660048301526024820184905291519293509085169163a9059cbb916044808201926020929091908290030181600087803b15801561040857600080fd5b505af115801561041c573d6000803e3d6000fd5b505050506040513d602081101561043257600080fd5b5050505050565b6000546001600160a01b0316331461048a576040805162461bcd60e51b815260206004820152600f60248201526e3337b93134b23232b71d37bbb732b960891b604482015290519081900360640190fd5b600061049784848461084f565b90506104a2816107da565b50505050565b6000546001600160a01b031633146104f9576040805162461bcd60e51b815260206004820152600f60248201526e3337b93134b23232b71d37bbb732b960891b604482015290519081900360640190fd5b6001600160a01b03166000908152600360205260409020805460ff19169055565b6000546001600160a01b031681565b6000546001600160a01b0316331461057a576040805162461bcd60e51b815260206004820152600f60248201526e3337b93134b23232b71d37bbb732b960891b604482015290519081900360640190fd5b600655565b6001546001600160a01b031681565b6002546001600160a01b031681565b6000546001600160a01b031633146105ee576040805162461bcd60e51b815260206004820152600f60248201526e3337b93134b23232b71d37bbb732b960891b604482015290519081900360640190fd5b60006105fb84848461084f565b90506104a2816104a8565b3360009081526003602052604090205460ff161515600114610665576040805162461bcd60e51b8152602060048201526013602482015272199bdc989a5919195b8e9dda1a5d195b1a5cdd606a1b604482015290519081900360640190fd5b6106718233308461090f565b6008546001600160a01b0383811691161415610709576008546106c2906001600160a01b03167311111111111111111111111111111111111111116106bd84600263ffffffff610a6c16565b610ad8565b6008546001546106fa916001600160a01b0390811691166106bd6106ed85600263ffffffff610a6c16565b859063ffffffff610c3b16565b6107048184610c8b565b6104a2565b6040805160028082526060808301845292602083019080368337019050509050828160008151811061073757fe5b6001600160a01b03928316602091820292909201015260085482519116908290600190811061076257fe5b60200260200101906001600160a01b031690816001600160a01b031681525050606061078f868484610f04565b90506000816001815181106107a057fe5b6020026020010151905060065481116107bb575050506104a2565b6107c787868387611051565b6107d18187610c8b565b50505050505050565b6000546001600160a01b0316331461082b576040805162461bcd60e51b815260206004820152600f60248201526e3337b93134b23232b71d37bbb732b960891b604482015290519081900360640190fd5b6001600160a01b03166000908152600360205260409020805460ff19166001179055565b600080600061085e8585611313565b604080516bffffffffffffffffffffffff19606094851b811660208084019190915293851b81166034830152825160288184030181526048830184528051908501206001600160f81b031960688401529a90941b9093166069840152607d8301989098527faf99c4b8a8ff362d03201e9b47833f197a849715b8f4625bb0aa7f3a11897ba4609d808401919091528851808403909101815260bd909201909752805196019590952095945050505050565b604080516001600160a01b0385811660248301528481166044830152606480830185905283518084039091018152608490920183526020820180516001600160e01b03166323b872dd60e01b17815292518251600094606094938a169392918291908083835b602083106109945780518252601f199092019160209182019101610975565b6001836020036101000a0380198251168184511680821785525050505050509050019150506000604051808303816000865af19150503d80600081146109f6576040519150601f19603f3d011682016040523d82523d6000602084013e6109fb565b606091505b5091509150818015610a29575080511580610a295750808060200190516020811015610a2657600080fd5b50515b610a645760405162461bcd60e51b81526004018080602001828103825260248152602001806117136024913960400191505060405180910390fd5b505050505050565b6000808211610ac2576040805162461bcd60e51b815260206004820152601a60248201527f536166654d6174683a206469766973696f6e206279207a65726f000000000000604482015290519081900360640190fd5b6000828481610acd57fe5b049150505b92915050565b604080516001600160a01b038481166024830152604480830185905283518084039091018152606490920183526020820180516001600160e01b031663a9059cbb60e01b178152925182516000946060949389169392918291908083835b60208310610b555780518252601f199092019160209182019101610b36565b6001836020036101000a0380198251168184511680821785525050505050509050019150506000604051808303816000865af19150503d8060008114610bb7576040519150601f19603f3d011682016040523d82523d6000602084013e610bbc565b606091505b5091509150818015610bea575080511580610bea5750808060200190516020811015610be757600080fd5b50515b610432576040805162461bcd60e51b815260206004820152601f60248201527f5472616e7366657248656c7065723a205452414e534645525f4641494c454400604482015290519081900360640190fd5b80820382811115610ad2576040805162461bcd60e51b815260206004820152601560248201527464732d6d6174682d7375622d756e646572666c6f7760581b604482015290519081900360640190fd5b6000610cb4611770610ca860075443610c3b90919063ffffffff16565b9063ffffffff610a6c16565b90506000610cc1826113f1565b6000838152600460205260409020549091508190610cf7908690610ceb908263ffffffff61144c16565b9063ffffffff61144c16565b1115610d2757600082815260046020526040902054610d2490600290610ca890849063ffffffff610c3b16565b93505b6000610d3f6064610ca887605a63ffffffff61149b16565b90506000610d53868363ffffffff610c3b16565b90508515610a645760085460408051631207f0c160e01b81526001600160a01b0388811660048301526024820186905291519190921691631207f0c191604480830192600092919082900301818387803b158015610db057600080fd5b505af1158015610dc4573d6000803e3d6000fd5b505060085460408051631207f0c160e01b81523360048201526024810187905290516001600160a01b039092169350631207f0c1925060448082019260009290919082900301818387803b158015610e1b57600080fd5b505af1158015610e2f573d6000803e3d6000fd5b5050600854600280546001600160a01b039283169450631207f0c1935090911690610e6190859063ffffffff61149b16565b6040518363ffffffff1660e01b815260040180836001600160a01b03166001600160a01b0316815260200182815260200192505050600060405180830381600087803b158015610eb057600080fd5b505af1158015610ec4573d6000803e3d6000fd5b505050600085815260046020526040902054610eed91508790610ceb908263ffffffff61144c16565b600085815260046020526040902055505050505050565b6060600282511015610f5d576040805162461bcd60e51b815260206004820152601f60248201527f4d696e697377617056324c6962726172793a20494e56414c49445f5041544800604482015290519081900360640190fd5b815167ffffffffffffffff81118015610f7557600080fd5b50604051908082528060200260200182016040528015610f9f578160200160208202803683370190505b5090508281600081518110610fb057fe5b60200260200101818152505060005b60018351038110156110495760008061100287868581518110610fde57fe5b6020026020010151878660010181518110610ff557fe5b60200260200101516114fe565b509150915061102584848151811061101657fe5b602002602001015183836115dc565b84846001018151811061103457fe5b60209081029190910101525050600101610fbf565b509392505050565b600854604080516370a0823160e01b815230600482015290516000926001600160a01b0316916370a08231916024808301926020929190829003018186803b15801561109c57600080fd5b505afa1580156110b0573d6000803e3d6000fd5b505050506040513d60208110156110c657600080fd5b505160085490915060009081906110e79087906001600160a01b0316611313565b9150915060006110f888848461084f565b9050600080886001600160a01b0316856001600160a01b03161461111e57876000611122565b6000885b91509150611131898489610ad8565b604080516000808252602082019283905263022c0d9f60e01b835260248201858152604483018590523060648401819052608060848501908152845160a486018190526001600160a01b038a169663022c0d9f968a968a9691949193919260c486019290918190849084905b838110156111b557818101518382015260200161119d565b50505050905090810190601f1680156111e25780820380516001836020036101000a031916815260200191505b5095505050505050600060405180830381600087803b15801561120457600080fd5b505af1158015611218573d6000803e3d6000fd5b5050600854604080516370a0823160e01b81523060048201529051600094506112a593508a926001600160a01b0316916370a08231916024808301926020929190829003018186803b15801561126d57600080fd5b505afa158015611281573d6000803e3d6000fd5b505050506040513d602081101561129757600080fd5b50519063ffffffff610c3b16565b6008549091506112de906001600160a01b03167311111111111111111111111111111111111111116106bd84600263ffffffff610a6c16565b600854600154611306916001600160a01b0390811691166106bd84600263ffffffff610a6c16565b5050505050505050505050565b600080826001600160a01b0316846001600160a01b031614156113675760405162461bcd60e51b81526004018080602001828103825260268152602001806116ed6026913960400191505060405180910390fd5b826001600160a01b0316846001600160a01b03161061138757828461138a565b83835b90925090506001600160a01b0382166113ea576040805162461bcd60e51b815260206004820152601f60248201527f4d696e697377617056324c6962726172793a205a45524f5f4144445245535300604482015290519081900360640190fd5b9250929050565b60008061140583601e63ffffffff610a6c16565b90506903cfc82e37e9a74000009150600a81101561144657611443600a82900a610ca86969e10de76676d0800000600785900a63ffffffff61149b16565b91505b50919050565b80820182811015610ad2576040805162461bcd60e51b815260206004820152601460248201527364732d6d6174682d6164642d6f766572666c6f7760601b604482015290519081900360640190fd5b60008115806114b6575050808202828282816114b357fe5b04145b610ad2576040805162461bcd60e51b815260206004820152601460248201527364732d6d6174682d6d756c2d6f766572666c6f7760601b604482015290519081900360640190fd5b60008060008061150e8686611313565b50905060008060006115218a8a8a61084f565b6001600160a01b0316630902f1ac6040518163ffffffff1660e01b815260040160806040518083038186803b15801561155957600080fd5b505afa15801561156d573d6000803e3d6000fd5b505050506040513d608081101561158357600080fd5b50805160208201516040909201516dffffffffffffffffffffffffffff918216955091811693501690506001600160a01b03898116908516146115c75781836115ca565b82825b909b909a509098509650505050505050565b600080841161161c5760405162461bcd60e51b815260040180806020018281038252602c8152602001806116c1602c913960400191505060405180910390fd5b60008311801561162c5750600082115b6116675760405162461bcd60e51b81526004018080602001828103825260298152602001806117376029913960400191505060405180910390fd5b600061167b856103e563ffffffff61149b16565b9050600061168f828563ffffffff61149b16565b905060006116a983610ceb886103e863ffffffff61149b16565b90508082816116b457fe5b0497965050505050505056fe4d696e697377617056324c6962726172793a20494e53554646494349454e545f494e5055545f414d4f554e544d696e697377617056324c6962726172793a204944454e544943414c5f4144445245535345535472616e7366657248656c7065723a205452414e534645525f46524f4d5f4641494c45444d696e697377617056324c6962726172793a20494e53554646494349454e545f4c4951554944495459a26469706673582212209e60a0f6200d84968947964d3bbf53cc3a85d855e6985b025f17add934890c6a64736f6c63430006090033",
  "immutableReferences": {},
  "source": "// SPDX-License-Identifier: SimPL-2.0\npragma solidity=0.6.9;\n\nimport './interfaces/IMiniswapMiner.sol';\nimport './libraries/TransferHelper.sol';\nimport './interfaces/IMiniswapPair.sol';\nimport './libraries/MiniswapLibrary.sol';\nimport './interfaces/IERC20.sol';\nimport './libraries/SafeMath.sol';\nimport './interfaces/IMini.sol';\n\ncontract MiniswapMiner is IMiniswapMiner{\n    using SafeMath for uint;\n    \n    address public override owner;\n    address public override feeder;\n    address public override developer;\n\n    mapping(address=>bool) public override whitelistMap;\n    mapping(uint256=>uint256) public override mineInfo; // day=>issueAmount\n    mapping(address=>uint256) private balances;\n    \n    uint256 public override minFee;\n\n    uint256 firstTxHeight;\n    address MINI;\n    mapping (uint=>mapping(address=>bool)) rewardMap;\n    mapping (uint=>uint) rewardAmountByRoundMap;\n\n    constructor(uint256 _minFee,address _mini,address _feeder,address _developer) public {\n        owner = msg.sender;\n        minFee = _minFee;\n        MINI = _mini;\n        feeder = _feeder;\n        developer = _developer;\n        firstTxHeight = block.number;\n    }\n\n    modifier isOwner(){\n        require(msg.sender == owner,\"forbidden:owner\");\n        _;\n    }\n\n    modifier isWhiteAddress(){\n        require(whitelistMap[msg.sender] == true,\"forbidden:whitelist\");\n        _;\n    }\n\n    function getToken(address token,address to) public isOwner() {\n        uint256 balance = IERC20(token).balanceOf(address(this));\n        IERC20(token).transfer(to,balance);\n    }\n\n    function changeMinFee(uint256 _minFee) override public isOwner() {\n        minFee = _minFee;\n    }\n\n    function addWhitelist(address pair) override public isOwner() {\n        whitelistMap[pair] = true;\n    }\n\n    function addWhitelistByTokens(address factory ,address token0,address token1) override public isOwner() {\n        address pair = MiniswapLibrary.pairFor(factory, token0, token1);\n        addWhitelist(pair);\n    }\n\n    function removeWhitelist(address pair) override public isOwner() {\n        whitelistMap[pair] = false;\n    }\n\n    function removeWhitelistByTokens(address factory ,address token0,address token1) override public isOwner() {\n        address pair = MiniswapLibrary.pairFor(factory, token0, token1);\n        removeWhitelist(pair);\n    }\n\n    function mining(address factory,address to,address token,uint amount) override public isWhiteAddress(){\n        TransferHelper.safeTransferFrom(token,msg.sender,address(this),amount);\n        if (token == MINI){\n            //send half of increment to address0,the other send to feeder\n            TransferHelper.safeTransfer(MINI,address(0x1111111111111111111111111111111111111111), amount.div(2));\n            TransferHelper.safeTransfer(MINI,feeder, amount.sub(amount.div(2)));\n            issueMini(amount,to);\n        } else {\n         //get price from token-USDT-MINI\n            address[] memory path = new address[](2);\n            path[0] = token;\n            path[1] = MINI;\n            uint256[] memory amountsOut = MiniswapLibrary.getAmountsOut(factory,amount,path); //[tokenAmountOut,USDTAmountOut,MINIAmountOut]\n\n            uint256 issueAmount = amountsOut[1];\n            //only mine when usdtout more than minFee\n            if(issueAmount<= minFee)\n                return;\n            swapMini(factory,token,issueAmount,amount); \n            issueMini(issueAmount,to);\n        }\n    }\n\n    function swapMini(address factory, address token,uint issueAmount,uint amount) internal {\n        uint256 balance0 = IERC20(MINI).balanceOf(address(this));\n        (address token0,address token1) = MiniswapLibrary.sortTokens(token,MINI);\n        address pair_token_mini = MiniswapLibrary.pairFor(factory,token0,token1);\n        (uint amount0Out ,uint amount1Out) = token0==token ? (uint(0),issueAmount):(issueAmount,uint(0));\n        TransferHelper.safeTransfer(token,pair_token_mini,amount); //send token to pair\n        IMiniswapPair(pair_token_mini).swap(\n                amount0Out, amount1Out, address(this), new bytes(0)\n            );\n        uint miniAmount = IERC20(MINI).balanceOf(address(this)).sub(balance0);\n        //send half of increment to address0,the other half send to feeder\n        TransferHelper.safeTransfer(MINI,address(0x1111111111111111111111111111111111111111), miniAmount.div(2));\n        TransferHelper.safeTransfer(MINI,feeder, miniAmount.div(2));\n    }\n\n    function issueMini(uint256 issueAmount,address to) internal{\n        ///////The 6000 block height is one day, 30 day is one month\n        uint durationDay = (block.number.sub(firstTxHeight)).div(6000);\n        uint256 issueAmountLimit = MiniswapLibrary.getIssueAmountLimit(durationDay);\n        //issue mini to liquilidity && user\n        if( mineInfo[durationDay].add(issueAmount).add(issueAmount) > issueAmountLimit){\n            issueAmount = issueAmountLimit.sub( mineInfo[durationDay]).div(2);\n        }\n        uint issueAmount_90 = issueAmount.mul(90).div(100);\n        uint issueAmount_10 = issueAmount.sub(issueAmount_90);\n        if(issueAmount > 0){\n            IMini(MINI).issueTo(to,issueAmount_90);\n            IMini(MINI).issueTo(msg.sender,issueAmount_90);\n            IMini(MINI).issueTo(developer,issueAmount_10.mul(2));\n            mineInfo[durationDay] = mineInfo[durationDay].add(issueAmount).add(issueAmount);\n        }\n    }\n}",
  "sourcePath": "/Users/tpkeeper/solwork/Miniswap-Core/contracts/MiniswapMiner.sol",
  "compiler": {
    "name": "solc",
    "version": "0.6.9+commit.3e3065ac.Emscripten.clang"
  },
  "schemaVersion": "3.2.2",
  "updatedAt": "2020-08-12T02:52:39.864Z",
  "devdoc": {
    "methods": {}
  },
  "userdoc": {
    "methods": {}
  }
}