{
  "contractName": "MiniswapFactory",
  "abi": [
    {
      "inputs": [
        {
          "internalType": "address",
          "name": "_miner",
          "type": "address"
        },
        {
          "internalType": "address",
          "name": "_mini",
          "type": "address"
        },
        {
          "internalType": "address",
          "name": "_feeToSetter",
          "type": "address"
        }
      ],
      "stateMutability": "nonpayable",
      "type": "constructor"
    },
    {
      "anonymous": false,
      "inputs": [
        {
          "indexed": true,
          "internalType": "address",
          "name": "token0",
          "type": "address"
        },
        {
          "indexed": true,
          "internalType": "address",
          "name": "token1",
          "type": "address"
        },
        {
          "indexed": false,
          "internalType": "address",
          "name": "pair",
          "type": "address"
        },
        {
          "indexed": false,
          "internalType": "uint256",
          "name": "",
          "type": "uint256"
        }
      ],
      "name": "PairCreated",
      "type": "event"
    },
    {
      "inputs": [],
      "name": "MINI",
      "outputs": [
        {
          "internalType": "address",
          "name": "",
          "type": "address"
        }
      ],
      "stateMutability": "view",
      "type": "function",
      "constant": true
    },
    {
      "inputs": [
        {
          "internalType": "uint256",
          "name": "",
          "type": "uint256"
        }
      ],
      "name": "allPairs",
      "outputs": [
        {
          "internalType": "address",
          "name": "",
          "type": "address"
        }
      ],
      "stateMutability": "view",
      "type": "function",
      "constant": true
    },
    {
      "inputs": [],
      "name": "feeTo",
      "outputs": [
        {
          "internalType": "address",
          "name": "",
          "type": "address"
        }
      ],
      "stateMutability": "view",
      "type": "function",
      "constant": true
    },
    {
      "inputs": [],
      "name": "feeToSetter",
      "outputs": [
        {
          "internalType": "address",
          "name": "",
          "type": "address"
        }
      ],
      "stateMutability": "view",
      "type": "function",
      "constant": true
    },
    {
      "inputs": [
        {
          "internalType": "address",
          "name": "",
          "type": "address"
        },
        {
          "internalType": "address",
          "name": "",
          "type": "address"
        }
      ],
      "name": "getPair",
      "outputs": [
        {
          "internalType": "address",
          "name": "",
          "type": "address"
        }
      ],
      "stateMutability": "view",
      "type": "function",
      "constant": true
    },
    {
      "inputs": [],
      "name": "miner",
      "outputs": [
        {
          "internalType": "address",
          "name": "",
          "type": "address"
        }
      ],
      "stateMutability": "view",
      "type": "function",
      "constant": true
    },
    {
      "inputs": [],
      "name": "allPairsLength",
      "outputs": [
        {
          "internalType": "uint256",
          "name": "",
          "type": "uint256"
        }
      ],
      "stateMutability": "view",
      "type": "function",
      "constant": true
    },
    {
      "inputs": [
        {
          "internalType": "address",
          "name": "tokenA",
          "type": "address"
        },
        {
          "internalType": "address",
          "name": "tokenB",
          "type": "address"
        }
      ],
      "name": "createPair",
      "outputs": [
        {
          "internalType": "address",
          "name": "pair",
          "type": "address"
        }
      ],
      "stateMutability": "nonpayable",
      "type": "function"
    },
    {
      "inputs": [
        {
          "internalType": "address",
          "name": "_feeTo",
          "type": "address"
        }
      ],
      "name": "setFeeTo",
      "outputs": [],
      "stateMutability": "nonpayable",
      "type": "function"
    },
    {
      "inputs": [
        {
          "internalType": "address",
          "name": "_feeToSetter",
          "type": "address"
        }
      ],
      "name": "setFeeToSetter",
      "outputs": [],
      "stateMutability": "nonpayable",
      "type": "function"
    }
  ],
  "bytecode": "0x608060405234801561001057600080fd5b506040516149513803806149518339818101604052606081101561003357600080fd5b5080516020820151604090920151600180546001600160a01b03199081166001600160a01b0393841617909155600380548216948316949094179093556002805490931691161790556148c68061008b6000396000f3fe608060405234801561001057600080fd5b506004361061009e5760003560e01c8063574f2ba311610066578063574f2ba3146100fc578063a2e74af614610116578063c9c653961461013e578063e6a439051461016c578063f46901ed1461019a5761009e565b8063017e7e58146100a3578063094b7415146100c75780631e3dd18b146100cf578063349dc329146100ec5780633f190c70146100f4575b600080fd5b6100ab6101c0565b604080516001600160a01b039092168252519081900360200190f35b6100ab6101cf565b6100ab600480360360208110156100e557600080fd5b50356101de565b6100ab610205565b6100ab610214565b610104610223565b60408051918252519081900360200190f35b61013c6004803603602081101561012c57600080fd5b50356001600160a01b0316610229565b005b6100ab6004803603604081101561015457600080fd5b506001600160a01b03813581169160200135166102a0565b6100ab6004803603604081101561018257600080fd5b506001600160a01b03813581169160200135166105de565b61013c600480360360208110156101b057600080fd5b50356001600160a01b0316610604565b6000546001600160a01b031681565b6001546001600160a01b031681565b600581815481106101eb57fe5b6000918252602090912001546001600160a01b0316905081565b6002546001600160a01b031681565b6003546001600160a01b031681565b60055490565b6001546001600160a01b0316331461027e576040805162461bcd60e51b815260206004820152601360248201527226b4b734b9bbb0b81d102327a92124a22222a760691b604482015290519081900360640190fd5b600180546001600160a01b0319166001600160a01b0392909216919091179055565b6000816001600160a01b0316836001600160a01b03161415610309576040805162461bcd60e51b815260206004820152601d60248201527f4d696e69737761703a204944454e544943414c5f414444524553534553000000604482015290519081900360640190fd5b600080836001600160a01b0316856001600160a01b03161061032c57838561032f565b84845b90925090506001600160a01b038216610388576040805162461bcd60e51b81526020600482015260166024820152754d696e69737761703a205a45524f5f4144445245535360501b604482015290519081900360640190fd5b6001600160a01b038281166000908152600460209081526040808320858516845290915290205416156103fa576040805162461bcd60e51b81526020600482015260156024820152744d696e69737761703a20504149525f45584953545360581b604482015290519081900360640190fd5b60606040518060200161040c9061067b565b6020820181038252601f19601f8201166040525090506000838360405160200180836001600160a01b03166001600160a01b031660601b8152601401826001600160a01b03166001600160a01b031660601b815260140192505050604051602081830303815290604052805190602001209050808251602084016000f560025460035460408051637c643b2f60e11b81526001600160a01b039384166004820152918316602483015287831660448301528683166064830152519297509087169163f8c8765e9160848082019260009290919082900301818387803b1580156104f457600080fd5b505af1158015610508573d6000803e3d6000fd5b505050506001600160a01b0384811660008181526004602081815260408084208987168086529083528185208054978d166001600160a01b031998891681179091559383528185208686528352818520805488168517905560058054600181018255958190527f036b6384b5eca791c62761152d0c79bb0604c104a5fb6f4eb0703f3154bb3db090950180549097168417909655925483519283529082015281517f0d3648bd0f6ba80134a33ba9275ac585d9d315f0ad8355cddefde31afa28d0e9929181900390910190a35050505092915050565b60046020908152600092835260408084209091529082529020546001600160a01b031681565b6001546001600160a01b03163314610659576040805162461bcd60e51b815260206004820152601360248201527226b4b734b9bbb0b81d102327a92124a22222a760691b604482015290519081900360640190fd5b600080546001600160a01b0319166001600160a01b0392909216919091179055565b614208806106898339019056fe60a0604052600160105534801561001557600080fd5b5060405146908060526141b68239604080519182900360520182208282018252600883526704d696e69737761760c41b6020938401528151808301835260018152603160f81b908401528151808401919091527fec7d8713b76b4c784aed92d89eeed862bc4363b0cff44d31006e21aa4547c332818301527fc89efdaa54c0f20c7adf612882df0950f5a951637e0307cdcb4c672f298b8bc66060808301919091526080808301969096523060a0808401919091528351808403909101815260c0909201909252805192019190912060035533901b9091525060805160601c61408d61012960003980611944528061226a52806123465280612bff5280612cdb5280612e8e52806134b6525061408d6000f3fe608060405234801561001057600080fd5b50600436106101fb5760003560e01c80637464fc3d1161011a578063bc25cf77116100ad578063d505accf1161007c578063d505accf14610545578063d7dc4e4314610596578063dd62ed3e1461062b578063f8c8765e14610659578063fff6cae914610697576101fb565b8063bc25cf7714610505578063bd821f341461052d578063c45a015514610535578063d21220a71461053d576101fb565b806395d89b41116100e957806395d89b41146104c157806396521716146104c9578063a9059cbb146104d1578063ba9a7a56146104fd576101fb565b80637464fc3d146104295780637ecebe001461043157806389afcb44146104575780638d7cf63a1461049b576101fb565b8063313ce567116101925780635909c0d5116101615780635909c0d5146103cd5780635a3d5493146103d55780636a627842146103dd57806370a0823114610403576101fb565b8063313ce56714610397578063349dc329146103b55780633644e515146103bd5780633f190c70146103c5576101fb565b806318160ddd116101ce57806318160ddd1461031957806318eb696a1461033357806323b872dd1461035957806330adf81f1461038f576101fb565b806306fdde03146102005780630902f1ac1461027d578063095ea7b3146102b55780630dfe1681146102f5575b600080fd5b61020861069f565b6040805160208082528351818301528351919283929083019185019080838360005b8381101561024257818101518382015260200161022a565b50505050905090810190601f16801561026f5780820380516001836020036101000a031916815260200191505b509250505060405180910390f35b6102856106c3565b604080516001600160701b03948516815292909316602083015263ffffffff168183015290519081900360600190f35b6102e1600480360360408110156102cb57600080fd5b506001600160a01b0381351690602001356106ed565b604080519115158252519081900360200190f35b6102fd610704565b604080516001600160a01b039092168252519081900360200190f35b610321610713565b60408051918252519081900360200190f35b6103216004803603602081101561034957600080fd5b50356001600160a01b0316610719565b6102e16004803603606081101561036f57600080fd5b506001600160a01b0381358116916020810135909116906040013561072b565b6103216107c5565b61039f6107e9565b6040805160ff9092168252519081900360200190f35b6102fd6107ee565b6103216107fd565b6102fd610803565b610321610812565b610321610818565b610321600480360360208110156103f357600080fd5b50356001600160a01b031661081e565b6103216004803603602081101561041957600080fd5b50356001600160a01b0316610e3a565b610321610e4c565b6103216004803603602081101561044757600080fd5b50356001600160a01b0316610e52565b61047d6004803603602081101561046d57600080fd5b50356001600160a01b0316610e64565b60408051938452602084019290925282820152519081900360600190f35b610321600480360360208110156104b157600080fd5b50356001600160a01b031661158b565b6102086116a2565b6103216116c2565b6102e1600480360360408110156104e757600080fd5b506001600160a01b0381351690602001356116c8565b6103216116d5565b61052b6004803603602081101561051b57600080fd5b50356001600160a01b03166116db565b005b6102fd611933565b6102fd611942565b6102fd611966565b61052b600480360360e081101561055b57600080fd5b506001600160a01b03813581169160208101359091169060408101359060608101359060ff6080820135169060a08101359060c00135611975565b61052b600480360360a08110156105ac57600080fd5b8135916020810135916001600160a01b03604083013581169260608101359091169181019060a0810160808201356401000000008111156105ec57600080fd5b8201836020820111156105fe57600080fd5b8035906020019184600183028401116401000000008311171561062057600080fd5b509092509050611b76565b6103216004803603604081101561064157600080fd5b506001600160a01b0381358116916020013516612e66565b61052b6004803603608081101561066f57600080fd5b506001600160a01b038135811691602081013582169160408201358116916060013516612e83565b61052b612feb565b6040518060400160405280600881526020016704d696e69737761760c41b81525081565b600c546001600160701b0380821692600160701b830490911691600160e01b900463ffffffff1690565b60006106fa3384846131af565b5060015b92915050565b6006546001600160a01b031681565b60005481565b600a6020526000908152604090205481565b6001600160a01b0383166000908152600260209081526040808320338452909152812054600019146107b0576001600160a01b038416600090815260026020908152604080832033845290915290205461078b908363ffffffff61321116565b6001600160a01b03851660009081526002602090815260408083203384529091529020555b6107bb848484613261565b5060019392505050565b7f6e71edae12b1b97f4d1f60370fef10105fa2faae0126114a169c64845d6126c981565b601281565b6005546001600160a01b031681565b60035481565b6008546001600160a01b031681565b600d5481565b600e5481565b6005546000906001600160a01b03163314610b805760105460011461087d576040805162461bcd60e51b815260206004820152601060248201526f135a5b9a5cddd85c0e881313d0d2d15160821b604482015290519081900360640190fd5b600060108190556001600160a01b0383168152600a6020526040902054156108aa576108a88261331b565b505b6000806108b56106c3565b50600654604080516370a0823160e01b815230600482015290519395509193506000926001600160a01b03909116916370a08231916024808301926020929190829003018186803b15801561090957600080fd5b505afa15801561091d573d6000803e3d6000fd5b505050506040513d602081101561093357600080fd5b5051600754604080516370a0823160e01b815230600482015290519293506000926001600160a01b03909216916370a0823191602480820192602092909190829003018186803b15801561098657600080fd5b505afa15801561099a573d6000803e3d6000fd5b505050506040513d60208110156109b057600080fd5b5051905060006109cf836001600160701b03871663ffffffff61321116565b905060006109ec836001600160701b03871663ffffffff61321116565b905060006109fa87876134b1565b60005490915080610a4357610a2f6103e8610a23610a1e878763ffffffff61361a16565b61367d565b9063ffffffff61321116565b9850610a3e60006103e86136ce565b610a92565b610a8f6001600160701b038916610a60868463ffffffff61361a16565b81610a6757fe5b046001600160701b038916610a82868563ffffffff61361a16565b81610a8957fe5b04613764565b98505b60008911610ad15760405162461bcd60e51b8152600401808060200182810382526027815260200180613fea6027913960400191505060405180910390fd5b610adb8a8a6136ce565b600b546001600160a01b038b166000908152600a6020526040902055610b0386868a8a61377c565b8115610b3357600c54610b2f906001600160701b0380821691600160701b90041663ffffffff61361a16565b600f555b6040805185815260208101859052815133927f4c209b5fc8ad50758f13e2e1088ba56a560dff690a1c6fef26394f4c03821c4f928290030190a25050600160105550610e35945050505050565b6001600160a01b0382166000908152600a602052604090205415610ba957610ba78261331b565b505b600080610bb46106c3565b50600654604080516370a0823160e01b815230600482015290519395509193506000926001600160a01b03909116916370a08231916024808301926020929190829003018186803b158015610c0857600080fd5b505afa158015610c1c573d6000803e3d6000fd5b505050506040513d6020811015610c3257600080fd5b5051600754604080516370a0823160e01b815230600482015290519293506000926001600160a01b03909216916370a0823191602480820192602092909190829003018186803b158015610c8557600080fd5b505afa158015610c99573d6000803e3d6000fd5b505050506040513d6020811015610caf57600080fd5b505190506000610cce836001600160701b03871663ffffffff61321116565b90506000610ceb836001600160701b03871663ffffffff61321116565b90506000610cf987876134b1565b60005490915080610d3157610d1d6103e8610a23610a1e878763ffffffff61361a16565b9850610d2c60006103e86136ce565b610d51565b610d4e6001600160701b038916610a60868463ffffffff61361a16565b98505b60008911610d905760405162461bcd60e51b8152600401808060200182810382526027815260200180613fea6027913960400191505060405180910390fd5b610d9a8a8a6136ce565b600b546001600160a01b038b166000908152600a6020526040902055610dc286868a8a61377c565b8115610df257600c54610dee906001600160701b0380821691600160701b90041663ffffffff61361a16565b600f555b6040805185815260208101859052815133927f4c209b5fc8ad50758f13e2e1088ba56a560dff690a1c6fef26394f4c03821c4f928290030190a250505050505050505b919050565b60016020526000908152604090205481565b600f5481565b60046020526000908152604090205481565b600554600090819081906001600160a01b0316331461122d57601054600114610ec7576040805162461bcd60e51b815260206004820152601060248201526f135a5b9a5cddd85c0e881313d0d2d15160821b604482015290519081900360640190fd5b6000601081905580610ed76106c3565b50600654600754604080516370a0823160e01b815230600482015290519496509294506001600160a01b039182169391169160009184916370a08231916024808301926020929190829003018186803b158015610f3357600080fd5b505afa158015610f47573d6000803e3d6000fd5b505050506040513d6020811015610f5d57600080fd5b5051604080516370a0823160e01b815230600482015290519192506000916001600160a01b038516916370a08231916024808301926020929190829003018186803b158015610fab57600080fd5b505afa158015610fbf573d6000803e3d6000fd5b505050506040513d6020811015610fd557600080fd5b505130600090815260016020526040812054919250610ff488886134b1565b6000549091508061100b848763ffffffff61361a16565b8161101257fe5b049b5080611026848663ffffffff61361a16565b8161102d57fe5b049a5060008c118015611040575060008b115b61107b5760405162461bcd60e51b8152600401808060200182810382526027815260200180613fc36027913960400191505060405180910390fd5b6110848d61331b565b99506110903084613940565b61109b878e8e6139de565b6110a6868e8d6139de565b604080516370a0823160e01b815230600482015290516001600160a01b038916916370a08231916024808301926020929190829003018186803b1580156110ec57600080fd5b505afa158015611100573d6000803e3d6000fd5b505050506040513d602081101561111657600080fd5b5051604080516370a0823160e01b815230600482015290519196506001600160a01b038816916370a0823191602480820192602092909190829003018186803b15801561116257600080fd5b505afa158015611176573d6000803e3d6000fd5b505050506040513d602081101561118c57600080fd5b5051935061119c85858b8b61377c565b81156111cc57600c546111c8906001600160701b0380821691600160701b90041663ffffffff61361a16565b600f555b604080518d8152602081018d90528082018c905290516001600160a01b038f169133917fd175a80c109434bb89948928ab2475a6647c94244cb70002197896423c8833639181900360600190a3505060016010555061158495505050505050565b6000806112386106c3565b50600654600754604080516370a0823160e01b815230600482015290519496509294506001600160a01b039182169391169160009184916370a08231916024808301926020929190829003018186803b15801561129457600080fd5b505afa1580156112a8573d6000803e3d6000fd5b505050506040513d60208110156112be57600080fd5b5051604080516370a0823160e01b815230600482015290519192506000916001600160a01b038516916370a08231916024808301926020929190829003018186803b15801561130c57600080fd5b505afa158015611320573d6000803e3d6000fd5b505050506040513d602081101561133657600080fd5b50513060009081526001602052604081205491925061135588886134b1565b6000549091508061136c848763ffffffff61361a16565b8161137357fe5b049b5080611387848663ffffffff61361a16565b8161138e57fe5b049a5060008c1180156113a1575060008b115b6113dc5760405162461bcd60e51b8152600401808060200182810382526027815260200180613fc36027913960400191505060405180910390fd5b6113e58d61331b565b99506113f13084613940565b6113fc878e8e6139de565b611407868e8d6139de565b604080516370a0823160e01b815230600482015290516001600160a01b038916916370a08231916024808301926020929190829003018186803b15801561144d57600080fd5b505afa158015611461573d6000803e3d6000fd5b505050506040513d602081101561147757600080fd5b5051604080516370a0823160e01b815230600482015290519196506001600160a01b038816916370a0823191602480820192602092909190829003018186803b1580156114c357600080fd5b505afa1580156114d7573d6000803e3d6000fd5b505050506040513d60208110156114ed57600080fd5b505193506114fd85858b8b61377c565b811561152d57600c54611529906001600160701b0380821691600160701b90041663ffffffff61361a16565b600f555b604080518d8152602081018d90528082018c905290516001600160a01b038f169133917fd175a80c109434bb89948928ab2475a6647c94244cb70002197896423c8833639181900360600190a35050505050505050505b9193909250565b600854600954604080516370a0823160e01b81526001600160a01b0392831660048201529051600093849316916370a08231916024808301926020929190829003018186803b1580156115dd57600080fd5b505afa1580156115f1573d6000803e3d6000fd5b505050506040513d602081101561160757600080fd5b50516001600160a01b0384166000908152600a6020526040812054600b5492935090916116399163ffffffff61321116565b9050600b546000141561164f576000925061169b565b60008054600b5430835260016020526040909220546116989261168c9182908690611680908963ffffffff61361a16565b9063ffffffff61361a16565b9063ffffffff613b7816565b92505b5050919050565b604051806040016040528060048152602001634d494e4960e01b81525081565b600b5481565b60006106fa338484613261565b6103e881565b6005546001600160a01b0316331461185957601054600114611737576040805162461bcd60e51b815260206004820152601060248201526f135a5b9a5cddd85c0e881313d0d2d15160821b604482015290519081900360640190fd5b6000601055600654600754600c54604080516370a0823160e01b815230600482015290516001600160a01b0394851694909316926117e692859287926117e1926001600160701b03169185916370a0823191602480820192602092909190829003018186803b1580156117a957600080fd5b505afa1580156117bd573d6000803e3d6000fd5b505050506040513d60208110156117d357600080fd5b50519063ffffffff61321116565b6139de565b600c54604080516370a0823160e01b8152306004820152905161184d92849287926117e192600160701b90046001600160701b0316916001600160a01b038616916370a0823191602480820192602092909190829003018186803b1580156117a957600080fd5b50506001601055611930565b600654600754600c54604080516370a0823160e01b815230600482015290516001600160a01b0394851694909316926118c692859287926117e1926001600160701b03169185916370a0823191602480820192602092909190829003018186803b1580156117a957600080fd5b600c54604080516370a0823160e01b8152306004820152905161192d92849287926117e192600160701b90046001600160701b0316916001600160a01b038616916370a0823191602480820192602092909190829003018186803b1580156117a957600080fd5b50505b50565b6009546001600160a01b031681565b7f000000000000000000000000000000000000000000000000000000000000000081565b6007546001600160a01b031681565b428410156119be576040805162461bcd60e51b8152602060048201526011602482015270135a5b9a5cddd85c0e8811561412549151607a1b604482015290519081900360640190fd5b6003546001600160a01b0380891660008181526004602090815260408083208054600180820190925582517f6e71edae12b1b97f4d1f60370fef10105fa2faae0126114a169c64845d6126c98186015280840196909652958d166060860152608085018c905260a085019590955260c08085018b90528151808603909101815260e08501825280519083012061190160f01b6101008601526101028501969096526101228085019690965280518085039096018652610142840180825286519683019690962095839052610162840180825286905260ff89166101828501526101a284018890526101c28401879052519193926101e280820193601f1981019281900390910190855afa158015611ad9573d6000803e3d6000fd5b5050604051601f1901519150506001600160a01b03811615801590611b0f5750886001600160a01b0316816001600160a01b0316145b611b60576040805162461bcd60e51b815260206004820152601b60248201527f4d696e69737761703a20494e56414c49445f5349474e41545552450000000000604482015290519081900360640190fd5b611b6b8989896131af565b505050505050505050565b6005546001600160a01b0316331461257d57601054600114611bd2576040805162461bcd60e51b815260206004820152601060248201526f135a5b9a5cddd85c0e881313d0d2d15160821b604482015290519081900360640190fd5b600060105585151580611be55750600085115b611c205760405162461bcd60e51b81526004018080602001828103825260248152602001806140346024913960400191505060405180910390fd5b600080611c2b6106c3565b5091509150816001600160701b031688108015611c505750806001600160701b031687105b611ca1576040805162461bcd60e51b815260206004820181905260248201527f4d696e69737761703a20494e53554646494349454e545f4c4951554944495459604482015290519081900360640190fd5b60065460075460009182916001600160a01b0391821691908116908a168214801590611cdf5750806001600160a01b03168a6001600160a01b031614155b611d27576040805162461bcd60e51b81526020600482015260146024820152734d696e69737761703a20494e56414c49445f544f60601b604482015290519081900360640190fd5b8b15611d3857611d38828b8e6139de565b8a15611d4957611d49818b8d6139de565b8615611e0457896001600160a01b0316632fd2a1de338e8e8c8c6040518663ffffffff1660e01b815260040180866001600160a01b03166001600160a01b03168152602001858152602001848152602001806020018281038252848482818152602001925080828437600081840152601f19601f8201169050808301925050509650505050505050600060405180830381600087803b158015611deb57600080fd5b505af1158015611dff573d6000803e3d6000fd5b505050505b604080516370a0823160e01b815230600482015290516001600160a01b038416916370a08231916024808301926020929190829003018186803b158015611e4a57600080fd5b505afa158015611e5e573d6000803e3d6000fd5b505050506040513d6020811015611e7457600080fd5b5051604080516370a0823160e01b815230600482015290519195506001600160a01b038316916370a0823191602480820192602092909190829003018186803b158015611ec057600080fd5b505afa158015611ed4573d6000803e3d6000fd5b505050506040513d6020811015611eea57600080fd5b5051925060009150506001600160701b0385168b90038311611f0d576000611f1c565b8a856001600160701b03160383035b905060008a856001600160701b0316038311611f39576000611f48565b8a856001600160701b03160383035b90506000821180611f595750600081115b611f945760405162461bcd60e51b81526004018080602001828103825260238152602001806140116023913960400191505060405180910390fd5b6000611fbc611faa84600363ffffffff61361a16565b610a23876103e863ffffffff61361a16565b90506000611fd4611faa84600363ffffffff61361a16565b9050611ff9620f42406116806001600160701b038b8116908b1663ffffffff61361a16565b612009838363ffffffff61361a16565b101561204a576040805162461bcd60e51b815260206004820152600b60248201526a4d696e69737761703a204b60a81b604482015290519081900360640190fd5b50506000829050600082905060008e905060008e90508d6001600160a01b0316336001600160a01b03167fd78ad95fa46c994b6551d0da85fc275fe613ce37657fb8d5e3d130840159d822868686866040518085815260200184815260200183815260200182815260200194505050505060405180910390a3505060055460408051630c94c70f60e21b81523060048201529051600094506001600160a01b0390921692506332531c3c916024808301926020929190829003018186803b15801561211457600080fd5b505afa158015612128573d6000803e3d6000fd5b505050506040513d602081101561213e57600080fd5b5051905080801561215a57506005546001600160a01b03163314155b1561247557600854600954604080516370a0823160e01b81526001600160a01b039283166004820152905160009392909216916370a0823191602480820192602092909190829003018186803b1580156121b357600080fd5b505afa1580156121c7573d6000803e3d6000fd5b505050506040513d60208110156121dd57600080fd5b505190508a60006121fb6103e861168c88600363ffffffff61361a16565b905060006122166103e861168c88600363ffffffff61361a16565b905081156122f45761222c828a03898d8d61377c565b600654600554612249916001600160a01b03908116911684613be2565b60055460095460065460408051630d33800760e31b81526001600160a01b037f0000000000000000000000000000000000000000000000000000000000000000811660048301529384166024820152878416604482015291831660648301526084820186905251919092169163699c00389160a480830192600092919082900301818387803b1580156122db57600080fd5b505af11580156122ef573d6000803e3d6000fd5b505050505b80156123d05761230889828a038d8d61377c565b600754600554612325916001600160a01b03908116911683613be2565b60055460095460075460408051630d33800760e31b81526001600160a01b037f0000000000000000000000000000000000000000000000000000000000000000811660048301529384166024820152878416604482015291831660648301526084820185905251919092169163699c00389160a480830192600092919082900301818387803b1580156123b757600080fd5b505af11580156123cb573d6000803e3d6000fd5b505050505b600854600954604080516370a0823160e01b81526001600160a01b039283166004820152905160009392909216916370a0823191602480820192602092909190829003018186803b15801561242457600080fd5b505afa158015612438573d6000803e3d6000fd5b505050506040513d602081101561244e57600080fd5b5051600b5490915061246c908690610a23908463ffffffff613d4516565b600b5550505050505b50600654604080516370a0823160e01b8152306004820152905161256c926001600160a01b0316916370a08231916024808301926020929190829003018186803b1580156124c257600080fd5b505afa1580156124d6573d6000803e3d6000fd5b505050506040513d60208110156124ec57600080fd5b5051600754604080516370a0823160e01b815230600482015290516001600160a01b03909216916370a0823191602480820192602092909190829003018186803b15801561253957600080fd5b505afa15801561254d573d6000803e3d6000fd5b505050506040513d602081101561256357600080fd5b5051888861377c565b5050600160105550612e5e92505050565b600086118061258c5750600085115b6125c75760405162461bcd60e51b81526004018080602001828103825260248152602001806140346024913960400191505060405180910390fd5b6000806125d26106c3565b5091509150816001600160701b0316881080156125f75750806001600160701b031687105b612648576040805162461bcd60e51b815260206004820181905260248201527f4d696e69737761703a20494e53554646494349454e545f4c4951554944495459604482015290519081900360640190fd5b60065460075460009182916001600160a01b0391821691908116908a1682148015906126865750806001600160a01b03168a6001600160a01b031614155b6126ce576040805162461bcd60e51b81526020600482015260146024820152734d696e69737761703a20494e56414c49445f544f60601b604482015290519081900360640190fd5b8b156126df576126df828b8e6139de565b8a156126f0576126f0818b8d6139de565b86156127ab57896001600160a01b0316632fd2a1de338e8e8c8c6040518663ffffffff1660e01b815260040180866001600160a01b03166001600160a01b03168152602001858152602001848152602001806020018281038252848482818152602001925080828437600081840152601f19601f8201169050808301925050509650505050505050600060405180830381600087803b15801561279257600080fd5b505af11580156127a6573d6000803e3d6000fd5b505050505b604080516370a0823160e01b815230600482015290516001600160a01b038416916370a08231916024808301926020929190829003018186803b1580156127f157600080fd5b505afa158015612805573d6000803e3d6000fd5b505050506040513d602081101561281b57600080fd5b5051604080516370a0823160e01b815230600482015290519195506001600160a01b038316916370a0823191602480820192602092909190829003018186803b15801561286757600080fd5b505afa15801561287b573d6000803e3d6000fd5b505050506040513d602081101561289157600080fd5b5051925060009150506001600160701b0385168b900383116128b45760006128c3565b8a856001600160701b03160383035b905060008a856001600160701b03160383116128e05760006128ef565b8a856001600160701b03160383035b905060008211806129005750600081115b61293b5760405162461bcd60e51b81526004018080602001828103825260238152602001806140116023913960400191505060405180910390fd5b6000612951611faa84600363ffffffff61361a16565b90506000612969611faa84600363ffffffff61361a16565b905061298e620f42406116806001600160701b038b8116908b1663ffffffff61361a16565b61299e838363ffffffff61361a16565b10156129df576040805162461bcd60e51b815260206004820152600b60248201526a4d696e69737761703a204b60a81b604482015290519081900360640190fd5b50506000829050600082905060008e905060008e90508d6001600160a01b0316336001600160a01b03167fd78ad95fa46c994b6551d0da85fc275fe613ce37657fb8d5e3d130840159d822868686866040518085815260200184815260200183815260200182815260200194505050505060405180910390a3505060055460408051630c94c70f60e21b81523060048201529051600094506001600160a01b0390921692506332531c3c916024808301926020929190829003018186803b158015612aa957600080fd5b505afa158015612abd573d6000803e3d6000fd5b505050506040513d6020811015612ad357600080fd5b50519050808015612aef57506005546001600160a01b03163314155b15612e0a57600854600954604080516370a0823160e01b81526001600160a01b039283166004820152905160009392909216916370a0823191602480820192602092909190829003018186803b158015612b4857600080fd5b505afa158015612b5c573d6000803e3d6000fd5b505050506040513d6020811015612b7257600080fd5b505190508a6000612b906103e861168c88600363ffffffff61361a16565b90506000612bab6103e861168c88600363ffffffff61361a16565b90508115612c8957612bc1828a03898d8d61377c565b600654600554612bde916001600160a01b03908116911684613be2565b60055460095460065460408051630d33800760e31b81526001600160a01b037f0000000000000000000000000000000000000000000000000000000000000000811660048301529384166024820152878416604482015291831660648301526084820186905251919092169163699c00389160a480830192600092919082900301818387803b158015612c7057600080fd5b505af1158015612c84573d6000803e3d6000fd5b505050505b8015612d6557612c9d89828a038d8d61377c565b600754600554612cba916001600160a01b03908116911683613be2565b60055460095460075460408051630d33800760e31b81526001600160a01b037f0000000000000000000000000000000000000000000000000000000000000000811660048301529384166024820152878416604482015291831660648301526084820185905251919092169163699c00389160a480830192600092919082900301818387803b158015612d4c57600080fd5b505af1158015612d60573d6000803e3d6000fd5b505050505b600854600954604080516370a0823160e01b81526001600160a01b039283166004820152905160009392909216916370a0823191602480820192602092909190829003018186803b158015612db957600080fd5b505afa158015612dcd573d6000803e3d6000fd5b505050506040513d6020811015612de357600080fd5b5051600b54909150612e01908690610a23908463ffffffff613d4516565b600b5550505050505b50600654604080516370a0823160e01b81523060048201529051612e57926001600160a01b0316916370a08231916024808301926020929190829003018186803b1580156124c257600080fd5b5050505050505b505050505050565b600260209081526000928352604080842090915290825290205481565b336001600160a01b037f00000000000000000000000000000000000000000000000000000000000000001614612ef6576040805162461bcd60e51b815260206004820152601360248201527226b4b734b9bbb0b81d102327a92124a22222a760691b604482015290519081900360640190fd5b600580546001600160a01b038087166001600160a01b03199283161790925560068054858416908316179055600780548484169083161790556008805492861692909116919091179055604051606090612f5260208201613dcb565b601f1982820381018352601f9091011660408181526006546007546bffffffffffffffffffffffff19606092831b81166020868101919091529190921b9091166034840152815160288185030181526048909301909152815191810191909120825192935091600091839190850183f5600980546001600160a01b0319166001600160a01b039290921691909117905550505050505050565b6005546001600160a01b0316331461316157601054600114613047576040805162461bcd60e51b815260206004820152601060248201526f135a5b9a5cddd85c0e881313d0d2d15160821b604482015290519081900360640190fd5b6000601055600654604080516370a0823160e01b81523060048201529051613157926001600160a01b0316916370a08231916024808301926020929190829003018186803b15801561309857600080fd5b505afa1580156130ac573d6000803e3d6000fd5b505050506040513d60208110156130c257600080fd5b5051600754604080516370a0823160e01b815230600482015290516001600160a01b03909216916370a0823191602480820192602092909190829003018186803b15801561310f57600080fd5b505afa158015613123573d6000803e3d6000fd5b505050506040513d602081101561313957600080fd5b5051600c546001600160701b0380821691600160701b90041661377c565b60016010556131ad565b600654604080516370a0823160e01b815230600482015290516131ad926001600160a01b0316916370a08231916024808301926020929190829003018186803b15801561309857600080fd5b565b6001600160a01b03808416600081815260026020908152604080832094871680845294825291829020859055815185815291517f8c5be1e5ebec7d5bd14f71427d1e84f3dd0314c0f7b2291e5b200ac8c7c3b9259281900390910190a3505050565b808203828111156106fe576040805162461bcd60e51b815260206004820152601560248201527464732d6d6174682d7375622d756e646572666c6f7760581b604482015290519081900360640190fd5b6001600160a01b03831660009081526001602052604090205461328a908263ffffffff61321116565b6001600160a01b0380851660009081526001602052604080822093909355908416815220546132bf908263ffffffff613d4516565b6001600160a01b0380841660008181526001602090815260409182902094909455805185815290519193928716927fddf252ad1be2c89b69c2b068fc378daa952ba7f163c4a11628f55a4df523b3ef92918290030190a3505050565b600854600954604080516370a0823160e01b81526001600160a01b0392831660048201529051600093849316916370a08231916024808301926020929190829003018186803b15801561336d57600080fd5b505afa158015613381573d6000803e3d6000fd5b505050506040513d602081101561339757600080fd5b50516001600160a01b0384166000908152600a6020526040812054600b5492935090916133c99163ffffffff61321116565b9050600b54600014156133df5760009250613413565b60008054600b5430835260016020526040909220546134109261168c9182908690611680908963ffffffff61361a16565b92505b8215613492576009546008546040805163e1a2f31560e01b81526001600160a01b0392831660048201528783166024820152604481018790529051919092169163e1a2f31591606480830192600092919082900301818387803b15801561347957600080fd5b505af115801561348d573d6000803e3d6000fd5b505050505b50506001600160a01b039091166000908152600a602052604081205590565b6000807f00000000000000000000000000000000000000000000000000000000000000006001600160a01b031663017e7e586040518163ffffffff1660e01b815260040160206040518083038186803b15801561350d57600080fd5b505afa158015613521573d6000803e3d6000fd5b505050506040513d602081101561353757600080fd5b5051600f546001600160a01b03821615801594509192509061360657801561360157600061357a610a1e6001600160701b0388811690881663ffffffff61361a16565b905060006135878361367d565b9050808211156135fe5760006135b56135a6848463ffffffff61321116565b6000549063ffffffff61361a16565b905060006135da836135ce86600563ffffffff61361a16565b9063ffffffff613d4516565b905060008183816135e757fe5b04905080156135fa576135fa87826136ce565b5050505b50505b613612565b8015613612576000600f555b505092915050565b60008115806136355750508082028282828161363257fe5b04145b6106fe576040805162461bcd60e51b815260206004820152601460248201527364732d6d6174682d6d756c2d6f766572666c6f7760601b604482015290519081900360640190fd5b600060038211156136c0575080600160028204015b818110156136ba578091506002818285816136a957fe5b0401816136b257fe5b049050613692565b50610e35565b8115610e3557506001919050565b6000546136e1908263ffffffff613d4516565b60009081556001600160a01b03831681526001602052604090205461370c908263ffffffff613d4516565b6001600160a01b03831660008181526001602090815260408083209490945583518581529351929391927fddf252ad1be2c89b69c2b068fc378daa952ba7f163c4a11628f55a4df523b3ef9281900390910190a35050565b60008183106137735781613775565b825b9392505050565b6001600160701b03841180159061379a57506001600160701b038311155b6137e0576040805162461bcd60e51b81526020600482015260126024820152714d696e69737761703a204f564552464c4f5760701b604482015290519081900360640190fd5b600c5463ffffffff42811691600160e01b9004811682039081161580159061381057506001600160701b03841615155b801561382457506001600160701b03831615155b15613895578063ffffffff166138528561383d86613d94565b6001600160e01b03169063ffffffff613da616565b600d80546001600160e01b03929092169290920201905563ffffffff811661387d8461383d87613d94565b600e80546001600160e01b0392909216929092020190555b600c80546dffffffffffffffffffffffffffff19166001600160701b03888116919091176dffffffffffffffffffffffffffff60701b1916600160701b8883168102919091176001600160e01b0316600160e01b63ffffffff871602179283905560408051848416815291909304909116602082015281517f1c411e9a96e071241c2f21f7726b17ae89e3cab4c78be50e062b03a9fffbbad1929181900390910190a1505050505050565b6001600160a01b038216600090815260016020526040902054613969908263ffffffff61321116565b6001600160a01b03831660009081526001602052604081209190915554613996908263ffffffff61321116565b60009081556040805183815290516001600160a01b038516917fddf252ad1be2c89b69c2b068fc378daa952ba7f163c4a11628f55a4df523b3ef919081900360200190a35050565b604080518082018252601981527f7472616e7366657228616464726573732c75696e74323536290000000000000060209182015281516001600160a01b0385811660248301526044808301869052845180840390910181526064909201845291810180516001600160e01b031663a9059cbb60e01b1781529251815160009460609489169392918291908083835b60208310613a8b5780518252601f199092019160209182019101613a6c565b6001836020036101000a0380198251168184511680821785525050505050509050019150506000604051808303816000865af19150503d8060008114613aed576040519150601f19603f3d011682016040523d82523d6000602084013e613af2565b606091505b5091509150818015613b20575080511580613b205750808060200190516020811015613b1d57600080fd5b50515b613b71576040805162461bcd60e51b815260206004820152601960248201527f4d696e69737761703a205452414e534645525f4641494c454400000000000000604482015290519081900360640190fd5b5050505050565b6000808211613bce576040805162461bcd60e51b815260206004820152601a60248201527f536166654d6174683a206469766973696f6e206279207a65726f000000000000604482015290519081900360640190fd5b6000828481613bd957fe5b04949350505050565b604080516001600160a01b038481166024830152604480830185905283518084039091018152606490920183526020820180516001600160e01b031663095ea7b360e01b178152925182516000946060949389169392918291908083835b60208310613c5f5780518252601f199092019160209182019101613c40565b6001836020036101000a0380198251168184511680821785525050505050509050019150506000604051808303816000865af19150503d8060008114613cc1576040519150601f19603f3d011682016040523d82523d6000602084013e613cc6565b606091505b5091509150818015613cf4575080511580613cf45750808060200190516020811015613cf157600080fd5b50515b613b71576040805162461bcd60e51b815260206004820152601e60248201527f5472616e7366657248656c7065723a20415050524f56455f4641494c45440000604482015290519081900360640190fd5b808201828110156106fe576040805162461bcd60e51b815260206004820152601460248201527364732d6d6174682d6164642d6f766572666c6f7760601b604482015290519081900360640190fd5b6001600160701b0316600160701b0290565b60006001600160701b0382166001600160e01b03841681613dc357fe5b049392505050565b6101ea80613dd98339019056fe608060405234801561001057600080fd5b50600080546001600160a01b031916331790556101b8806100326000396000f3fe608060405234801561001057600080fd5b50600436106100365760003560e01c80638da5cb5b1461003b578063e1a2f3151461005f575b600080fd5b610043610097565b604080516001600160a01b039092168252519081900360200190f35b6100956004803603606081101561007557600080fd5b506001600160a01b038135811691602081013590911690604001356100a6565b005b6000546001600160a01b031681565b6000546001600160a01b031633146100f1576040805162461bcd60e51b81526020600482015260096024820152683337b93134b23232b760b91b604482015290519081900360640190fd5b826001600160a01b031663a9059cbb83836040518363ffffffff1660e01b815260040180836001600160a01b03166001600160a01b0316815260200182815260200192505050602060405180830381600087803b15801561015157600080fd5b505af1158015610165573d6000803e3d6000fd5b505050506040513d602081101561017b57600080fd5b505050505056fea26469706673582212200db1a3f7a60cd83baa05e5fdb65df83cf2137cb86727325f2fe68a8ed2011ad864736f6c634300060900334d696e69737761703a20494e53554646494349454e545f4c49515549444954595f4255524e45444d696e69737761703a20494e53554646494349454e545f4c49515549444954595f4d494e5445444d696e69737761703a20494e53554646494349454e545f494e5055545f414d4f554e544d696e69737761703a20494e53554646494349454e545f4f55545055545f414d4f554e54a2646970667358221220b155b1ade7489921fa4979223b8f2ba86e7058e4a05dd852151df95f210172ea64736f6c63430006090033454950373132446f6d61696e28737472696e67206e616d652c737472696e672076657273696f6e2c75696e7432353620636861696e49642c6164647265737320766572696679696e67436f6e747261637429a2646970667358221220785028838f9adf9d1528a261fc4d068da3d65e36300cafaea7c85113faafb33964736f6c63430006090033",
  "immutableReferences": {},
  "source": "// SPDX-License-Identifier: SimPL-2.0\npragma solidity=0.6.9;\n\nimport './interfaces/IMiniswapFactory.sol';\nimport './interfaces/IMiniswapMiner.sol';\nimport './MiniswapPair.sol';\nimport './MiniswapMiner.sol';\n\ncontract MiniswapFactory is IMiniswapFactory {\n    address override public feeTo;\n    address override public feeToSetter;\n    address override public miner;\n    address override public MINI;\n\n    mapping(address => mapping(address => address)) override public getPair;\n    address[] override public allPairs;\n\n    event PairCreated(address indexed token0, address indexed token1, address pair, uint);\n\n    constructor(address _miner,address _mini,address _feeToSetter) public {\n        feeToSetter = _feeToSetter;\n        MINI = _mini;\n        miner = _miner;\n    }\n\n    function allPairsLength() override external view returns (uint) {\n        return allPairs.length;\n    }\n\n    function createPair(address tokenA, address tokenB) override external returns (address pair) {\n        require(tokenA != tokenB, 'Miniswap: IDENTICAL_ADDRESSES');\n        (address token0, address token1) = tokenA < tokenB ? (tokenA, tokenB) : (tokenB, tokenA);\n        require(token0 != address(0), 'Miniswap: ZERO_ADDRESS');\n        require(getPair[token0][token1] == address(0), 'Miniswap: PAIR_EXISTS'); // single check is sufficient\n        bytes memory bytecode = type(MiniswapPair).creationCode;\n        bytes32 salt = keccak256(abi.encodePacked(token0, token1));\n        assembly {\n            pair := create2(0, add(bytecode, 32), mload(bytecode), salt)\n        }\n        IMiniswapPair(pair).initialize(miner,MINI,token0, token1);\n        getPair[token0][token1] = pair;\n        getPair[token1][token0] = pair; // populate mapping in the reverse direction\n        allPairs.push(pair);\n        emit PairCreated(token0, token1, pair, allPairs.length);\n    }\n\n    function setFeeTo(address _feeTo) override external {\n        require(msg.sender == feeToSetter, 'Miniswap: FORBIDDEN');\n        feeTo = _feeTo;\n    }\n\n    function setFeeToSetter(address _feeToSetter) override external {\n        require(msg.sender == feeToSetter, 'Miniswap: FORBIDDEN');\n        feeToSetter = _feeToSetter;\n    }\n}\n",
  "sourcePath": "/Users/yinwei/work/miniswap/contracts/MiniswapFactory.sol",
  "compiler": {
    "name": "solc",
    "version": "0.6.9+commit.3e3065ac.Emscripten.clang"
  },
  "schemaVersion": "3.2.1",
  "updatedAt": "2020-08-20T17:41:38.686Z",
  "networkType": "ethereum",
  "devdoc": {
    "methods": {}
  },
  "userdoc": {
    "methods": {}
  }
}