{
  "contractName": "MiniswapRouter",
  "abi": [
    {
      "inputs": [
        {
          "internalType": "address",
          "name": "_factory",
          "type": "address"
        },
        {
          "internalType": "address",
          "name": "_mini",
          "type": "address"
        },
        {
          "internalType": "address",
          "name": "_WETH",
          "type": "address"
        }
      ],
      "stateMutability": "nonpayable",
      "type": "constructor"
    },
    {
      "inputs": [],
      "name": "MINI",
      "outputs": [
        {
          "internalType": "address",
          "name": "",
          "type": "address"
        }
      ],
      "stateMutability": "view",
      "type": "function",
      "constant": true
    },
    {
      "inputs": [],
      "name": "WETH",
      "outputs": [
        {
          "internalType": "address",
          "name": "",
          "type": "address"
        }
      ],
      "stateMutability": "view",
      "type": "function",
      "constant": true
    },
    {
      "inputs": [],
      "name": "factory",
      "outputs": [
        {
          "internalType": "address",
          "name": "",
          "type": "address"
        }
      ],
      "stateMutability": "view",
      "type": "function",
      "constant": true
    },
    {
      "stateMutability": "payable",
      "type": "receive",
      "payable": true
    },
    {
      "inputs": [
        {
          "internalType": "address",
          "name": "tokenA",
          "type": "address"
        },
        {
          "internalType": "address",
          "name": "tokenB",
          "type": "address"
        },
        {
          "internalType": "uint256",
          "name": "amountADesired",
          "type": "uint256"
        },
        {
          "internalType": "uint256",
          "name": "amountBDesired",
          "type": "uint256"
        },
        {
          "internalType": "uint256",
          "name": "amountAMin",
          "type": "uint256"
        },
        {
          "internalType": "uint256",
          "name": "amountBMin",
          "type": "uint256"
        },
        {
          "internalType": "address",
          "name": "to",
          "type": "address"
        },
        {
          "internalType": "uint256",
          "name": "deadline",
          "type": "uint256"
        }
      ],
      "name": "addLiquidity",
      "outputs": [
        {
          "internalType": "uint256",
          "name": "amountA",
          "type": "uint256"
        },
        {
          "internalType": "uint256",
          "name": "amountB",
          "type": "uint256"
        },
        {
          "internalType": "uint256",
          "name": "liquidity",
          "type": "uint256"
        }
      ],
      "stateMutability": "nonpayable",
      "type": "function"
    },
    {
      "inputs": [
        {
          "internalType": "address",
          "name": "token",
          "type": "address"
        },
        {
          "internalType": "uint256",
          "name": "amountTokenDesired",
          "type": "uint256"
        },
        {
          "internalType": "uint256",
          "name": "amountTokenMin",
          "type": "uint256"
        },
        {
          "internalType": "uint256",
          "name": "amountETHMin",
          "type": "uint256"
        },
        {
          "internalType": "address",
          "name": "to",
          "type": "address"
        },
        {
          "internalType": "uint256",
          "name": "deadline",
          "type": "uint256"
        }
      ],
      "name": "addLiquidityETH",
      "outputs": [
        {
          "internalType": "uint256",
          "name": "amountToken",
          "type": "uint256"
        },
        {
          "internalType": "uint256",
          "name": "amountETH",
          "type": "uint256"
        },
        {
          "internalType": "uint256",
          "name": "liquidity",
          "type": "uint256"
        }
      ],
      "stateMutability": "payable",
      "type": "function",
      "payable": true
    },
    {
      "inputs": [
        {
          "internalType": "address",
          "name": "tokenA",
          "type": "address"
        },
        {
          "internalType": "address",
          "name": "tokenB",
          "type": "address"
        },
        {
          "internalType": "uint256",
          "name": "liquidity",
          "type": "uint256"
        },
        {
          "internalType": "uint256",
          "name": "amountAMin",
          "type": "uint256"
        },
        {
          "internalType": "uint256",
          "name": "amountBMin",
          "type": "uint256"
        },
        {
          "internalType": "address",
          "name": "to",
          "type": "address"
        },
        {
          "internalType": "uint256",
          "name": "deadline",
          "type": "uint256"
        }
      ],
      "name": "removeLiquidity",
      "outputs": [
        {
          "components": [
            {
              "internalType": "uint256",
              "name": "amountA",
              "type": "uint256"
            },
            {
              "internalType": "uint256",
              "name": "amountB",
              "type": "uint256"
            },
            {
              "internalType": "uint256",
              "name": "amountMini",
              "type": "uint256"
            }
          ],
          "internalType": "struct IMiniswapRouter.AmountInfo",
          "name": "amountInfo",
          "type": "tuple"
        }
      ],
      "stateMutability": "nonpayable",
      "type": "function"
    },
    {
      "inputs": [
        {
          "internalType": "address",
          "name": "token",
          "type": "address"
        },
        {
          "internalType": "uint256",
          "name": "liquidity",
          "type": "uint256"
        },
        {
          "internalType": "uint256",
          "name": "amountTokenMin",
          "type": "uint256"
        },
        {
          "internalType": "uint256",
          "name": "amountETHMin",
          "type": "uint256"
        },
        {
          "internalType": "address",
          "name": "to",
          "type": "address"
        },
        {
          "internalType": "uint256",
          "name": "deadline",
          "type": "uint256"
        }
      ],
      "name": "removeLiquidityETH",
      "outputs": [
        {
          "components": [
            {
              "internalType": "uint256",
              "name": "amountA",
              "type": "uint256"
            },
            {
              "internalType": "uint256",
              "name": "amountB",
              "type": "uint256"
            },
            {
              "internalType": "uint256",
              "name": "amountMini",
              "type": "uint256"
            }
          ],
          "internalType": "struct IMiniswapRouter.AmountInfo",
          "name": "amountInfo",
          "type": "tuple"
        }
      ],
      "stateMutability": "nonpayable",
      "type": "function"
    },
    {
      "inputs": [
        {
          "internalType": "address",
          "name": "tokenA",
          "type": "address"
        },
        {
          "internalType": "address",
          "name": "tokenB",
          "type": "address"
        },
        {
          "internalType": "uint256",
          "name": "liquidity",
          "type": "uint256"
        },
        {
          "internalType": "uint256",
          "name": "amountAMin",
          "type": "uint256"
        },
        {
          "internalType": "uint256",
          "name": "amountBMin",
          "type": "uint256"
        },
        {
          "internalType": "address",
          "name": "to",
          "type": "address"
        },
        {
          "internalType": "uint256",
          "name": "deadline",
          "type": "uint256"
        },
        {
          "internalType": "bool",
          "name": "approveMax",
          "type": "bool"
        },
        {
          "internalType": "uint8",
          "name": "v",
          "type": "uint8"
        },
        {
          "internalType": "bytes32",
          "name": "r",
          "type": "bytes32"
        },
        {
          "internalType": "bytes32",
          "name": "s",
          "type": "bytes32"
        }
      ],
      "name": "removeLiquidityWithPermit",
      "outputs": [
        {
          "components": [
            {
              "internalType": "uint256",
              "name": "amountA",
              "type": "uint256"
            },
            {
              "internalType": "uint256",
              "name": "amountB",
              "type": "uint256"
            },
            {
              "internalType": "uint256",
              "name": "amountMini",
              "type": "uint256"
            }
          ],
          "internalType": "struct IMiniswapRouter.AmountInfo",
          "name": "amountInfo",
          "type": "tuple"
        }
      ],
      "stateMutability": "nonpayable",
      "type": "function"
    },
    {
      "inputs": [
        {
          "internalType": "address",
          "name": "token",
          "type": "address"
        },
        {
          "internalType": "uint256",
          "name": "liquidity",
          "type": "uint256"
        },
        {
          "internalType": "uint256",
          "name": "amountTokenMin",
          "type": "uint256"
        },
        {
          "internalType": "uint256",
          "name": "amountETHMin",
          "type": "uint256"
        },
        {
          "internalType": "address",
          "name": "to",
          "type": "address"
        },
        {
          "internalType": "uint256",
          "name": "deadline",
          "type": "uint256"
        },
        {
          "internalType": "bool",
          "name": "approveMax",
          "type": "bool"
        },
        {
          "internalType": "uint8",
          "name": "v",
          "type": "uint8"
        },
        {
          "internalType": "bytes32",
          "name": "r",
          "type": "bytes32"
        },
        {
          "internalType": "bytes32",
          "name": "s",
          "type": "bytes32"
        }
      ],
      "name": "removeLiquidityETHWithPermit",
      "outputs": [
        {
          "components": [
            {
              "internalType": "uint256",
              "name": "amountA",
              "type": "uint256"
            },
            {
              "internalType": "uint256",
              "name": "amountB",
              "type": "uint256"
            },
            {
              "internalType": "uint256",
              "name": "amountMini",
              "type": "uint256"
            }
          ],
          "internalType": "struct IMiniswapRouter.AmountInfo",
          "name": "amountInfo",
          "type": "tuple"
        }
      ],
      "stateMutability": "nonpayable",
      "type": "function"
    },
    {
      "inputs": [
        {
          "internalType": "address",
          "name": "token",
          "type": "address"
        },
        {
          "internalType": "uint256",
          "name": "liquidity",
          "type": "uint256"
        },
        {
          "internalType": "uint256",
          "name": "amountTokenMin",
          "type": "uint256"
        },
        {
          "internalType": "uint256",
          "name": "amountETHMin",
          "type": "uint256"
        },
        {
          "internalType": "address",
          "name": "to",
          "type": "address"
        },
        {
          "internalType": "uint256",
          "name": "deadline",
          "type": "uint256"
        }
      ],
      "name": "removeLiquidityETHSupportingFeeOnTransferTokens",
      "outputs": [
        {
          "components": [
            {
              "internalType": "uint256",
              "name": "amountA",
              "type": "uint256"
            },
            {
              "internalType": "uint256",
              "name": "amountB",
              "type": "uint256"
            },
            {
              "internalType": "uint256",
              "name": "amountMini",
              "type": "uint256"
            }
          ],
          "internalType": "struct IMiniswapRouter.AmountInfo",
          "name": "amountInfo",
          "type": "tuple"
        }
      ],
      "stateMutability": "nonpayable",
      "type": "function"
    },
    {
      "inputs": [
        {
          "internalType": "address",
          "name": "token",
          "type": "address"
        },
        {
          "internalType": "uint256",
          "name": "liquidity",
          "type": "uint256"
        },
        {
          "internalType": "uint256",
          "name": "amountTokenMin",
          "type": "uint256"
        },
        {
          "internalType": "uint256",
          "name": "amountETHMin",
          "type": "uint256"
        },
        {
          "internalType": "address",
          "name": "to",
          "type": "address"
        },
        {
          "internalType": "uint256",
          "name": "deadline",
          "type": "uint256"
        },
        {
          "internalType": "bool",
          "name": "approveMax",
          "type": "bool"
        },
        {
          "internalType": "uint8",
          "name": "v",
          "type": "uint8"
        },
        {
          "internalType": "bytes32",
          "name": "r",
          "type": "bytes32"
        },
        {
          "internalType": "bytes32",
          "name": "s",
          "type": "bytes32"
        }
      ],
      "name": "removeLiquidityETHWithPermitSupportingFeeOnTransferTokens",
      "outputs": [
        {
          "components": [
            {
              "internalType": "uint256",
              "name": "amountA",
              "type": "uint256"
            },
            {
              "internalType": "uint256",
              "name": "amountB",
              "type": "uint256"
            },
            {
              "internalType": "uint256",
              "name": "amountMini",
              "type": "uint256"
            }
          ],
          "internalType": "struct IMiniswapRouter.AmountInfo",
          "name": "amountInfo",
          "type": "tuple"
        }
      ],
      "stateMutability": "nonpayable",
      "type": "function"
    },
    {
      "inputs": [
        {
          "internalType": "uint256",
          "name": "amountIn",
          "type": "uint256"
        },
        {
          "internalType": "uint256",
          "name": "amountOutMin",
          "type": "uint256"
        },
        {
          "internalType": "address[]",
          "name": "path",
          "type": "address[]"
        },
        {
          "internalType": "address",
          "name": "to",
          "type": "address"
        },
        {
          "internalType": "uint256",
          "name": "deadline",
          "type": "uint256"
        }
      ],
      "name": "swapExactTokensForTokens",
      "outputs": [
        {
          "internalType": "uint256[]",
          "name": "amounts",
          "type": "uint256[]"
        }
      ],
      "stateMutability": "nonpayable",
      "type": "function"
    },
    {
      "inputs": [
        {
          "internalType": "uint256",
          "name": "amountOut",
          "type": "uint256"
        },
        {
          "internalType": "uint256",
          "name": "amountInMax",
          "type": "uint256"
        },
        {
          "internalType": "address[]",
          "name": "path",
          "type": "address[]"
        },
        {
          "internalType": "address",
          "name": "to",
          "type": "address"
        },
        {
          "internalType": "uint256",
          "name": "deadline",
          "type": "uint256"
        }
      ],
      "name": "swapTokensForExactTokens",
      "outputs": [
        {
          "internalType": "uint256[]",
          "name": "amounts",
          "type": "uint256[]"
        }
      ],
      "stateMutability": "nonpayable",
      "type": "function"
    },
    {
      "inputs": [
        {
          "internalType": "uint256",
          "name": "amountOutMin",
          "type": "uint256"
        },
        {
          "internalType": "address[]",
          "name": "path",
          "type": "address[]"
        },
        {
          "internalType": "address",
          "name": "to",
          "type": "address"
        },
        {
          "internalType": "uint256",
          "name": "deadline",
          "type": "uint256"
        }
      ],
      "name": "swapExactETHForTokens",
      "outputs": [
        {
          "internalType": "uint256[]",
          "name": "amounts",
          "type": "uint256[]"
        }
      ],
      "stateMutability": "payable",
      "type": "function",
      "payable": true
    },
    {
      "inputs": [
        {
          "internalType": "uint256",
          "name": "amountOut",
          "type": "uint256"
        },
        {
          "internalType": "uint256",
          "name": "amountInMax",
          "type": "uint256"
        },
        {
          "internalType": "address[]",
          "name": "path",
          "type": "address[]"
        },
        {
          "internalType": "address",
          "name": "to",
          "type": "address"
        },
        {
          "internalType": "uint256",
          "name": "deadline",
          "type": "uint256"
        }
      ],
      "name": "swapTokensForExactETH",
      "outputs": [
        {
          "internalType": "uint256[]",
          "name": "amounts",
          "type": "uint256[]"
        }
      ],
      "stateMutability": "nonpayable",
      "type": "function"
    },
    {
      "inputs": [
        {
          "internalType": "uint256",
          "name": "amountIn",
          "type": "uint256"
        },
        {
          "internalType": "uint256",
          "name": "amountOutMin",
          "type": "uint256"
        },
        {
          "internalType": "address[]",
          "name": "path",
          "type": "address[]"
        },
        {
          "internalType": "address",
          "name": "to",
          "type": "address"
        },
        {
          "internalType": "uint256",
          "name": "deadline",
          "type": "uint256"
        }
      ],
      "name": "swapExactTokensForETH",
      "outputs": [
        {
          "internalType": "uint256[]",
          "name": "amounts",
          "type": "uint256[]"
        }
      ],
      "stateMutability": "nonpayable",
      "type": "function"
    },
    {
      "inputs": [
        {
          "internalType": "uint256",
          "name": "amountOut",
          "type": "uint256"
        },
        {
          "internalType": "address[]",
          "name": "path",
          "type": "address[]"
        },
        {
          "internalType": "address",
          "name": "to",
          "type": "address"
        },
        {
          "internalType": "uint256",
          "name": "deadline",
          "type": "uint256"
        }
      ],
      "name": "swapETHForExactTokens",
      "outputs": [
        {
          "internalType": "uint256[]",
          "name": "amounts",
          "type": "uint256[]"
        }
      ],
      "stateMutability": "payable",
      "type": "function",
      "payable": true
    },
    {
      "inputs": [
        {
          "internalType": "uint256",
          "name": "amountIn",
          "type": "uint256"
        },
        {
          "internalType": "uint256",
          "name": "amountOutMin",
          "type": "uint256"
        },
        {
          "internalType": "address[]",
          "name": "path",
          "type": "address[]"
        },
        {
          "internalType": "address",
          "name": "to",
          "type": "address"
        },
        {
          "internalType": "uint256",
          "name": "deadline",
          "type": "uint256"
        }
      ],
      "name": "swapExactTokensForTokensSupportingFeeOnTransferTokens",
      "outputs": [],
      "stateMutability": "nonpayable",
      "type": "function"
    },
    {
      "inputs": [
        {
          "internalType": "uint256",
          "name": "amountOutMin",
          "type": "uint256"
        },
        {
          "internalType": "address[]",
          "name": "path",
          "type": "address[]"
        },
        {
          "internalType": "address",
          "name": "to",
          "type": "address"
        },
        {
          "internalType": "uint256",
          "name": "deadline",
          "type": "uint256"
        }
      ],
      "name": "swapExactETHForTokensSupportingFeeOnTransferTokens",
      "outputs": [],
      "stateMutability": "payable",
      "type": "function",
      "payable": true
    },
    {
      "inputs": [
        {
          "internalType": "uint256",
          "name": "amountIn",
          "type": "uint256"
        },
        {
          "internalType": "uint256",
          "name": "amountOutMin",
          "type": "uint256"
        },
        {
          "internalType": "address[]",
          "name": "path",
          "type": "address[]"
        },
        {
          "internalType": "address",
          "name": "to",
          "type": "address"
        },
        {
          "internalType": "uint256",
          "name": "deadline",
          "type": "uint256"
        }
      ],
      "name": "swapExactTokensForETHSupportingFeeOnTransferTokens",
      "outputs": [],
      "stateMutability": "nonpayable",
      "type": "function"
    },
    {
      "inputs": [
        {
          "internalType": "uint256",
          "name": "amountA",
          "type": "uint256"
        },
        {
          "internalType": "uint256",
          "name": "reserveA",
          "type": "uint256"
        },
        {
          "internalType": "uint256",
          "name": "reserveB",
          "type": "uint256"
        }
      ],
      "name": "quote",
      "outputs": [
        {
          "internalType": "uint256",
          "name": "amountB",
          "type": "uint256"
        }
      ],
      "stateMutability": "pure",
      "type": "function",
      "constant": true
    },
    {
      "inputs": [
        {
          "internalType": "uint256",
          "name": "amountIn",
          "type": "uint256"
        },
        {
          "internalType": "uint256",
          "name": "reserveIn",
          "type": "uint256"
        },
        {
          "internalType": "uint256",
          "name": "reserveOut",
          "type": "uint256"
        }
      ],
      "name": "getAmountOut",
      "outputs": [
        {
          "internalType": "uint256",
          "name": "amountOut",
          "type": "uint256"
        }
      ],
      "stateMutability": "pure",
      "type": "function",
      "constant": true
    },
    {
      "inputs": [
        {
          "internalType": "uint256",
          "name": "amountOut",
          "type": "uint256"
        },
        {
          "internalType": "uint256",
          "name": "reserveIn",
          "type": "uint256"
        },
        {
          "internalType": "uint256",
          "name": "reserveOut",
          "type": "uint256"
        }
      ],
      "name": "getAmountIn",
      "outputs": [
        {
          "internalType": "uint256",
          "name": "amountIn",
          "type": "uint256"
        }
      ],
      "stateMutability": "pure",
      "type": "function",
      "constant": true
    },
    {
      "inputs": [
        {
          "internalType": "uint256",
          "name": "amountIn",
          "type": "uint256"
        },
        {
          "internalType": "address[]",
          "name": "path",
          "type": "address[]"
        }
      ],
      "name": "getAmountsOut",
      "outputs": [
        {
          "internalType": "uint256[]",
          "name": "amounts",
          "type": "uint256[]"
        }
      ],
      "stateMutability": "view",
      "type": "function",
      "constant": true
    },
    {
      "inputs": [
        {
          "internalType": "uint256",
          "name": "amountOut",
          "type": "uint256"
        },
        {
          "internalType": "address[]",
          "name": "path",
          "type": "address[]"
        }
      ],
      "name": "getAmountsIn",
      "outputs": [
        {
          "internalType": "uint256[]",
          "name": "amounts",
          "type": "uint256[]"
        }
      ],
      "stateMutability": "view",
      "type": "function",
      "constant": true
    }
  ],
  "bytecode": "0x60e06040523480156200001157600080fd5b506040516200441a3803806200441a83398101604081905262000034916200005c565b6001600160601b0319606093841b811660805291831b821660c05290911b1660a052620000c8565b60008060006060848603121562000071578283fd5b83516200007e81620000af565b60208501519093506200009181620000af565b6040850151909250620000a481620000af565b809150509250925092565b6001600160a01b0381168114620000c557600080fd5b50565b60805160601c60a05160601c60c05160601c61420962000211600039806105c6528061080652806108e652806109855280610ceb52508061017a52806104f7528061054d528061063d5280610a135280610d3a5280610e6a52806111b35280611286528061134452806113da52806114e3528061156b528061176252806117c05280611894528061190b528061197f5280611e005280611fee5280612044528061207852806120fe5280612257528061235d52806123e55250806106ad528061076a5280610adb5280610b195280610c085280610daa5280610e485280610f79528061144f528061159d52806116d152806119b15280611bba5280611d805280611da95280611dde5280611ef2528061202252806122cc52806124175280612aa15280612ae45280612d0e5280612e75528061313052806131e5528061327852506142096000f3fe60806040526004361061016a5760003560e01c806385f8c259116100d1578063baa2abde1161008a578063ded9382a11610064578063ded9382a1461044a578063e8e337001461046a578063f305d71914610499578063fb3bdb41146104ac576101a3565b8063baa2abde146103f5578063c45a015514610415578063d06ca61f1461042a576101a3565b806385f8c2591461034d5780638803dbee1461036d578063ad5c46481461038d578063ad615dec146103a2578063af2979eb146103c2578063b6f9de95146103e2576101a3565b80633f190c70116101235780633f190c70146102985780634a25d94a146102ba5780635b0d5984146102da5780635c11d795146102fa578063791ac9471461031a5780637ff36ab51461033a576101a3565b806302751cec146101a8578063054d50d4146101de57806318cbafe51461020b5780631f00ca74146102385780632195995c1461025857806338ed173914610278576101a3565b366101a357336001600160a01b037f000000000000000000000000000000000000000000000000000000000000000016146101a157fe5b005b600080fd5b3480156101b457600080fd5b506101c86101c33660046136d6565b6104bf565b6040516101d591906140aa565b60405180910390f35b3480156101ea57600080fd5b506101fe6101f93660046139de565b6105fb565b6040516101d591906140cb565b34801561021757600080fd5b5061022b61022636600461396d565b610610565b6040516101d59190613b7b565b34801561024457600080fd5b5061022b6102533660046138b6565b610ad4565b34801561026457600080fd5b506101c86102733660046135b1565b610b0a565b34801561028457600080fd5b5061022b61029336600461396d565b610be0565b3480156102a457600080fd5b506102ad610ce9565b6040516101d59190613acf565b3480156102c657600080fd5b5061022b6102d536600461396d565b610d0d565b3480156102e657600080fd5b506101c86102f5366004613733565b610e39565b34801561030657600080fd5b506101a161031536600461396d565b610f2d565b34801561032657600080fd5b506101a161033536600461396d565b611188565b61022b610348366004613851565b6113b5565b34801561035957600080fd5b506101fe6103683660046139de565b61169c565b34801561037957600080fd5b5061022b61038836600461396d565b6116a9565b34801561039957600080fd5b506102ad611760565b3480156103ae57600080fd5b506101fe6103bd3660046139de565b611784565b3480156103ce57600080fd5b506101c86103dd3660046136d6565b611791565b6101a16103f0366004613851565b611871565b34801561040157600080fd5b506101c8610410366004613540565b611b8a565b34801561042157600080fd5b506102ad611d7e565b34801561043657600080fd5b5061022b6104453660046138b6565b611da2565b34801561045657600080fd5b506101c8610465366004613733565b611dcf565b34801561047657600080fd5b5061048a61048536600461365b565b611eb2565b6040516101d59392919061412f565b61048a6104a73660046136d6565b611fc2565b61022b6104ba366004613851565b612232565b6104c7613482565b81428110156104f15760405162461bcd60e51b81526004016104e890613d10565b60405180910390fd5b610520887f00000000000000000000000000000000000000000000000000000000000000008989893089611b8a565b915061053188858460000151612548565b6020820151604051632e1a7d4d60e01b81526001600160a01b037f00000000000000000000000000000000000000000000000000000000000000001691632e1a7d4d9161058191906004016140cb565b600060405180830381600087803b15801561059b57600080fd5b505af11580156105af573d6000803e3d6000fd5b505050506105c1848360200151612636565b6105f07f0000000000000000000000000000000000000000000000000000000000000000858460400151612548565b509695505050505050565b60006106088484846126c8565b949350505050565b606081428110156106335760405162461bcd60e51b81526004016104e890613d10565b6001600160a01b037f0000000000000000000000000000000000000000000000000000000000000000168686600019810181811061066d57fe5b90506020020160208101906106829190613501565b6001600160a01b0316146106a85760405162461bcd60e51b81526004016104e890613dd5565b6107067f00000000000000000000000000000000000000000000000000000000000000008988888080602002602001604051908101604052809392919081815260200183836020028082843760009201919091525061277a92505050565b9150868260018451038151811061071957fe5b6020026020010151101561073f5760405162461bcd60e51b81526004016104e890613d47565b6107ec8686600081811061074f57fe5b90506020020160208101906107649190613501565b336107d27f00000000000000000000000000000000000000000000000000000000000000008a8a600081811061079657fe5b90506020020160208101906107ab9190613501565b8b8b60018181106107b857fe5b90506020020160208101906107cd9190613501565b612891565b856000815181106107df57fe5b6020026020010151612901565b6040516370a0823160e01b81526000906001600160a01b037f000000000000000000000000000000000000000000000000000000000000000016906370a082319061083b903090600401613acf565b60206040518083038186803b15801561085357600080fd5b505afa158015610867573d6000803e3d6000fd5b505050506040513d601f19601f8201168201806040525081019061088b9190613839565b90506108cc838888808060200260200160405190810160405280939291908181526020018383602002808284376000920191909152503092506129f2915050565b6040516370a0823160e01b81526000906001600160a01b037f000000000000000000000000000000000000000000000000000000000000000016906370a082319061091b903090600401613acf565b60206040518083038186803b15801561093357600080fd5b505afa158015610947573d6000803e3d6000fd5b505050506040513d601f19601f8201168201806040525081019061096b9190613839565b60405163a9059cbb60e01b81529091506001600160a01b037f0000000000000000000000000000000000000000000000000000000000000000169063a9059cbb906109be90899086860390600401613b62565b602060405180830381600087803b1580156109d857600080fd5b505af11580156109ec573d6000803e3d6000fd5b505050506040513d601f19601f82011682018060405250810190610a1091906137c9565b507f00000000000000000000000000000000000000000000000000000000000000006001600160a01b0316632e1a7d4d85600187510381518110610a5057fe5b60200260200101516040518263ffffffff1660e01b8152600401610a7491906140cb565b600060405180830381600087803b158015610a8e57600080fd5b505af1158015610aa2573d6000803e3d6000fd5b50505050610ac78685600187510381518110610aba57fe5b6020026020010151612636565b5050509695505050505050565b6060610b017f00000000000000000000000000000000000000000000000000000000000000008484612bb4565b90505b92915050565b610b12613482565b6000610b3f7f00000000000000000000000000000000000000000000000000000000000000008e8e612891565b9050600086610b4e578b610b52565b6000195b60405163d505accf60e01b81529091506001600160a01b0383169063d505accf90610b8d903390309086908e908d908d908d90600401613ae3565b600060405180830381600087803b158015610ba757600080fd5b505af1158015610bbb573d6000803e3d6000fd5b50505050610bce8e8e8e8e8e8e8e611b8a565b9e9d5050505050505050505050505050565b60608142811015610c035760405162461bcd60e51b81526004016104e890613d10565b610c617f00000000000000000000000000000000000000000000000000000000000000008988888080602002602001604051908101604052809392919081815260200183836020028082843760009201919091525061277a92505050565b91508682600184510381518110610c7457fe5b60200260200101511015610c9a5760405162461bcd60e51b81526004016104e890613d47565b610caa8686600081811061074f57fe5b6105f0828787808060200260200160405190810160405280939291908181526020018383602002808284376000920191909152508992506129f2915050565b7f000000000000000000000000000000000000000000000000000000000000000081565b60608142811015610d305760405162461bcd60e51b81526004016104e890613d10565b6001600160a01b037f00000000000000000000000000000000000000000000000000000000000000001686866000198101818110610d6a57fe5b9050602002016020810190610d7f9190613501565b6001600160a01b031614610da55760405162461bcd60e51b81526004016104e890613dd5565b610e037f000000000000000000000000000000000000000000000000000000000000000089888880806020026020016040519081016040528093929190818152602001838360200280828437600092019190915250612bb492505050565b91508682600081518110610e1357fe5b6020026020010151111561073f5760405162461bcd60e51b81526004016104e890613f17565b610e41613482565b6000610e8e7f00000000000000000000000000000000000000000000000000000000000000008d7f0000000000000000000000000000000000000000000000000000000000000000612891565b9050600086610e9d578b610ea1565b6000195b60405163d505accf60e01b81529091506001600160a01b0383169063d505accf90610edc903390309086908e908d908d908d90600401613ae3565b600060405180830381600087803b158015610ef657600080fd5b505af1158015610f0a573d6000803e3d6000fd5b50505050610f1c8d8d8d8d8d8d611791565b9d9c50505050505050505050505050565b8042811015610f4e5760405162461bcd60e51b81526004016104e890613d10565b610fcd85856000818110610f5e57fe5b9050602002016020810190610f739190613501565b33610fc77f000000000000000000000000000000000000000000000000000000000000000089896000818110610fa557fe5b9050602002016020810190610fba9190613501565b8a8a60018181106107b857fe5b8a612901565b600085856000198101818110610fdf57fe5b9050602002016020810190610ff49190613501565b6001600160a01b03166370a08231856040518263ffffffff1660e01b815260040161101f9190613acf565b60206040518083038186803b15801561103757600080fd5b505afa15801561104b573d6000803e3d6000fd5b505050506040513d601f19601f8201168201806040525081019061106f9190613839565b90506110af868680806020026020016040519081016040528093929190818152602001838360200280828437600092019190915250889250612cb7915050565b8661116082888860001981018181106110c457fe5b90506020020160208101906110d99190613501565b6001600160a01b03166370a08231886040518263ffffffff1660e01b81526004016111049190613acf565b60206040518083038186803b15801561111c57600080fd5b505afa158015611130573d6000803e3d6000fd5b505050506040513d601f19601f820116820180604052508101906111549190613839565b9063ffffffff612f4d16565b101561117e5760405162461bcd60e51b81526004016104e890613d47565b5050505050505050565b80428110156111a95760405162461bcd60e51b81526004016104e890613d10565b6001600160a01b037f000000000000000000000000000000000000000000000000000000000000000016858560001981018181106111e357fe5b90506020020160208101906111f89190613501565b6001600160a01b03161461121e5760405162461bcd60e51b81526004016104e890613dd5565b61122e85856000818110610f5e57fe5b61126c858580806020026020016040519081016040528093929190818152602001838360200280828437600092019190915250309250612cb7915050565b6040516370a0823160e01b81526000906001600160a01b037f000000000000000000000000000000000000000000000000000000000000000016906370a08231906112bb903090600401613acf565b60206040518083038186803b1580156112d357600080fd5b505afa1580156112e7573d6000803e3d6000fd5b505050506040513d601f19601f8201168201806040525081019061130b9190613839565b90508681101561132d5760405162461bcd60e51b81526004016104e890613d47565b604051632e1a7d4d60e01b81526001600160a01b037f00000000000000000000000000000000000000000000000000000000000000001690632e1a7d4d906113799084906004016140cb565b600060405180830381600087803b15801561139357600080fd5b505af11580156113a7573d6000803e3d6000fd5b5050505061117e8482612636565b606081428110156113d85760405162461bcd60e51b81526004016104e890613d10565b7f00000000000000000000000000000000000000000000000000000000000000006001600160a01b03168686600081811061140f57fe5b90506020020160208101906114249190613501565b6001600160a01b03161461144a5760405162461bcd60e51b81526004016104e890613dd5565b6114a87f00000000000000000000000000000000000000000000000000000000000000003488888080602002602001604051908101604052809392919081815260200183836020028082843760009201919091525061277a92505050565b915086826001845103815181106114bb57fe5b602002602001015110156114e15760405162461bcd60e51b81526004016104e890613d47565b7f00000000000000000000000000000000000000000000000000000000000000006001600160a01b031663d0e30db08360008151811061151d57fe5b60200260200101516040518263ffffffff1660e01b81526004016000604051808303818588803b15801561155057600080fd5b505af1158015611564573d6000803e3d6000fd5b50505050507f00000000000000000000000000000000000000000000000000000000000000006001600160a01b031663a9059cbb6115c97f000000000000000000000000000000000000000000000000000000000000000089896000818110610fa557fe5b846000815181106115d657fe5b60200260200101516040518363ffffffff1660e01b81526004016115fb929190613b62565b602060405180830381600087803b15801561161557600080fd5b505af1158015611629573d6000803e3d6000fd5b505050506040513d601f19601f8201168201806040525081019061164d91906137c9565b61165357fe5b611692828787808060200260200160405190810160405280939291908181526020018383602002808284376000920191909152508992506129f2915050565b5095945050505050565b6000610608848484612f70565b606081428110156116cc5760405162461bcd60e51b81526004016104e890613d10565b61172a7f000000000000000000000000000000000000000000000000000000000000000089888880806020026020016040519081016040528093929190818152602001838360200280828437600092019190915250612bb492505050565b9150868260008151811061173a57fe5b60200260200101511115610c9a5760405162461bcd60e51b81526004016104e890613f17565b7f000000000000000000000000000000000000000000000000000000000000000081565b6000610608848484613022565b611799613482565b81428110156117ba5760405162461bcd60e51b81526004016104e890613d10565b6117e9887f00000000000000000000000000000000000000000000000000000000000000008989893089611b8a565b915061053188858a6001600160a01b03166370a08231306040518263ffffffff1660e01b815260040161181c9190613acf565b60206040518083038186803b15801561183457600080fd5b505afa158015611848573d6000803e3d6000fd5b505050506040513d601f19601f8201168201806040525081019061186c9190613839565b612548565b80428110156118925760405162461bcd60e51b81526004016104e890613d10565b7f00000000000000000000000000000000000000000000000000000000000000006001600160a01b0316858560008181106118c957fe5b90506020020160208101906118de9190613501565b6001600160a01b0316146119045760405162461bcd60e51b81526004016104e890613dd5565b60003490507f00000000000000000000000000000000000000000000000000000000000000006001600160a01b031663d0e30db0826040518263ffffffff1660e01b81526004016000604051808303818588803b15801561196457600080fd5b505af1158015611978573d6000803e3d6000fd5b50505050507f00000000000000000000000000000000000000000000000000000000000000006001600160a01b031663a9059cbb6119dd7f000000000000000000000000000000000000000000000000000000000000000089896000818110610fa557fe5b836040518363ffffffff1660e01b81526004016119fb929190613b62565b602060405180830381600087803b158015611a1557600080fd5b505af1158015611a29573d6000803e3d6000fd5b505050506040513d601f19601f82011682018060405250810190611a4d91906137c9565b611a5357fe5b600086866000198101818110611a6557fe5b9050602002016020810190611a7a9190613501565b6001600160a01b03166370a08231866040518263ffffffff1660e01b8152600401611aa59190613acf565b60206040518083038186803b158015611abd57600080fd5b505afa158015611ad1573d6000803e3d6000fd5b505050506040513d601f19601f82011682018060405250810190611af59190613839565b9050611b35878780806020026020016040519081016040528093929190818152602001838360200280828437600092019190915250899250612cb7915050565b876111608289896000198101818110611b4a57fe5b9050602002016020810190611b5f9190613501565b6001600160a01b03166370a08231896040518263ffffffff1660e01b81526004016111049190613acf565b611b92613482565b8142811015611bb35760405162461bcd60e51b81526004016104e890613d10565b6000611be07f00000000000000000000000000000000000000000000000000000000000000008b8b612891565b6040516323b872dd60e01b81529091506001600160a01b038216906323b872dd90611c1390339085908d90600401613b24565b602060405180830381600087803b158015611c2d57600080fd5b505af1158015611c41573d6000803e3d6000fd5b505050506040513d601f19601f82011682018060405250810190611c6591906137c9565b506000806000836001600160a01b03166389afcb44896040518263ffffffff1660e01b8152600401611c979190613acf565b606060405180830381600087803b158015611cb157600080fd5b505af1158015611cc5573d6000803e3d6000fd5b505050506040513d601f19601f82011682018060405250810190611ce99190613a09565b9250925092506000611cfb8e8e613090565b506040880183905290506001600160a01b038e811690821614611d1f578284611d22565b83835b60208901528088528b1115611d495760405162461bcd60e51b81526004016104e890613e8b565b8987602001511015611d6d5760405162461bcd60e51b81526004016104e890613ccb565b505050505050979650505050505050565b7f000000000000000000000000000000000000000000000000000000000000000081565b6060610b017f0000000000000000000000000000000000000000000000000000000000000000848461277a565b611dd7613482565b6000611e247f00000000000000000000000000000000000000000000000000000000000000008d7f0000000000000000000000000000000000000000000000000000000000000000612891565b9050600086611e33578b611e37565b6000195b60405163d505accf60e01b81529091506001600160a01b0383169063d505accf90611e72903390309086908e908d908d908d90600401613ae3565b600060405180830381600087803b158015611e8c57600080fd5b505af1158015611ea0573d6000803e3d6000fd5b50505050610f1c8d8d8d8d8d8d6104bf565b60008060008342811015611ed85760405162461bcd60e51b81526004016104e890613d10565b611ee68c8c8c8c8c8c61311a565b90945092506000611f187f00000000000000000000000000000000000000000000000000000000000000008e8e612891565b9050611f268d338388612901565b611f328c338387612901565b6040516335313c2160e11b81526001600160a01b03821690636a62784290611f5e908a90600401613acf565b602060405180830381600087803b158015611f7857600080fd5b505af1158015611f8c573d6000803e3d6000fd5b505050506040513d601f19601f82011682018060405250810190611fb09190613839565b92505050985098509895505050505050565b60008060008342811015611fe85760405162461bcd60e51b81526004016104e890613d10565b6120168a7f00000000000000000000000000000000000000000000000000000000000000008b348c8c61311a565b909450925060006120687f00000000000000000000000000000000000000000000000000000000000000008c7f0000000000000000000000000000000000000000000000000000000000000000612891565b90506120768b338388612901565b7f00000000000000000000000000000000000000000000000000000000000000006001600160a01b031663d0e30db0856040518263ffffffff1660e01b81526004016000604051808303818588803b1580156120d157600080fd5b505af11580156120e5573d6000803e3d6000fd5b505060405163a9059cbb60e01b81526001600160a01b037f000000000000000000000000000000000000000000000000000000000000000016935063a9059cbb9250612138915084908890600401613b62565b602060405180830381600087803b15801561215257600080fd5b505af1158015612166573d6000803e3d6000fd5b505050506040513d601f19601f8201168201806040525081019061218a91906137c9565b61219057fe5b6040516335313c2160e11b81526001600160a01b03821690636a627842906121bc908a90600401613acf565b602060405180830381600087803b1580156121d657600080fd5b505af11580156121ea573d6000803e3d6000fd5b505050506040513d601f19601f8201168201806040525081019061220e9190613839565b9250833411156122245761222433853403612636565b505096509650969350505050565b606081428110156122555760405162461bcd60e51b81526004016104e890613d10565b7f00000000000000000000000000000000000000000000000000000000000000006001600160a01b03168686600081811061228c57fe5b90506020020160208101906122a19190613501565b6001600160a01b0316146122c75760405162461bcd60e51b81526004016104e890613dd5565b6123257f000000000000000000000000000000000000000000000000000000000000000088888880806020026020016040519081016040528093929190818152602001838360200280828437600092019190915250612bb492505050565b9150348260008151811061233557fe5b6020026020010151111561235b5760405162461bcd60e51b81526004016104e890613f17565b7f00000000000000000000000000000000000000000000000000000000000000006001600160a01b031663d0e30db08360008151811061239757fe5b60200260200101516040518263ffffffff1660e01b81526004016000604051808303818588803b1580156123ca57600080fd5b505af11580156123de573d6000803e3d6000fd5b50505050507f00000000000000000000000000000000000000000000000000000000000000006001600160a01b031663a9059cbb6124437f000000000000000000000000000000000000000000000000000000000000000089896000818110610fa557fe5b8460008151811061245057fe5b60200260200101516040518363ffffffff1660e01b8152600401612475929190613b62565b602060405180830381600087803b15801561248f57600080fd5b505af11580156124a3573d6000803e3d6000fd5b505050506040513d601f19601f820116820180604052508101906124c791906137c9565b6124cd57fe5b61250c828787808060200260200160405190810160405280939291908181526020018383602002808284376000920191909152508992506129f2915050565b8160008151811061251957fe5b602002602001015134111561169257611692338360008151811061253957fe5b60200260200101513403612636565b60006060846001600160a01b031663a9059cbb858560405160240161256e929190613b62565b6040516020818303038152906040529060e01b6020820180516001600160e01b0383818316178352505050506040516125a79190613a5d565b6000604051808303816000865af19150503d80600081146125e4576040519150601f19603f3d011682016040523d82523d6000602084013e6125e9565b606091505b509150915081801561261357508051158061261357508080602001905181019061261391906137c9565b61262f5760405162461bcd60e51b81526004016104e890613bee565b5050505050565b604080516000808252602082019092526001600160a01b0384169083906040516126609190613a5d565b60006040518083038185875af1925050503d806000811461269d576040519150601f19603f3d011682016040523d82523d6000602084013e6126a2565b606091505b50509050806126c35760405162461bcd60e51b81526004016104e890613fd8565b505050565b60008084116126e95760405162461bcd60e51b81526004016104e890613c25565b6000831180156126f95750600082115b6127155760405162461bcd60e51b81526004016104e890613ed0565b6000612729856103e563ffffffff61334f16565b9050600061273d828563ffffffff61334f16565b9050600061276383612757886103e863ffffffff61334f16565b9063ffffffff61338616565b905080828161276e57fe5b04979650505050505050565b606060028251101561279e5760405162461bcd60e51b81526004016104e890613f5d565b815167ffffffffffffffff811180156127b657600080fd5b506040519080825280602002602001820160405280156127e0578160200160208202803683370190505b50905082816000815181106127f157fe5b60200260200101818152505060005b6001835103811015612889576000806128438786858151811061281f57fe5b602002602001015187866001018151811061283657fe5b60200260200101516133a9565b9150915061286584848151811061285657fe5b602002602001015183836126c8565b84846001018151811061287457fe5b60209081029190910101525050600101612800565b509392505050565b60008060006128a08585613090565b915091508582826040516020016128b8929190613a36565b604051602081830303815290604052805190602001206040516020016128df929190613a79565b60408051601f1981840301815291905280516020909101209695505050505050565b60006060856001600160a01b03166323b872dd86868660405160240161292993929190613b24565b6040516020818303038152906040529060e01b6020820180516001600160e01b0383818316178352505050506040516129629190613a5d565b6000604051808303816000865af19150503d806000811461299f576040519150601f19603f3d011682016040523d82523d6000602084013e6129a4565b606091505b50915091508180156129ce5750805115806129ce5750808060200190518101906129ce91906137c9565b6129ea5760405162461bcd60e51b81526004016104e89061401b565b505050505050565b60005b6001835103811015612bae57600080848381518110612a1057fe5b6020026020010151858460010181518110612a2757fe5b6020026020010151915091506000612a3f8383613090565b5090506000878560010181518110612a5357fe5b60200260200101519050600080836001600160a01b0316866001600160a01b031614612a8157826000612a85565b6000835b91509150600060028a51038810612a9c5788612add565b612add7f0000000000000000000000000000000000000000000000000000000000000000878c8b60020181518110612ad057fe5b6020026020010151612891565b9050612b0a7f00000000000000000000000000000000000000000000000000000000000000008888612891565b6001600160a01b031663d7dc4e438484848d60006040519080825280601f01601f191660200182016040528015612b48576020820181803683370190505b506040518663ffffffff1660e01b8152600401612b699594939291906140d4565b600060405180830381600087803b158015612b8357600080fd5b505af1158015612b97573d6000803e3d6000fd5b5050600190990198506129f5975050505050505050565b50505050565b6060600282511015612bd85760405162461bcd60e51b81526004016104e890613f5d565b815167ffffffffffffffff81118015612bf057600080fd5b50604051908082528060200260200182016040528015612c1a578160200160208202803683370190505b5090508281600183510381518110612c2e57fe5b60209081029190910101528151600019015b801561288957600080612c7087866001860381518110612c5c57fe5b602002602001015187868151811061283657fe5b91509150612c92848481518110612c8357fe5b60200260200101518383612f70565b846001850381518110612ca157fe5b6020908102919091010152505060001901612c40565b60005b60018351038110156126c357600080848381518110612cd557fe5b6020026020010151858460010181518110612cec57fe5b6020026020010151915091506000612d048383613090565b5090506000612d347f00000000000000000000000000000000000000000000000000000000000000008585612891565b9050600080600080846001600160a01b0316630902f1ac6040518163ffffffff1660e01b815260040160606040518083038186803b158015612d7557600080fd5b505afa158015612d89573d6000803e3d6000fd5b505050506040513d601f19601f82011682018060405250810190612dad91906137e5565b506001600160701b031691506001600160701b03169150600080876001600160a01b03168a6001600160a01b031614612de7578284612dea565b83835b91509150612e1e828b6001600160a01b03166370a082318a6040518263ffffffff1660e01b81526004016111049190613acf565b9550612e2b8683836126c8565b945050505050600080856001600160a01b0316886001600160a01b031614612e5557826000612e59565b6000835b91509150600060028c51038a10612e70578a612ea4565b612ea47f0000000000000000000000000000000000000000000000000000000000000000898e8d60020181518110612ad057fe5b90506001600160a01b03861663d7dc4e438484848f60006040519080825280601f01601f191660200182016040528015612ee5576020820181803683370190505b506040518663ffffffff1660e01b8152600401612f069594939291906140d4565b600060405180830381600087803b158015612f2057600080fd5b505af1158015612f34573d6000803e3d6000fd5b50506001909b019a50612cba9950505050505050505050565b80820382811115610b045760405162461bcd60e51b81526004016104e890613bbf565b6000808411612f915760405162461bcd60e51b81526004016104e89061405f565b600083118015612fa15750600082115b612fbd5760405162461bcd60e51b81526004016104e890613ed0565b6000612fe16103e8612fd5868863ffffffff61334f16565b9063ffffffff61334f16565b90506000612ffb6103e5612fd5868963ffffffff612f4d16565b9050613018600182848161300b57fe5b049063ffffffff61338616565b9695505050505050565b60008084116130435760405162461bcd60e51b81526004016104e890613d91565b6000831180156130535750600082115b61306f5760405162461bcd60e51b81526004016104e890613e43565b82613080858463ffffffff61334f16565b8161308757fe5b04949350505050565b600080826001600160a01b0316846001600160a01b031614156130c55760405162461bcd60e51b81526004016104e890613f94565b826001600160a01b0316846001600160a01b0316106130e55782846130e8565b83835b90925090506001600160a01b0382166131135760405162461bcd60e51b81526004016104e890613e0c565b9250929050565b60405163e6a4390560e01b8152600090819081907f00000000000000000000000000000000000000000000000000000000000000006001600160a01b03169063e6a439059061316f908c908c90600401613b48565b60206040518083038186803b15801561318757600080fd5b505afa15801561319b573d6000803e3d6000fd5b505050506040513d601f19601f820116820180604052508101906131bf9190613524565b6001600160a01b03161415613270576040516364e329cb60e11b81526001600160a01b037f0000000000000000000000000000000000000000000000000000000000000000169063c9c653969061321c908b908b90600401613b48565b602060405180830381600087803b15801561323657600080fd5b505af115801561324a573d6000803e3d6000fd5b505050506040513d601f19601f8201168201806040525081019061326e9190613524565b505b60008061329e7f00000000000000000000000000000000000000000000000000000000000000008b8b6133a9565b915091508160001480156132b0575080155b156132c057879350869250613342565b60006132cd898484613022565b905087811161330157858110156132f65760405162461bcd60e51b81526004016104e890613ccb565b889450925082613340565b600061330e898486613022565b90508981111561331a57fe5b8781101561333a5760405162461bcd60e51b81526004016104e890613e8b565b94508793505b505b5050965096945050505050565b600081158061336a5750508082028282828161336757fe5b04145b610b045760405162461bcd60e51b81526004016104e890613c6f565b80820182811015610b045760405162461bcd60e51b81526004016104e890613c9d565b60008060006133b88585613090565b5090506000806133c9888888612891565b6001600160a01b0316630902f1ac6040518163ffffffff1660e01b815260040160606040518083038186803b15801561340157600080fd5b505afa158015613415573d6000803e3d6000fd5b505050506040513d601f19601f8201168201806040525081019061343991906137e5565b506001600160701b031691506001600160701b03169150826001600160a01b0316876001600160a01b031614613470578082613473565b81815b90999098509650505050505050565b60405180606001604052806000815260200160008152602001600081525090565b8035610b0481614198565b60008083601f8401126134bf578182fd5b50813567ffffffffffffffff8111156134d6578182fd5b602083019150836020808302850101111561311357600080fd5b803560ff81168114610b0457600080fd5b600060208284031215613512578081fd5b813561351d81614198565b9392505050565b600060208284031215613535578081fd5b815161351d81614198565b600080600080600080600060e0888a03121561355a578283fd5b873561356581614198565b9650602088013561357581614198565b955060408801359450606088013593506080880135925060a088013561359a81614198565b8092505060c0880135905092959891949750929550565b60008060008060008060008060008060006101608c8e0312156135d2578384fd5b8b356135dd81614198565b9a5060208c01356135ed81614198565b995060408c0135985060608c0135975060808c0135965060a08c013561361281614198565b955060c08c0135945060e08c0135613629816141b0565b93506136398d6101008e016134f0565b92506101208c013591506101408c013590509295989b509295989b9093969950565b600080600080600080600080610100898b031215613677578384fd5b883561368281614198565b9750602089013561369281614198565b965060408901359550606089013594506080890135935060a0890135925060c08901356136be81614198565b8092505060e089013590509295985092959890939650565b60008060008060008060c087890312156136ee578182fd5b86356136f981614198565b9550602087013594506040870135935060608701359250608087013561371e81614198565b8092505060a087013590509295509295509295565b6000806000806000806000806000806101408b8d031215613752578384fd5b8a3561375d81614198565b995060208b0135985060408b0135975060608b0135965060808b013561378281614198565b955060a08b0135945060c08b0135613799816141b0565b93506137a88c60e08d016134f0565b92506101008b013591506101208b013590509295989b9194979a5092959850565b6000602082840312156137da578081fd5b815161351d816141b0565b6000806000606084860312156137f9578081fd5b8351613804816141be565b6020850151909350613815816141be565b604085015190925063ffffffff8116811461382e578182fd5b809150509250925092565b60006020828403121561384a578081fd5b5051919050565b600080600080600060808688031215613868578283fd5b85359450602086013567ffffffffffffffff811115613885578384fd5b613891888289016134ae565b90955093505060408601356138a581614198565b949793965091946060013592915050565b600080604083850312156138c8578182fd5b8235915060208084013567ffffffffffffffff808211156138e7578384fd5b81860187601f8201126138f8578485fd5b8035925081831115613908578485fd5b8383029150613918848301614145565b8381528481019082860184840187018b1015613932578788fd5b8794505b8585101561395c576139488b826134a3565b835260019490940193918601918601613936565b508096505050505050509250929050565b60008060008060008060a08789031215613985578384fd5b8635955060208701359450604087013567ffffffffffffffff8111156139a9578485fd5b6139b589828a016134ae565b90955093505060608701356139c981614198565b80925050608087013590509295509295509295565b6000806000606084860312156139f2578081fd5b505081359360208301359350604090920135919050565b600080600060608486031215613a1d578081fd5b8351925060208401519150604084015190509250925092565b6bffffffffffffffffffffffff19606093841b811682529190921b16601482015260280190565b60008251613a6f81846020870161416c565b9190910192915050565b6001600160f81b0319815260609290921b6bffffffffffffffffffffffff1916600183015260158201527f537b066e8372b4e8c99b61fd5d808fd706f5aaf269cde5ce02129d9678dea143603582015260550190565b6001600160a01b0391909116815260200190565b6001600160a01b0397881681529590961660208601526040850193909352606084019190915260ff16608083015260a082015260c081019190915260e00190565b6001600160a01b039384168152919092166020820152604081019190915260600190565b6001600160a01b0392831681529116602082015260400190565b6001600160a01b03929092168252602082015260400190565b6020808252825182820181905260009190848201906040850190845b81811015613bb357835183529284019291840191600101613b97565b50909695505050505050565b60208082526015908201527464732d6d6174682d7375622d756e646572666c6f7760581b604082015260600190565b6020808252601f908201527f5472616e7366657248656c7065723a205452414e534645525f4641494c454400604082015260600190565b6020808252602a908201527f4d696e69737761704c6962726172793a20494e53554646494349454e545f494e60408201526914155517d05353d5539560b21b606082015260800190565b60208082526014908201527364732d6d6174682d6d756c2d6f766572666c6f7760601b604082015260600190565b60208082526014908201527364732d6d6174682d6164642d6f766572666c6f7760601b604082015260600190565b60208082526025908201527f4d696e6973776170526f757465723a20494e53554646494349454e545f425f416040820152641353d5539560da1b606082015260800190565b60208082526017908201527f4d696e6973776170526f757465723a2045585049524544000000000000000000604082015260600190565b6020808252602a908201527f4d696e6973776170526f757465723a20494e53554646494349454e545f4f555460408201526914155517d05353d5539560b21b606082015260800190565b60208082526024908201527f4d696e69737761704c6962726172793a20494e53554646494349454e545f414d60408201526313d5539560e21b606082015260800190565b6020808252601c908201527f4d696e6973776170526f757465723a20494e56414c49445f5041544800000000604082015260600190565b6020808252601d908201527f4d696e69737761704c6962726172793a205a45524f5f41444452455353000000604082015260600190565b60208082526028908201527f4d696e6973776170564c6962726172793a20494e53554646494349454e545f4c604082015267495155494449545960c01b606082015260800190565b60208082526025908201527f4d696e6973776170526f757465723a20494e53554646494349454e545f415f416040820152641353d5539560da1b606082015260800190565b60208082526027908201527f4d696e69737761704c6962726172793a20494e53554646494349454e545f4c496040820152665155494449545960c81b606082015260800190565b60208082526026908201527f4d696e6973776170526f757465723a204558434553534956455f494e5055545f604082015265105353d5539560d21b606082015260800190565b6020808252601d908201527f4d696e69737761704c6962726172793a20494e56414c49445f50415448000000604082015260600190565b60208082526024908201527f4d696e69737761704c6962726172793a204944454e544943414c5f41444452456040820152635353455360e01b606082015260800190565b60208082526023908201527f5472616e7366657248656c7065723a204554485f5452414e534645525f46414960408201526213115160ea1b606082015260800190565b60208082526024908201527f5472616e7366657248656c7065723a205452414e534645525f46524f4d5f46416040820152631253115160e21b606082015260800190565b6020808252602b908201527f4d696e69737761704c6962726172793a20494e53554646494349454e545f4f5560408201526a1514155517d05353d5539560aa1b606082015260800190565b81518152602080830151908201526040918201519181019190915260600190565b90815260200190565b600086825285602083015260018060a01b03808616604084015280851660608401525060a0608083015282518060a08401526141178160c085016020870161416c565b601f01601f19169190910160c0019695505050505050565b9283526020830191909152604082015260600190565b60405181810167ffffffffffffffff8111828210171561416457600080fd5b604052919050565b60005b8381101561418757818101518382015260200161416f565b83811115612bae5750506000910152565b6001600160a01b03811681146141ad57600080fd5b50565b80151581146141ad57600080fd5b6001600160701b03811681146141ad57600080fdfea264697066735822122060caa16b84d09247be188466357ed3fbb9564b4e4e632ae797368441893b668664736f6c63430006090033",
  "immutableReferences": {
    "3106": [
      {
        "length": 32,
        "start": 1709
      },
      {
        "length": 32,
        "start": 1898
      },
      {
        "length": 32,
        "start": 2779
      },
      {
        "length": 32,
        "start": 2841
      },
      {
        "length": 32,
        "start": 3080
      },
      {
        "length": 32,
        "start": 3498
      },
      {
        "length": 32,
        "start": 3656
      },
      {
        "length": 32,
        "start": 3961
      },
      {
        "length": 32,
        "start": 5199
      },
      {
        "length": 32,
        "start": 5533
      },
      {
        "length": 32,
        "start": 5841
      },
      {
        "length": 32,
        "start": 6577
      },
      {
        "length": 32,
        "start": 7098
      },
      {
        "length": 32,
        "start": 7552
      },
      {
        "length": 32,
        "start": 7593
      },
      {
        "length": 32,
        "start": 7646
      },
      {
        "length": 32,
        "start": 7922
      },
      {
        "length": 32,
        "start": 8226
      },
      {
        "length": 32,
        "start": 8908
      },
      {
        "length": 32,
        "start": 9239
      },
      {
        "length": 32,
        "start": 10913
      },
      {
        "length": 32,
        "start": 10980
      },
      {
        "length": 32,
        "start": 11534
      },
      {
        "length": 32,
        "start": 11893
      },
      {
        "length": 32,
        "start": 12592
      },
      {
        "length": 32,
        "start": 12773
      },
      {
        "length": 32,
        "start": 12920
      }
    ],
    "3109": [
      {
        "length": 32,
        "start": 378
      },
      {
        "length": 32,
        "start": 1271
      },
      {
        "length": 32,
        "start": 1357
      },
      {
        "length": 32,
        "start": 1597
      },
      {
        "length": 32,
        "start": 2579
      },
      {
        "length": 32,
        "start": 3386
      },
      {
        "length": 32,
        "start": 3690
      },
      {
        "length": 32,
        "start": 4531
      },
      {
        "length": 32,
        "start": 4742
      },
      {
        "length": 32,
        "start": 4932
      },
      {
        "length": 32,
        "start": 5082
      },
      {
        "length": 32,
        "start": 5347
      },
      {
        "length": 32,
        "start": 5483
      },
      {
        "length": 32,
        "start": 5986
      },
      {
        "length": 32,
        "start": 6080
      },
      {
        "length": 32,
        "start": 6292
      },
      {
        "length": 32,
        "start": 6411
      },
      {
        "length": 32,
        "start": 6527
      },
      {
        "length": 32,
        "start": 7680
      },
      {
        "length": 32,
        "start": 8174
      },
      {
        "length": 32,
        "start": 8260
      },
      {
        "length": 32,
        "start": 8312
      },
      {
        "length": 32,
        "start": 8446
      },
      {
        "length": 32,
        "start": 8791
      },
      {
        "length": 32,
        "start": 9053
      },
      {
        "length": 32,
        "start": 9189
      }
    ],
    "3112": [
      {
        "length": 32,
        "start": 1478
      },
      {
        "length": 32,
        "start": 2054
      },
      {
        "length": 32,
        "start": 2278
      },
      {
        "length": 32,
        "start": 2437
      },
      {
        "length": 32,
        "start": 3307
      }
    ]
  },
  "source": "// SPDX-License-Identifier: SimPL-2.0\npragma solidity=0.6.9;\npragma experimental ABIEncoderV2;\n\nimport './interfaces/IMiniswapFactory.sol';\nimport './libraries/TransferHelper.sol';\n\nimport './interfaces/IMiniswapRouter.sol';\nimport './interfaces/IMiniswapERC20.sol';\nimport './libraries/MiniswapLibrary.sol';\nimport './libraries/SafeMath.sol';\nimport './interfaces/IERC20.sol';\nimport './interfaces/IWETH.sol';\n\ncontract MiniswapRouter is IMiniswapRouter {\n    using SafeMath for uint;\n\n    address public immutable override factory;\n    address public immutable override WETH;\n    address public immutable override MINI;\n\n    modifier ensure(uint deadline) {\n        require(deadline >= block.timestamp, 'MiniswapRouter: EXPIRED');\n        _;\n    }\n\n    constructor(address _factory,address _mini,address _WETH) public {\n        factory = _factory;\n        MINI = _mini;\n        WETH = _WETH;\n    }\n\n    receive() external payable {\n        assert(msg.sender == WETH); // only accept ETH via fallback from the WETH contract\n    }\n\n    // **** ADD LIQUIDITY ****\n    function _addLiquidity(\n        address tokenA,\n        address tokenB,\n        uint amountADesired,\n        uint amountBDesired,\n        uint amountAMin,\n        uint amountBMin\n    ) internal virtual returns (uint amountA, uint amountB) {\n        // create the pair if it doesn't exist yet\n        if (IMiniswapFactory(factory).getPair(tokenA, tokenB) == address(0)) {\n            IMiniswapFactory(factory).createPair(tokenA, tokenB);\n        }\n        (uint reserveA, uint reserveB) = MiniswapLibrary.getReserves(factory, tokenA, tokenB);\n        if (reserveA == 0 && reserveB == 0) {\n            (amountA, amountB) = (amountADesired, amountBDesired);\n        } else {\n            uint amountBOptimal = MiniswapLibrary.quote(amountADesired, reserveA, reserveB);\n            if (amountBOptimal <= amountBDesired) {\n                require(amountBOptimal >= amountBMin, 'MiniswapRouter: INSUFFICIENT_B_AMOUNT');\n                (amountA, amountB ) = (amountADesired, amountBOptimal);\n            } else {\n                uint amountAOptimal = MiniswapLibrary.quote(amountBDesired, reserveB, reserveA);\n                assert(amountAOptimal <= amountADesired);\n                require(amountAOptimal >= amountAMin, 'MiniswapRouter: INSUFFICIENT_A_AMOUNT');\n                (amountA, amountB) = (amountAOptimal, amountBDesired);\n            }\n        }\n    }\n    function addLiquidity(\n        address tokenA,\n        address tokenB,\n        uint amountADesired,\n        uint amountBDesired,\n        uint amountAMin,\n        uint amountBMin,\n        address to,\n        uint deadline\n    ) external virtual override ensure(deadline) returns (uint amountA, uint amountB, uint liquidity) {\n        (amountA, amountB) = _addLiquidity(tokenA, tokenB, amountADesired,amountBDesired, amountAMin, amountBMin);\n        address pair = MiniswapLibrary.pairFor(factory, tokenA, tokenB);\n        TransferHelper.safeTransferFrom(tokenA, msg.sender, pair, amountA);\n        TransferHelper.safeTransferFrom(tokenB, msg.sender, pair, amountB);\n        liquidity = IMiniswapPair(pair).mint(to);\n    }\n    function addLiquidityETH(\n        address token,\n        uint amountTokenDesired,\n        uint amountTokenMin,\n        uint amountETHMin,\n        address to,\n        uint deadline\n    ) external virtual override payable ensure(deadline) returns (uint amountToken, uint amountETH,uint liquidity) {\n        (amountToken, amountETH) = _addLiquidity(\n            token,\n            WETH,\n            amountTokenDesired,\n            msg.value,\n            amountTokenMin,\n            amountETHMin\n        );\n        address pair = MiniswapLibrary.pairFor(factory, token, WETH);\n        TransferHelper.safeTransferFrom(token, msg.sender, pair, amountToken);\n        IWETH(WETH).deposit{value: amountETH}();\n        assert(IWETH(WETH).transfer(pair, amountETH));\n        liquidity = IMiniswapPair(pair).mint(to);\n        // refund dust eth, if any\n        if (msg.value > amountETH) TransferHelper.safeTransferETH(msg.sender, msg.value - amountETH);\n    }\n\n    // **** REMOVE LIQUIDITY ****\n    function removeLiquidity(\n        address tokenA,\n        address tokenB,\n        uint liquidity,\n        uint amountAMin,\n        uint amountBMin,\n        address to,\n        uint deadline\n    ) public virtual override ensure(deadline) returns (AmountInfo memory amountInfo) {\n        address pair = MiniswapLibrary.pairFor(factory, tokenA, tokenB);\n        IMiniswapERC20(pair).transferFrom(msg.sender, pair, liquidity); // send liquidity to pair\n        (uint amount0, uint amount1,uint amountmini) = IMiniswapPair(pair).burn(to);\n        (address token0,) = MiniswapLibrary.sortTokens(tokenA, tokenB);\n        amountInfo.amountMini = amountmini;\n        (amountInfo.amountA, amountInfo.amountB) = tokenA == token0 ? (amount0, amount1) : (amount1, amount0);\n        require(amountInfo.amountA >= amountAMin, 'MiniswapRouter: INSUFFICIENT_A_AMOUNT');\n        require(amountInfo.amountB >= amountBMin, 'MiniswapRouter: INSUFFICIENT_B_AMOUNT');\n    }\n    function removeLiquidityETH(\n        address token,\n        uint liquidity,\n        uint amountTokenMin,\n        uint amountETHMin,\n        address to,\n        uint deadline\n    ) public virtual override ensure(deadline) returns (AmountInfo memory amountInfo) {\n        amountInfo = removeLiquidity(\n            token,\n            WETH,\n            liquidity,\n            amountTokenMin,\n            amountETHMin,\n            address(this),\n            deadline\n        );\n        TransferHelper.safeTransfer(token, to, amountInfo.amountA);\n        IWETH(WETH).withdraw(amountInfo.amountB);\n        TransferHelper.safeTransferETH(to, amountInfo.amountB);\n        TransferHelper.safeTransfer(MINI,to,amountInfo.amountMini);\n    }\n    function removeLiquidityWithPermit(\n        address tokenA,\n        address tokenB,\n        uint liquidity,\n        uint amountAMin,\n        uint amountBMin,\n        address to,\n        uint deadline,\n        bool approveMax, uint8 v, bytes32 r, bytes32 s\n    ) external virtual override returns (AmountInfo memory amountInfo) {\n        address pair = MiniswapLibrary.pairFor(factory, tokenA, tokenB);\n        uint value = approveMax ? uint(-1) : liquidity;\n        IMiniswapERC20(pair).permit(msg.sender, address(this), value, deadline, v, r, s);\n        amountInfo = removeLiquidity(tokenA, tokenB, liquidity, amountAMin, amountBMin, to, deadline);\n    }\n    function removeLiquidityETHWithPermit(\n        address token,\n        uint liquidity,\n        uint amountTokenMin,\n        uint amountETHMin,\n        address to,\n        uint deadline,\n        bool approveMax, uint8 v, bytes32 r, bytes32 s\n    ) external virtual override returns (AmountInfo memory amountInfo) {\n        address pair = MiniswapLibrary.pairFor(factory, token, WETH);\n        uint value = approveMax ? uint(-1) : liquidity;\n        IMiniswapERC20(pair).permit(msg.sender, address(this), value, deadline, v, r, s);\n        amountInfo = removeLiquidityETH(token, liquidity, amountTokenMin, amountETHMin, to, deadline);\n    }\n\n    // **** REMOVE LIQUIDITY (supporting fee-on-transfer tokens) ****\n    function removeLiquidityETHSupportingFeeOnTransferTokens(\n        address token,\n        uint liquidity,\n        uint amountTokenMin,\n        uint amountETHMin,\n        address to,\n        uint deadline\n    ) public virtual override ensure(deadline) returns (AmountInfo memory amountInfo) {\n        amountInfo = removeLiquidity(\n            token,\n            WETH,\n            liquidity,\n            amountTokenMin,\n            amountETHMin,\n            address(this),\n            deadline\n        );\n        TransferHelper.safeTransfer(token, to, IERC20(token).balanceOf(address(this)));\n        IWETH(WETH).withdraw(amountInfo.amountB);\n        TransferHelper.safeTransferETH(to, amountInfo.amountB);\n        TransferHelper.safeTransfer(MINI,to,amountInfo.amountMini);\n    }\n    function removeLiquidityETHWithPermitSupportingFeeOnTransferTokens(\n        address token,\n        uint liquidity,\n        uint amountTokenMin,\n        uint amountETHMin,\n        address to,\n        uint deadline,\n        bool approveMax, uint8 v, bytes32 r, bytes32 s\n    ) external virtual override returns  (AmountInfo memory amountInfo) {\n        address pair = MiniswapLibrary.pairFor(factory, token, WETH);\n        uint value = approveMax ? uint(-1) : liquidity;\n        IMiniswapERC20(pair).permit(msg.sender, address(this), value, deadline, v, r, s);\n        amountInfo = removeLiquidityETHSupportingFeeOnTransferTokens(\n            token, liquidity, amountTokenMin, amountETHMin, to, deadline\n        );\n    }\n\n    // **** SWAP ****\n    // requires the initial amount to have already been sent to the first pair\n    function _swap(uint[] memory amounts, address[] memory path, address _to) internal virtual {\n        for (uint i; i < path.length - 1; i++) {\n            (address input, address output) = (path[i], path[i + 1]);\n            (address token0,) = MiniswapLibrary.sortTokens(input, output);\n            uint amountOut = amounts[i + 1];\n            (uint amount0Out, uint amount1Out) = input == token0 ? (uint(0), amountOut) : (amountOut, uint(0));\n            address to = i < path.length - 2 ? MiniswapLibrary.pairFor(factory, output, path[i + 2]) : _to;\n            IMiniswapPair(MiniswapLibrary.pairFor(factory, input, output)).swap(\n                amount0Out, amount1Out, to, _to,new bytes(0)\n            );\n        }\n    }\n    function swapExactTokensForTokens(\n        uint amountIn,\n        uint amountOutMin,\n        address[] calldata path,\n        address to,\n        uint deadline\n    ) external virtual override ensure(deadline) returns (uint[] memory amounts) {\n        amounts = MiniswapLibrary.getAmountsOut(factory, amountIn, path);\n        require(amounts[amounts.length - 1] >= amountOutMin, 'MiniswapRouter: INSUFFICIENT_OUTPUT_AMOUNT');\n        TransferHelper.safeTransferFrom(\n            path[0], msg.sender, MiniswapLibrary.pairFor(factory, path[0], path[1]), amounts[0]\n        );\n        _swap(amounts, path, to);\n    }\n    function swapTokensForExactTokens(\n        uint amountOut,\n        uint amountInMax,\n        address[] calldata path,\n        address to,\n        uint deadline\n    ) external virtual override ensure(deadline) returns (uint[] memory amounts) {\n        amounts = MiniswapLibrary.getAmountsIn(factory, amountOut, path);\n        require(amounts[0] <= amountInMax, 'MiniswapRouter: EXCESSIVE_INPUT_AMOUNT');\n        TransferHelper.safeTransferFrom(\n            path[0], msg.sender, MiniswapLibrary.pairFor(factory, path[0], path[1]), amounts[0]\n        );\n        _swap(amounts, path, to);\n    }\n    function swapExactETHForTokens(uint amountOutMin, address[] calldata path, address to, uint deadline)\n        external\n        virtual\n        override\n        payable\n        ensure(deadline)\n        returns (uint[] memory amounts)\n    {\n        require(path[0] == WETH, 'MiniswapRouter: INVALID_PATH');\n        amounts = MiniswapLibrary.getAmountsOut(factory, msg.value, path);\n        require(amounts[amounts.length - 1] >= amountOutMin, 'MiniswapRouter: INSUFFICIENT_OUTPUT_AMOUNT');\n        IWETH(WETH).deposit{value: amounts[0]}();\n        assert(IWETH(WETH).transfer(MiniswapLibrary.pairFor(factory, path[0], path[1]), amounts[0]));\n        _swap(amounts, path, to);\n    }\n    \n    function swapTokensForExactETH(uint amountOut, uint amountInMax, address[] calldata path, address to, uint deadline)\n        external\n        virtual\n        override\n        ensure(deadline)\n        returns (uint[] memory amounts)\n    {\n        require(path[path.length - 1] == WETH, 'MiniswapRouter: INVALID_PATH');\n        amounts = MiniswapLibrary.getAmountsIn(factory, amountOut, path);\n        require(amounts[0] <= amountInMax, 'MiniswapRouter: EXCESSIVE_INPUT_AMOUNT');\n        TransferHelper.safeTransferFrom(\n            path[0], msg.sender, MiniswapLibrary.pairFor(factory, path[0], path[1]), amounts[0]\n        );\n        uint b0 = IERC20(MINI).balanceOf(address(this));\n        _swap(amounts, path, address(this));\n        uint b1 = IERC20(MINI).balanceOf(address(this));\n        IERC20(MINI).transfer(to,b1-b0);\n        IWETH(WETH).withdraw(amounts[amounts.length - 1]);\n        TransferHelper.safeTransferETH(to, amounts[amounts.length - 1]);\n    }\n\n    function swapExactTokensForETH(uint amountIn, uint amountOutMin, address[] calldata path, address to, uint deadline)\n        external\n        virtual\n        override\n        ensure(deadline)\n        returns (uint[] memory amounts)\n    {\n        require(path[path.length - 1] == WETH, 'MiniswapRouter: INVALID_PATH');\n        amounts = MiniswapLibrary.getAmountsOut(factory, amountIn, path);\n        require(amounts[amounts.length - 1] >= amountOutMin, 'MiniswapRouter: INSUFFICIENT_OUTPUT_AMOUNT');\n        TransferHelper.safeTransferFrom(\n            path[0], msg.sender, MiniswapLibrary.pairFor(factory, path[0], path[1]), amounts[0]\n        );\n        uint b0 = IERC20(MINI).balanceOf(address(this));\n        _swap(amounts, path, address(this));\n        uint b1 = IERC20(MINI).balanceOf(address(this));\n        IERC20(MINI).transfer(to,b1-b0);\n        IWETH(WETH).withdraw(amounts[amounts.length - 1]);\n        TransferHelper.safeTransferETH(to, amounts[amounts.length - 1]);\n    }\n    function swapETHForExactTokens(uint amountOut, address[] calldata path, address to, uint deadline)\n        external\n        virtual\n        override\n        payable\n        ensure(deadline)\n        returns (uint[] memory amounts)\n    {\n        require(path[0] == WETH, 'MiniswapRouter: INVALID_PATH');\n        amounts = MiniswapLibrary.getAmountsIn(factory, amountOut, path);\n        require(amounts[0] <= msg.value, 'MiniswapRouter: EXCESSIVE_INPUT_AMOUNT');\n        IWETH(WETH).deposit{value: amounts[0]}();\n        assert(IWETH(WETH).transfer(MiniswapLibrary.pairFor(factory, path[0], path[1]), amounts[0]));\n        _swap(amounts, path, to);\n        // refund dust eth, if any\n        if (msg.value > amounts[0]) TransferHelper.safeTransferETH(msg.sender, msg.value - amounts[0]);\n    }\n\n    // **** SWAP (supporting fee-on-transfer tokens) ****\n    // requires the initial amount to have already been sent to the first pair\n    function _swapSupportingFeeOnTransferTokens(address[] memory path, address _to) internal virtual {\n        for (uint i; i < path.length - 1; i++) {\n            (address input, address output) = (path[i], path[i + 1]);\n            (address token0,) = MiniswapLibrary.sortTokens(input, output);\n            IMiniswapPair pair = IMiniswapPair(MiniswapLibrary.pairFor(factory, input, output));\n            uint amountInput;\n            uint amountOutput;\n            { // scope to avoid stack too deep errors\n            (uint reserve0, uint reserve1,) = pair.getReserves();\n            (uint reserveInput, uint reserveOutput) = input == token0 ? (reserve0, reserve1) : (reserve1, reserve0);\n            amountInput = IERC20(input).balanceOf(address(pair)).sub(reserveInput);\n            amountOutput = MiniswapLibrary.getAmountOut(amountInput, reserveInput, reserveOutput);\n            }\n            (uint amount0Out, uint amount1Out) = input == token0 ? (uint(0), amountOutput) : (amountOutput, uint(0));\n            address to = i < path.length - 2 ? MiniswapLibrary.pairFor(factory, output, path[i + 2]) : _to;\n            pair.swap(amount0Out, amount1Out, to,_to, new bytes(0));\n        }\n    }\n    function swapExactTokensForTokensSupportingFeeOnTransferTokens(\n        uint amountIn,\n        uint amountOutMin,\n        address[] calldata path,\n        address to,\n        uint deadline\n    ) external virtual override ensure(deadline) {\n        TransferHelper.safeTransferFrom(\n            path[0], msg.sender, MiniswapLibrary.pairFor(factory, path[0], path[1]), amountIn\n        );\n        uint balanceBefore = IERC20(path[path.length - 1]).balanceOf(to);\n        _swapSupportingFeeOnTransferTokens(path, to);\n        require(\n            IERC20(path[path.length - 1]).balanceOf(to).sub(balanceBefore) >= amountOutMin,\n            'MiniswapRouter: INSUFFICIENT_OUTPUT_AMOUNT'\n        );\n    }\n    function swapExactETHForTokensSupportingFeeOnTransferTokens(\n        uint amountOutMin,\n        address[] calldata path,\n        address to,\n        uint deadline\n    )\n        external\n        virtual\n        override\n        payable\n        ensure(deadline)\n    {\n        require(path[0] == WETH, 'MiniswapRouter: INVALID_PATH');\n        uint amountIn = msg.value;\n        IWETH(WETH).deposit{value: amountIn}();\n        assert(IWETH(WETH).transfer(MiniswapLibrary.pairFor(factory, path[0], path[1]), amountIn));\n        uint balanceBefore = IERC20(path[path.length - 1]).balanceOf(to);\n        _swapSupportingFeeOnTransferTokens(path, to);\n        require(\n            IERC20(path[path.length - 1]).balanceOf(to).sub(balanceBefore) >= amountOutMin,\n            'MiniswapRouter: INSUFFICIENT_OUTPUT_AMOUNT'\n        );\n    }\n    function swapExactTokensForETHSupportingFeeOnTransferTokens(\n        uint amountIn,\n        uint amountOutMin,\n        address[] calldata path,\n        address to,\n        uint deadline\n    )\n        external\n        virtual\n        override\n        ensure(deadline)\n    {\n        require(path[path.length - 1] == WETH, 'MiniswapRouter: INVALID_PATH');\n        TransferHelper.safeTransferFrom(\n            path[0], msg.sender, MiniswapLibrary.pairFor(factory, path[0], path[1]), amountIn\n        );\n        _swapSupportingFeeOnTransferTokens(path, address(this));\n        uint amountOut = IERC20(WETH).balanceOf(address(this));\n        require(amountOut >= amountOutMin, 'MiniswapRouter: INSUFFICIENT_OUTPUT_AMOUNT');\n        IWETH(WETH).withdraw(amountOut);\n        TransferHelper.safeTransferETH(to, amountOut);\n    }\n\n    // **** LIBRARY FUNCTIONS ****\n    function quote(uint amountA, uint reserveA, uint reserveB) public pure virtual override returns (uint amountB) {\n        return MiniswapLibrary.quote(amountA, reserveA, reserveB);\n    }\n\n    function getAmountOut(uint amountIn, uint reserveIn, uint reserveOut)\n        public\n        pure\n        virtual\n        override\n        returns (uint amountOut)\n    {\n        return MiniswapLibrary.getAmountOut(amountIn, reserveIn, reserveOut);\n    }\n\n    function getAmountIn(uint amountOut, uint reserveIn, uint reserveOut)\n        public\n        pure\n        virtual\n        override\n        returns (uint amountIn)\n    {\n        return MiniswapLibrary.getAmountIn(amountOut, reserveIn, reserveOut);\n    }\n\n    function getAmountsOut(uint amountIn, address[] memory path)\n        public\n        view\n        virtual\n        override\n        returns (uint[] memory amounts)\n    {\n        return MiniswapLibrary.getAmountsOut(factory, amountIn, path);\n    }\n\n    function getAmountsIn(uint amountOut, address[] memory path)\n        public\n        view\n        virtual\n        override\n        returns (uint[] memory amounts)\n    {\n        return MiniswapLibrary.getAmountsIn(factory, amountOut, path);\n    }\n}\n",
  "sourcePath": "/Users/yinwei/work/miniswap/contracts/MiniswapRouter.sol",
  "compiler": {
    "name": "solc",
    "version": "0.6.9+commit.3e3065ac.Emscripten.clang"
  },
  "schemaVersion": "3.2.1",
  "updatedAt": "2020-08-20T17:41:38.741Z",
  "networkType": "ethereum",
  "devdoc": {
    "methods": {}
  },
  "userdoc": {
    "methods": {}
  }
}