{
  "contractName": "MiniswapMiner",
  "abi": [
    {
      "inputs": [
        {
          "internalType": "uint256",
          "name": "_minFee",
          "type": "uint256"
        },
        {
          "internalType": "address",
          "name": "_mini",
          "type": "address"
        },
        {
          "internalType": "address",
          "name": "_feeder",
          "type": "address"
        },
        {
          "internalType": "address",
          "name": "_developer",
          "type": "address"
        }
      ],
      "stateMutability": "nonpayable",
      "type": "constructor"
    },
    {
      "anonymous": false,
      "inputs": [
        {
          "indexed": false,
          "internalType": "address",
          "name": "",
          "type": "address"
        }
      ],
      "name": "AddWhitelist",
      "type": "event"
    },
    {
      "anonymous": false,
      "inputs": [
        {
          "indexed": false,
          "internalType": "address",
          "name": "",
          "type": "address"
        }
      ],
      "name": "RemoveWhitelist",
      "type": "event"
    },
    {
      "inputs": [],
      "name": "developer",
      "outputs": [
        {
          "internalType": "address",
          "name": "",
          "type": "address"
        }
      ],
      "stateMutability": "view",
      "type": "function"
    },
    {
      "inputs": [],
      "name": "feeder",
      "outputs": [
        {
          "internalType": "address",
          "name": "",
          "type": "address"
        }
      ],
      "stateMutability": "view",
      "type": "function"
    },
    {
      "inputs": [],
      "name": "minFee",
      "outputs": [
        {
          "internalType": "uint256",
          "name": "",
          "type": "uint256"
        }
      ],
      "stateMutability": "view",
      "type": "function"
    },
    {
      "inputs": [
        {
          "internalType": "uint256",
          "name": "",
          "type": "uint256"
        }
      ],
      "name": "mineInfo",
      "outputs": [
        {
          "internalType": "uint256",
          "name": "",
          "type": "uint256"
        }
      ],
      "stateMutability": "view",
      "type": "function"
    },
    {
      "inputs": [],
      "name": "owner",
      "outputs": [
        {
          "internalType": "address",
          "name": "",
          "type": "address"
        }
      ],
      "stateMutability": "view",
      "type": "function"
    },
    {
      "inputs": [
        {
          "internalType": "address",
          "name": "",
          "type": "address"
        }
      ],
      "name": "whitelistMap",
      "outputs": [
        {
          "internalType": "bool",
          "name": "",
          "type": "bool"
        }
      ],
      "stateMutability": "view",
      "type": "function"
    },
    {
      "inputs": [
        {
          "internalType": "address",
          "name": "token",
          "type": "address"
        },
        {
          "internalType": "address",
          "name": "to",
          "type": "address"
        }
      ],
      "name": "getToken",
      "outputs": [],
      "stateMutability": "nonpayable",
      "type": "function"
    },
    {
      "inputs": [
        {
          "internalType": "uint256",
          "name": "_minFee",
          "type": "uint256"
        }
      ],
      "name": "changeMinFee",
      "outputs": [],
      "stateMutability": "nonpayable",
      "type": "function"
    },
    {
      "inputs": [
        {
          "internalType": "address",
          "name": "pair",
          "type": "address"
        }
      ],
      "name": "addWhitelist",
      "outputs": [],
      "stateMutability": "nonpayable",
      "type": "function"
    },
    {
      "inputs": [
        {
          "internalType": "address",
          "name": "factory",
          "type": "address"
        },
        {
          "internalType": "address",
          "name": "token0",
          "type": "address"
        },
        {
          "internalType": "address",
          "name": "token1",
          "type": "address"
        }
      ],
      "name": "addWhitelistByTokens",
      "outputs": [],
      "stateMutability": "nonpayable",
      "type": "function"
    },
    {
      "inputs": [
        {
          "internalType": "address",
          "name": "pair",
          "type": "address"
        }
      ],
      "name": "removeWhitelist",
      "outputs": [],
      "stateMutability": "nonpayable",
      "type": "function"
    },
    {
      "inputs": [
        {
          "internalType": "address",
          "name": "factory",
          "type": "address"
        },
        {
          "internalType": "address",
          "name": "token0",
          "type": "address"
        },
        {
          "internalType": "address",
          "name": "token1",
          "type": "address"
        }
      ],
      "name": "removeWhitelistByTokens",
      "outputs": [],
      "stateMutability": "nonpayable",
      "type": "function"
    },
    {
      "inputs": [
        {
          "internalType": "address",
          "name": "factory",
          "type": "address"
        },
        {
          "internalType": "address",
          "name": "to",
          "type": "address"
        },
        {
          "internalType": "address",
          "name": "token",
          "type": "address"
        },
        {
          "internalType": "uint256",
          "name": "amount",
          "type": "uint256"
        }
      ],
      "name": "mining",
      "outputs": [],
      "stateMutability": "nonpayable",
      "type": "function"
    },
    {
      "inputs": [
        {
          "internalType": "address",
          "name": "factory",
          "type": "address"
        },
        {
          "internalType": "uint256",
          "name": "amount",
          "type": "uint256"
        },
        {
          "internalType": "address",
          "name": "token",
          "type": "address"
        }
      ],
      "name": "test",
      "outputs": [
        {
          "internalType": "uint256",
          "name": "",
          "type": "uint256"
        },
        {
          "internalType": "uint256",
          "name": "",
          "type": "uint256"
        },
        {
          "internalType": "uint256",
          "name": "",
          "type": "uint256"
        }
      ],
      "stateMutability": "view",
      "type": "function"
    },
    {
      "inputs": [
        {
          "internalType": "address",
          "name": "pair_token_mini",
          "type": "address"
        },
        {
          "internalType": "uint256",
          "name": "amount0Out",
          "type": "uint256"
        },
        {
          "internalType": "uint256",
          "name": "amount1Out",
          "type": "uint256"
        }
      ],
      "name": "test2",
      "outputs": [],
      "stateMutability": "nonpayable",
      "type": "function"
    },
    {
      "inputs": [
        {
          "internalType": "address",
          "name": "factory",
          "type": "address"
        },
        {
          "internalType": "address",
          "name": "token",
          "type": "address"
        },
        {
          "internalType": "uint256",
          "name": "issueAmount",
          "type": "uint256"
        },
        {
          "internalType": "uint256",
          "name": "amount",
          "type": "uint256"
        }
      ],
      "name": "swapMini",
      "outputs": [],
      "stateMutability": "nonpayable",
      "type": "function"
    },
    {
      "inputs": [
        {
          "internalType": "uint256",
          "name": "issueAmount",
          "type": "uint256"
        },
        {
          "internalType": "address",
          "name": "to",
          "type": "address"
        }
      ],
      "name": "issueMini",
      "outputs": [],
      "stateMutability": "nonpayable",
      "type": "function"
    }
  ],
  "bytecode": "0x608060405234801561001057600080fd5b50604051611b7c380380611b7c8339818101604052608081101561003357600080fd5b5080516020820151604083015160609093015160008054336001600160a01b03199182161782556006949094556008805485166001600160a01b039485161790556001805485169584169590951790945560028054909316911617905543600755611ad89081906100a490396000f3fe608060405234801561001057600080fd5b506004361061010b5760003560e01c80638da5cb5b116100a2578063a788a71611610071578063a788a7161461033e578063ca4b208b14610346578063cf29ddc41461034e578063ea47186f14610386578063f80f5dd5146103c25761010b565b80638da5cb5b1461026d5780638fd4c12e14610291578063a017ad9b146102cd578063a317ea06146103215761010b565b80635d4e7f04116100de5780635d4e7f04146101af57806367244714146101e15780636d8f99901461020f57806378c8cda7146102475761010b565b80631ad4ccdb1461011057806324ec75901461013e57806332531c3c146101585780635487aae214610192575b600080fd5b61013c6004803603604081101561012657600080fd5b50803590602001356001600160a01b03166103e8565b005b610146610662565b60408051918252519081900360200190f35b61017e6004803603602081101561016e57600080fd5b50356001600160a01b0316610668565b604080519115158252519081900360200190f35b610146600480360360208110156101a857600080fd5b503561067d565b61013c600480360360608110156101c557600080fd5b506001600160a01b03813516906020810135906040013561068f565b61013c600480360360408110156101f757600080fd5b506001600160a01b038135811691602001351661077f565b61013c6004803603606081101561022557600080fd5b506001600160a01b0381358116916020810135821691604090910135166108cd565b61013c6004803603602081101561025d57600080fd5b50356001600160a01b031661093c565b6102756109ae565b604080516001600160a01b039092168252519081900360200190f35b61013c600480360360808110156102a757600080fd5b506001600160a01b038135811691602081013590911690604081013590606001356109bd565b610303600480360360608110156102e357600080fd5b506001600160a01b03813581169160208101359160409091013516610c84565b60408051938452602084019290925282820152519081900360600190f35b61013c6004803603602081101561033757600080fd5b5035610dcf565b610275610e25565b610275610e34565b61013c6004803603606081101561036457600080fd5b506001600160a01b038135811691602081013582169160409091013516610e43565b61013c6004803603608081101561039c57600080fd5b506001600160a01b03813581169160208101358216916040820135169060600135610eac565b61013c600480360360208110156103d857600080fd5b50356001600160a01b031661105c565b6000610411611770610405600754436110d190919063ffffffff16565b9063ffffffff61112716565b9050600061041e82611191565b6000838152600460205260409020549091508190610454908690610448908263ffffffff6111ec16565b9063ffffffff6111ec16565b1115610484576000828152600460205260409020546104819060029061040590849063ffffffff6110d116565b93505b600061049c606461040587605a63ffffffff61123b16565b905060006104b0868363ffffffff6110d116565b9050851561065a5760085460408051631207f0c160e01b81526001600160a01b0388811660048301526024820186905291519190921691631207f0c191604480830192600092919082900301818387803b15801561050d57600080fd5b505af1158015610521573d6000803e3d6000fd5b505060085460408051631207f0c160e01b81523360048201526024810187905290516001600160a01b039092169350631207f0c1925060448082019260009290919082900301818387803b15801561057857600080fd5b505af115801561058c573d6000803e3d6000fd5b5050600854600280546001600160a01b039283169450631207f0c19350909116906105be90859063ffffffff61123b16565b6040518363ffffffff1660e01b815260040180836001600160a01b03166001600160a01b0316815260200182815260200192505050600060405180830381600087803b15801561060d57600080fd5b505af1158015610621573d6000803e3d6000fd5b50505060008581526004602052604090205461064a91508790610448908263ffffffff6111ec16565b6000858152600460205260409020555b505050505050565b60065481565b60036020526000908152604090205460ff1681565b60046020526000908152604090205481565b604080516000808252602082019283905263022c0d9f60e01b835260248201858152604483018590523060648401819052608060848501908152845160a486018190526001600160a01b038a169663022c0d9f968a968a9691949193919260c486019290918190849084905b838110156107135781810151838201526020016106fb565b50505050905090810190601f1680156107405780820380516001836020036101000a031916815260200191505b5095505050505050600060405180830381600087803b15801561076257600080fd5b505af1158015610776573d6000803e3d6000fd5b50505050505050565b6000546001600160a01b031633146107d0576040805162461bcd60e51b815260206004820152600f60248201526e3337b93134b23232b71d37bbb732b960891b604482015290519081900360640190fd5b604080516370a0823160e01b815230600482015290516000916001600160a01b038516916370a0823191602480820192602092909190829003018186803b15801561081a57600080fd5b505afa15801561082e573d6000803e3d6000fd5b505050506040513d602081101561084457600080fd5b50516040805163a9059cbb60e01b81526001600160a01b0385811660048301526024820184905291519293509085169163a9059cbb916044808201926020929091908290030181600087803b15801561089c57600080fd5b505af11580156108b0573d6000803e3d6000fd5b505050506040513d60208110156108c657600080fd5b5050505050565b6000546001600160a01b0316331461091e576040805162461bcd60e51b815260206004820152600f60248201526e3337b93134b23232b71d37bbb732b960891b604482015290519081900360640190fd5b600061092b84848461129e565b90506109368161105c565b50505050565b6000546001600160a01b0316331461098d576040805162461bcd60e51b815260206004820152600f60248201526e3337b93134b23232b71d37bbb732b960891b604482015290519081900360640190fd5b6001600160a01b03166000908152600360205260409020805460ff19169055565b6000546001600160a01b031681565b600854604080516370a0823160e01b815230600482015290516000926001600160a01b0316916370a08231916024808301926020929190829003018186803b158015610a0857600080fd5b505afa158015610a1c573d6000803e3d6000fd5b505050506040513d6020811015610a3257600080fd5b50516008549091506000908190610a539087906001600160a01b031661135e565b915091506000610a6488848461129e565b9050600080886001600160a01b0316856001600160a01b031614610a8a57876000610a8e565b6000885b91509150610a9d89848961143c565b604080516000808252602082019283905263022c0d9f60e01b835260248201858152604483018590523060648401819052608060848501908152845160a486018190526001600160a01b038a169663022c0d9f968a968a9691949193919260c486019290918190849084905b83811015610b21578181015183820152602001610b09565b50505050905090810190601f168015610b4e5780820380516001836020036101000a031916815260200191505b5095505050505050600060405180830381600087803b158015610b7057600080fd5b505af1158015610b84573d6000803e3d6000fd5b5050600854604080516370a0823160e01b8152306004820152905160009450610c1193508a926001600160a01b0316916370a08231916024808301926020929190829003018186803b158015610bd957600080fd5b505afa158015610bed573d6000803e3d6000fd5b505050506040513d6020811015610c0357600080fd5b50519063ffffffff6110d116565b600854909150610c4f906001600160a01b0316731111111111111111111111111111111111111111610c4a84600263ffffffff61112716565b61143c565b600854600154610c77916001600160a01b039081169116610c4a84600263ffffffff61112716565b5050505050505050505050565b604080516002808252606080830184526000938493849390916020830190803683370190505090508481600081518110610cba57fe5b6001600160a01b039283166020918202929092010152600854825191169082906001908110610ce557fe5b60200260200101906001600160a01b031690816001600160a01b0316815250506060610d1288888461159f565b9050600082600081518110610d2357fe5b60209081029190910101516008546001600160a01b03908116911614610d5d5781600181518110610d5057fe5b6020026020010151610d73565b81600081518110610d6a57fe5b60200260200101515b90506006548111610d91575060009450849350839250610dc6915050565b81600081518110610d9e57fe5b602002602001015182600181518110610db357fe5b6020026020010151829550955095505050505b93509350939050565b6000546001600160a01b03163314610e20576040805162461bcd60e51b815260206004820152600f60248201526e3337b93134b23232b71d37bbb732b960891b604482015290519081900360640190fd5b600655565b6001546001600160a01b031681565b6002546001600160a01b031681565b6000546001600160a01b03163314610e94576040805162461bcd60e51b815260206004820152600f60248201526e3337b93134b23232b71d37bbb732b960891b604482015290519081900360640190fd5b6000610ea184848461129e565b90506109368161093c565b3360009081526003602052604090205460ff161515600114610f0b576040805162461bcd60e51b8152602060048201526013602482015272199bdc989a5919195b8e9dda1a5d195b1a5cdd606a1b604482015290519081900360640190fd5b610f17823330846116ec565b6008546001600160a01b0383811691161415610f9457600854610f63906001600160a01b0316731111111111111111111111111111111111111111610c4a84600263ffffffff61112716565b600854610f85906001600160a01b031633610c4a84600263ffffffff61112716565b610f8f81846103e8565b610936565b60408051600280825260608083018452926020830190803683370190505090508281600081518110610fc257fe5b6001600160a01b039283166020918202929092010152600854825191169082906001908110610fed57fe5b60200260200101906001600160a01b031690816001600160a01b031681525050606061101a86848461159f565b905060008160018151811061102b57fe5b60200260200101519050600654811161104657505050610936565b611052878683876109bd565b61077681876103e8565b6000546001600160a01b031633146110ad576040805162461bcd60e51b815260206004820152600f60248201526e3337b93134b23232b71d37bbb732b960891b604482015290519081900360640190fd5b6001600160a01b03166000908152600360205260409020805460ff19166001179055565b80820382811115611121576040805162461bcd60e51b815260206004820152601560248201527464732d6d6174682d7375622d756e646572666c6f7760581b604482015290519081900360640190fd5b92915050565b600080821161117d576040805162461bcd60e51b815260206004820152601a60248201527f536166654d6174683a206469766973696f6e206279207a65726f000000000000604482015290519081900360640190fd5b600082848161118857fe5b04949350505050565b6000806111a583601e63ffffffff61112716565b90506903cfc82e37e9a74000009150600a8110156111e6576111e3600a82900a6104056969e10de76676d0800000600785900a63ffffffff61123b16565b91505b50919050565b80820182811015611121576040805162461bcd60e51b815260206004820152601460248201527364732d6d6174682d6164642d6f766572666c6f7760601b604482015290519081900360640190fd5b60008115806112565750508082028282828161125357fe5b04145b611121576040805162461bcd60e51b815260206004820152601460248201527364732d6d6174682d6d756c2d6f766572666c6f7760601b604482015290519081900360640190fd5b60008060006112ad858561135e565b604080516bffffffffffffffffffffffff19606094851b811660208084019190915293851b81166034830152825160288184030181526048830184528051908501206001600160f81b031960688401529a90941b9093166069840152607d8301989098527ff95ccc2634db61d2967ae8edcfd5ea64b486278663b3429d48a983081e5cb463609d808401919091528851808403909101815260bd909201909752805196019590952095945050505050565b600080826001600160a01b0316846001600160a01b031614156113b25760405162461bcd60e51b8152600401808060200182810382526026815260200180611a306026913960400191505060405180910390fd5b826001600160a01b0316846001600160a01b0316106113d25782846113d5565b83835b90925090506001600160a01b038216611435576040805162461bcd60e51b815260206004820152601f60248201527f4d696e697377617056324c6962726172793a205a45524f5f4144445245535300604482015290519081900360640190fd5b9250929050565b604080516001600160a01b038481166024830152604480830185905283518084039091018152606490920183526020820180516001600160e01b031663a9059cbb60e01b178152925182516000946060949389169392918291908083835b602083106114b95780518252601f19909201916020918201910161149a565b6001836020036101000a0380198251168184511680821785525050505050509050019150506000604051808303816000865af19150503d806000811461151b576040519150601f19603f3d011682016040523d82523d6000602084013e611520565b606091505b509150915081801561154e57508051158061154e575080806020019051602081101561154b57600080fd5b50515b6108c6576040805162461bcd60e51b815260206004820152601f60248201527f5472616e7366657248656c7065723a205452414e534645525f4641494c454400604482015290519081900360640190fd5b60606002825110156115f8576040805162461bcd60e51b815260206004820152601f60248201527f4d696e697377617056324c6962726172793a20494e56414c49445f5041544800604482015290519081900360640190fd5b815167ffffffffffffffff8111801561161057600080fd5b5060405190808252806020026020018201604052801561163a578160200160208202803683370190505b509050828160008151811061164b57fe5b60200260200101818152505060005b60018351038110156116e45760008061169d8786858151811061167957fe5b602002602001015187866001018151811061169057fe5b6020026020010151611841565b50915091506116c08484815181106116b157fe5b6020026020010151838361191f565b8484600101815181106116cf57fe5b6020908102919091010152505060010161165a565b509392505050565b604080516001600160a01b0385811660248301528481166044830152606480830185905283518084039091018152608490920183526020820180516001600160e01b03166323b872dd60e01b17815292518251600094606094938a169392918291908083835b602083106117715780518252601f199092019160209182019101611752565b6001836020036101000a0380198251168184511680821785525050505050509050019150506000604051808303816000865af19150503d80600081146117d3576040519150601f19603f3d011682016040523d82523d6000602084013e6117d8565b606091505b5091509150818015611806575080511580611806575080806020019051602081101561180357600080fd5b50515b61065a5760405162461bcd60e51b8152600401808060200182810382526024815260200180611a566024913960400191505060405180910390fd5b600080600080611851868661135e565b50905060008060006118648a8a8a61129e565b6001600160a01b0316630902f1ac6040518163ffffffff1660e01b815260040160806040518083038186803b15801561189c57600080fd5b505afa1580156118b0573d6000803e3d6000fd5b505050506040513d60808110156118c657600080fd5b50805160208201516040909201516dffffffffffffffffffffffffffff918216955091811693501690506001600160a01b038981169085161461190a57818361190d565b82825b909b909a509098509650505050505050565b600080841161195f5760405162461bcd60e51b815260040180806020018281038252602c815260200180611a04602c913960400191505060405180910390fd5b60008311801561196f5750600082115b6119aa5760405162461bcd60e51b8152600401808060200182810382526029815260200180611a7a6029913960400191505060405180910390fd5b60006119be856103e563ffffffff61123b16565b905060006119d2828563ffffffff61123b16565b905060006119ec83610448886103e863ffffffff61123b16565b90508082816119f757fe5b0497965050505050505056fe4d696e697377617056324c6962726172793a20494e53554646494349454e545f494e5055545f414d4f554e544d696e697377617056324c6962726172793a204944454e544943414c5f4144445245535345535472616e7366657248656c7065723a205452414e534645525f46524f4d5f4641494c45444d696e697377617056324c6962726172793a20494e53554646494349454e545f4c4951554944495459a2646970667358221220568b3ef85beaea8f6e68fb25b91934cc8dc7a0a093d4a30d0749224f3223a40264736f6c63430006090033",
  "immutableReferences": {},
  "source": "// SPDX-License-Identifier: SimPL-2.0\npragma solidity=0.6.9;\n\nimport './interfaces/IMiniswapMiner.sol';\nimport './libraries/TransferHelper.sol';\nimport './interfaces/IMiniswapPair.sol';\nimport './libraries/MiniswapLibrary.sol';\nimport './interfaces/IERC20.sol';\nimport './libraries/SafeMath.sol';\nimport './interfaces/IMini.sol';\n\ncontract MiniswapMiner is IMiniswapMiner{\n    using SafeMath for uint;\n    \n    address public override owner;\n    address public override feeder;\n    address public override developer;\n\n    mapping(address=>bool) public override whitelistMap;\n    mapping(uint256=>uint256) public override mineInfo; // day=>issueAmount\n    mapping(address=>uint256) private balances;\n    \n    uint256 public override minFee;\n\n    uint256 firstTxHeight;\n    address MINI;\n    mapping (uint=>mapping(address=>bool)) rewardMap;\n    mapping (uint=>uint) rewardAmountByRoundMap;\n\n    constructor(uint256 _minFee,address _mini,address _feeder,address _developer) public {\n        owner = msg.sender;\n        minFee = _minFee;\n        MINI = _mini;\n        feeder = _feeder;\n        developer = _developer;\n        firstTxHeight = block.number;\n    }\n\n    modifier isOwner(){\n        require(msg.sender == owner,\"forbidden:owner\");\n        _;\n    }\n\n    modifier isWhiteAddress(){\n        require(whitelistMap[msg.sender] == true,\"forbidden:whitelist\");\n        _;\n    }\n\n    function getToken(address token,address to) public isOwner() {\n        uint256 balance = IERC20(token).balanceOf(address(this));\n        IERC20(token).transfer(to,balance);\n    }\n\n    function changeMinFee(uint256 _minFee) override public isOwner() {\n        minFee = _minFee;\n    }\n\n    function addWhitelist(address pair) override public isOwner() {\n        whitelistMap[pair] = true;\n    }\n\n    function addWhitelistByTokens(address factory ,address token0,address token1) override public isOwner() {\n        address pair = MiniswapLibrary.pairFor(factory, token0, token1);\n        addWhitelist(pair);\n    }\n\n    function removeWhitelist(address pair) override public isOwner() {\n        whitelistMap[pair] = false;\n    }\n\n    function removeWhitelistByTokens(address factory ,address token0,address token1) override public isOwner() {\n        address pair = MiniswapLibrary.pairFor(factory, token0, token1);\n        removeWhitelist(pair);\n    }\n\n    function mining(address factory,address to,address token,uint amount) override public isWhiteAddress(){\n        TransferHelper.safeTransferFrom(token,msg.sender,address(this),amount);\n        if (token == MINI){\n            //send half of increment to address0,the other half stays in the contract\n            TransferHelper.safeTransfer(MINI,address(0x1111111111111111111111111111111111111111), amount.div(2));\n            //send half of increment to address0,the other half stays in the contract\n            TransferHelper.safeTransfer(MINI,msg.sender, amount.div(2));\n            issueMini(amount,to);\n        } else {\n         //get price from token-USDT-MINI\n            address[] memory path = new address[](2);\n            path[0] = token;\n            path[1] = MINI;\n            uint256[] memory amountsOut = MiniswapLibrary.getAmountsOut(factory,amount,path); //[tokenAmountOut,USDTAmountOut,MINIAmountOut]\n\n            uint256 issueAmount = amountsOut[1];\n            //only mine when usdtout more than minFee\n            if(issueAmount<= minFee)\n                return;\n            swapMini(factory,token,issueAmount,amount); \n            issueMini(issueAmount,to);\n        }\n    }\n    \n    function test(address factory,uint amount,address token) public view returns(uint,uint,uint){\n            address[] memory path = new address[](2);\n            path[0] = token;\n            path[1] = MINI;\n            uint256[] memory amountsOut = MiniswapLibrary.getAmountsOut(factory,amount,path); //[tokenAmountOut,USDTAmountOut,MINIAmountOut]\n\n            uint256 issueAmount = MINI==path[0]? amountsOut[0]:amountsOut[1];\n            //only mine when usdtout more than minFee\n            if(issueAmount<= minFee)\n                return (0,0,0);\n            return (amountsOut[0],amountsOut[1],issueAmount);\n    }\n\n    function test2(address pair_token_mini,uint amount0Out,uint amount1Out) public{\n                IMiniswapPair(pair_token_mini).swap(\n                amount0Out, amount1Out, address(this), new bytes(0)\n            );\n    }\n\n    function swapMini(address factory, address token,uint issueAmount,uint amount) public {\n        uint256 balance0 = IERC20(MINI).balanceOf(address(this));\n        (address token0,address token1) = MiniswapLibrary.sortTokens(token,MINI);\n        address pair_token_mini = MiniswapLibrary.pairFor(factory,token0,token1);\n        (uint amount0Out ,uint amount1Out) = token0==token ? (uint(0),issueAmount):(issueAmount,uint(0));\n        TransferHelper.safeTransfer(token,pair_token_mini,amount); //send token to pair\n        IMiniswapPair(pair_token_mini).swap(\n                amount0Out, amount1Out, address(this), new bytes(0)\n            );\n        uint miniAmount = IERC20(MINI).balanceOf(address(this)).sub(balance0);\n        //send half of increment to address0,the other half send to feeder\n        TransferHelper.safeTransfer(MINI,address(0x1111111111111111111111111111111111111111), miniAmount.div(2));\n        TransferHelper.safeTransfer(MINI,feeder, miniAmount.div(2));\n    }\n\n    function issueMini(uint256 issueAmount,address to) public{\n        ///////The 6000 block height is one day, 30 day is one month\n        uint durationDay = (block.number.sub(firstTxHeight)).div(6000);\n        uint256 issueAmountLimit = MiniswapLibrary.getIssueAmountLimit(durationDay);\n        //issue mini to liquilidity && user\n        if( mineInfo[durationDay].add(issueAmount).add(issueAmount) > issueAmountLimit){\n            issueAmount = issueAmountLimit.sub( mineInfo[durationDay]).div(2);\n        }\n        uint issueAmount_90 = issueAmount.mul(90).div(100);\n        uint issueAmount_10 = issueAmount.sub(issueAmount_90);\n        if(issueAmount > 0){\n            IMini(MINI).issueTo(to,issueAmount_90);\n            IMini(MINI).issueTo(msg.sender,issueAmount_90);\n            IMini(MINI).issueTo(developer,issueAmount_10.mul(2));\n            mineInfo[durationDay] = mineInfo[durationDay].add(issueAmount).add(issueAmount);\n        }\n    }\n}",
  "sourcePath": "/Users/yinwei/work/miniswap/contracts/MiniswapMiner.sol",
  "compiler": {
    "name": "solc",
    "version": "0.6.9+commit.3e3065ac.Emscripten.clang"
  },
  "schemaVersion": "3.2.1",
  "updatedAt": "2020-08-10T06:48:53.120Z",
  "devdoc": {
    "methods": {}
  },
  "userdoc": {
    "methods": {}
  }
}