{
  "contractName": "MiniswapRouter",
  "abi": [
    {
      "inputs": [
        {
          "internalType": "address",
          "name": "_factory",
          "type": "address"
        },
        {
          "internalType": "address",
          "name": "_mini",
          "type": "address"
        },
        {
          "internalType": "address",
          "name": "_WETH",
          "type": "address"
        }
      ],
      "stateMutability": "nonpayable",
      "type": "constructor"
    },
    {
      "inputs": [],
      "name": "MINI",
      "outputs": [
        {
          "internalType": "address",
          "name": "",
          "type": "address"
        }
      ],
      "stateMutability": "view",
      "type": "function"
    },
    {
      "inputs": [],
      "name": "WETH",
      "outputs": [
        {
          "internalType": "address",
          "name": "",
          "type": "address"
        }
      ],
      "stateMutability": "view",
      "type": "function"
    },
    {
      "inputs": [],
      "name": "factory",
      "outputs": [
        {
          "internalType": "address",
          "name": "",
          "type": "address"
        }
      ],
      "stateMutability": "view",
      "type": "function"
    },
    {
      "stateMutability": "payable",
      "type": "receive"
    },
    {
      "inputs": [
        {
          "internalType": "address",
          "name": "tokenA",
          "type": "address"
        },
        {
          "internalType": "address",
          "name": "tokenB",
          "type": "address"
        },
        {
          "internalType": "uint256",
          "name": "amountADesired",
          "type": "uint256"
        },
        {
          "internalType": "uint256",
          "name": "amountBDesired",
          "type": "uint256"
        },
        {
          "internalType": "uint256",
          "name": "amountAMin",
          "type": "uint256"
        },
        {
          "internalType": "uint256",
          "name": "amountBMin",
          "type": "uint256"
        },
        {
          "internalType": "address",
          "name": "to",
          "type": "address"
        },
        {
          "internalType": "uint256",
          "name": "deadline",
          "type": "uint256"
        }
      ],
      "name": "addLiquidity",
      "outputs": [
        {
          "internalType": "uint256",
          "name": "amountA",
          "type": "uint256"
        },
        {
          "internalType": "uint256",
          "name": "amountB",
          "type": "uint256"
        },
        {
          "internalType": "uint256",
          "name": "amountMini",
          "type": "uint256"
        },
        {
          "internalType": "uint256",
          "name": "liquidity",
          "type": "uint256"
        }
      ],
      "stateMutability": "nonpayable",
      "type": "function"
    },
    {
      "inputs": [
        {
          "internalType": "address",
          "name": "token",
          "type": "address"
        },
        {
          "internalType": "uint256",
          "name": "amountTokenDesired",
          "type": "uint256"
        },
        {
          "internalType": "uint256",
          "name": "amountTokenMin",
          "type": "uint256"
        },
        {
          "internalType": "uint256",
          "name": "amountETHMin",
          "type": "uint256"
        },
        {
          "internalType": "address",
          "name": "to",
          "type": "address"
        },
        {
          "internalType": "uint256",
          "name": "deadline",
          "type": "uint256"
        }
      ],
      "name": "addLiquidityETH",
      "outputs": [
        {
          "internalType": "uint256",
          "name": "amountToken",
          "type": "uint256"
        },
        {
          "internalType": "uint256",
          "name": "amountETH",
          "type": "uint256"
        },
        {
          "internalType": "uint256",
          "name": "amountMini",
          "type": "uint256"
        },
        {
          "internalType": "uint256",
          "name": "liquidity",
          "type": "uint256"
        }
      ],
      "stateMutability": "payable",
      "type": "function"
    },
    {
      "inputs": [
        {
          "internalType": "address",
          "name": "tokenA",
          "type": "address"
        },
        {
          "internalType": "address",
          "name": "tokenB",
          "type": "address"
        },
        {
          "internalType": "uint256",
          "name": "liquidity",
          "type": "uint256"
        },
        {
          "internalType": "uint256",
          "name": "amountAMin",
          "type": "uint256"
        },
        {
          "internalType": "uint256",
          "name": "amountBMin",
          "type": "uint256"
        },
        {
          "internalType": "address",
          "name": "to",
          "type": "address"
        },
        {
          "internalType": "uint256",
          "name": "deadline",
          "type": "uint256"
        }
      ],
      "name": "removeLiquidity",
      "outputs": [
        {
          "components": [
            {
              "internalType": "uint256",
              "name": "amountA",
              "type": "uint256"
            },
            {
              "internalType": "uint256",
              "name": "amountB",
              "type": "uint256"
            },
            {
              "internalType": "uint256",
              "name": "amountMini",
              "type": "uint256"
            }
          ],
          "internalType": "struct IMiniswapRouter.AmountInfo",
          "name": "amountInfo",
          "type": "tuple"
        }
      ],
      "stateMutability": "nonpayable",
      "type": "function"
    },
    {
      "inputs": [
        {
          "internalType": "address",
          "name": "token",
          "type": "address"
        },
        {
          "internalType": "uint256",
          "name": "liquidity",
          "type": "uint256"
        },
        {
          "internalType": "uint256",
          "name": "amountTokenMin",
          "type": "uint256"
        },
        {
          "internalType": "uint256",
          "name": "amountETHMin",
          "type": "uint256"
        },
        {
          "internalType": "address",
          "name": "to",
          "type": "address"
        },
        {
          "internalType": "uint256",
          "name": "deadline",
          "type": "uint256"
        }
      ],
      "name": "removeLiquidityETH",
      "outputs": [
        {
          "components": [
            {
              "internalType": "uint256",
              "name": "amountA",
              "type": "uint256"
            },
            {
              "internalType": "uint256",
              "name": "amountB",
              "type": "uint256"
            },
            {
              "internalType": "uint256",
              "name": "amountMini",
              "type": "uint256"
            }
          ],
          "internalType": "struct IMiniswapRouter.AmountInfo",
          "name": "amountInfo",
          "type": "tuple"
        }
      ],
      "stateMutability": "nonpayable",
      "type": "function"
    },
    {
      "inputs": [
        {
          "internalType": "address",
          "name": "tokenA",
          "type": "address"
        },
        {
          "internalType": "address",
          "name": "tokenB",
          "type": "address"
        },
        {
          "internalType": "uint256",
          "name": "liquidity",
          "type": "uint256"
        },
        {
          "internalType": "uint256",
          "name": "amountAMin",
          "type": "uint256"
        },
        {
          "internalType": "uint256",
          "name": "amountBMin",
          "type": "uint256"
        },
        {
          "internalType": "address",
          "name": "to",
          "type": "address"
        },
        {
          "internalType": "uint256",
          "name": "deadline",
          "type": "uint256"
        },
        {
          "internalType": "bool",
          "name": "approveMax",
          "type": "bool"
        },
        {
          "internalType": "uint8",
          "name": "v",
          "type": "uint8"
        },
        {
          "internalType": "bytes32",
          "name": "r",
          "type": "bytes32"
        },
        {
          "internalType": "bytes32",
          "name": "s",
          "type": "bytes32"
        }
      ],
      "name": "removeLiquidityWithPermit",
      "outputs": [
        {
          "components": [
            {
              "internalType": "uint256",
              "name": "amountA",
              "type": "uint256"
            },
            {
              "internalType": "uint256",
              "name": "amountB",
              "type": "uint256"
            },
            {
              "internalType": "uint256",
              "name": "amountMini",
              "type": "uint256"
            }
          ],
          "internalType": "struct IMiniswapRouter.AmountInfo",
          "name": "amountInfo",
          "type": "tuple"
        }
      ],
      "stateMutability": "nonpayable",
      "type": "function"
    },
    {
      "inputs": [
        {
          "internalType": "address",
          "name": "token",
          "type": "address"
        },
        {
          "internalType": "uint256",
          "name": "liquidity",
          "type": "uint256"
        },
        {
          "internalType": "uint256",
          "name": "amountTokenMin",
          "type": "uint256"
        },
        {
          "internalType": "uint256",
          "name": "amountETHMin",
          "type": "uint256"
        },
        {
          "internalType": "address",
          "name": "to",
          "type": "address"
        },
        {
          "internalType": "uint256",
          "name": "deadline",
          "type": "uint256"
        },
        {
          "internalType": "bool",
          "name": "approveMax",
          "type": "bool"
        },
        {
          "internalType": "uint8",
          "name": "v",
          "type": "uint8"
        },
        {
          "internalType": "bytes32",
          "name": "r",
          "type": "bytes32"
        },
        {
          "internalType": "bytes32",
          "name": "s",
          "type": "bytes32"
        }
      ],
      "name": "removeLiquidityETHWithPermit",
      "outputs": [
        {
          "components": [
            {
              "internalType": "uint256",
              "name": "amountA",
              "type": "uint256"
            },
            {
              "internalType": "uint256",
              "name": "amountB",
              "type": "uint256"
            },
            {
              "internalType": "uint256",
              "name": "amountMini",
              "type": "uint256"
            }
          ],
          "internalType": "struct IMiniswapRouter.AmountInfo",
          "name": "amountInfo",
          "type": "tuple"
        }
      ],
      "stateMutability": "nonpayable",
      "type": "function"
    },
    {
      "inputs": [
        {
          "internalType": "address",
          "name": "token",
          "type": "address"
        },
        {
          "internalType": "uint256",
          "name": "liquidity",
          "type": "uint256"
        },
        {
          "internalType": "uint256",
          "name": "amountTokenMin",
          "type": "uint256"
        },
        {
          "internalType": "uint256",
          "name": "amountETHMin",
          "type": "uint256"
        },
        {
          "internalType": "address",
          "name": "to",
          "type": "address"
        },
        {
          "internalType": "uint256",
          "name": "deadline",
          "type": "uint256"
        }
      ],
      "name": "removeLiquidityETHSupportingFeeOnTransferTokens",
      "outputs": [
        {
          "components": [
            {
              "internalType": "uint256",
              "name": "amountA",
              "type": "uint256"
            },
            {
              "internalType": "uint256",
              "name": "amountB",
              "type": "uint256"
            },
            {
              "internalType": "uint256",
              "name": "amountMini",
              "type": "uint256"
            }
          ],
          "internalType": "struct IMiniswapRouter.AmountInfo",
          "name": "amountInfo",
          "type": "tuple"
        }
      ],
      "stateMutability": "nonpayable",
      "type": "function"
    },
    {
      "inputs": [
        {
          "internalType": "address",
          "name": "token",
          "type": "address"
        },
        {
          "internalType": "uint256",
          "name": "liquidity",
          "type": "uint256"
        },
        {
          "internalType": "uint256",
          "name": "amountTokenMin",
          "type": "uint256"
        },
        {
          "internalType": "uint256",
          "name": "amountETHMin",
          "type": "uint256"
        },
        {
          "internalType": "address",
          "name": "to",
          "type": "address"
        },
        {
          "internalType": "uint256",
          "name": "deadline",
          "type": "uint256"
        },
        {
          "internalType": "bool",
          "name": "approveMax",
          "type": "bool"
        },
        {
          "internalType": "uint8",
          "name": "v",
          "type": "uint8"
        },
        {
          "internalType": "bytes32",
          "name": "r",
          "type": "bytes32"
        },
        {
          "internalType": "bytes32",
          "name": "s",
          "type": "bytes32"
        }
      ],
      "name": "removeLiquidityETHWithPermitSupportingFeeOnTransferTokens",
      "outputs": [
        {
          "components": [
            {
              "internalType": "uint256",
              "name": "amountA",
              "type": "uint256"
            },
            {
              "internalType": "uint256",
              "name": "amountB",
              "type": "uint256"
            },
            {
              "internalType": "uint256",
              "name": "amountMini",
              "type": "uint256"
            }
          ],
          "internalType": "struct IMiniswapRouter.AmountInfo",
          "name": "amountInfo",
          "type": "tuple"
        }
      ],
      "stateMutability": "nonpayable",
      "type": "function"
    },
    {
      "inputs": [
        {
          "internalType": "uint256",
          "name": "amountIn",
          "type": "uint256"
        },
        {
          "internalType": "uint256",
          "name": "amountOutMin",
          "type": "uint256"
        },
        {
          "internalType": "address[]",
          "name": "path",
          "type": "address[]"
        },
        {
          "internalType": "address",
          "name": "to",
          "type": "address"
        },
        {
          "internalType": "uint256",
          "name": "deadline",
          "type": "uint256"
        }
      ],
      "name": "swapExactTokensForTokens",
      "outputs": [
        {
          "internalType": "uint256[]",
          "name": "amounts",
          "type": "uint256[]"
        }
      ],
      "stateMutability": "nonpayable",
      "type": "function"
    },
    {
      "inputs": [
        {
          "internalType": "uint256",
          "name": "amountOut",
          "type": "uint256"
        },
        {
          "internalType": "uint256",
          "name": "amountInMax",
          "type": "uint256"
        },
        {
          "internalType": "address[]",
          "name": "path",
          "type": "address[]"
        },
        {
          "internalType": "address",
          "name": "to",
          "type": "address"
        },
        {
          "internalType": "uint256",
          "name": "deadline",
          "type": "uint256"
        }
      ],
      "name": "swapTokensForExactTokens",
      "outputs": [
        {
          "internalType": "uint256[]",
          "name": "amounts",
          "type": "uint256[]"
        }
      ],
      "stateMutability": "nonpayable",
      "type": "function"
    },
    {
      "inputs": [
        {
          "internalType": "uint256",
          "name": "amountOutMin",
          "type": "uint256"
        },
        {
          "internalType": "address[]",
          "name": "path",
          "type": "address[]"
        },
        {
          "internalType": "address",
          "name": "to",
          "type": "address"
        },
        {
          "internalType": "uint256",
          "name": "deadline",
          "type": "uint256"
        }
      ],
      "name": "swapExactETHForTokens",
      "outputs": [
        {
          "internalType": "uint256[]",
          "name": "amounts",
          "type": "uint256[]"
        }
      ],
      "stateMutability": "payable",
      "type": "function"
    },
    {
      "inputs": [
        {
          "internalType": "uint256",
          "name": "amountOut",
          "type": "uint256"
        },
        {
          "internalType": "uint256",
          "name": "amountInMax",
          "type": "uint256"
        },
        {
          "internalType": "address[]",
          "name": "path",
          "type": "address[]"
        },
        {
          "internalType": "address",
          "name": "to",
          "type": "address"
        },
        {
          "internalType": "uint256",
          "name": "deadline",
          "type": "uint256"
        }
      ],
      "name": "swapTokensForExactETH",
      "outputs": [
        {
          "internalType": "uint256[]",
          "name": "amounts",
          "type": "uint256[]"
        }
      ],
      "stateMutability": "nonpayable",
      "type": "function"
    },
    {
      "inputs": [
        {
          "internalType": "uint256",
          "name": "amountIn",
          "type": "uint256"
        },
        {
          "internalType": "uint256",
          "name": "amountOutMin",
          "type": "uint256"
        },
        {
          "internalType": "address[]",
          "name": "path",
          "type": "address[]"
        },
        {
          "internalType": "address",
          "name": "to",
          "type": "address"
        },
        {
          "internalType": "uint256",
          "name": "deadline",
          "type": "uint256"
        }
      ],
      "name": "swapExactTokensForETH",
      "outputs": [
        {
          "internalType": "uint256[]",
          "name": "amounts",
          "type": "uint256[]"
        }
      ],
      "stateMutability": "nonpayable",
      "type": "function"
    },
    {
      "inputs": [
        {
          "internalType": "uint256",
          "name": "amountOut",
          "type": "uint256"
        },
        {
          "internalType": "address[]",
          "name": "path",
          "type": "address[]"
        },
        {
          "internalType": "address",
          "name": "to",
          "type": "address"
        },
        {
          "internalType": "uint256",
          "name": "deadline",
          "type": "uint256"
        }
      ],
      "name": "swapETHForExactTokens",
      "outputs": [
        {
          "internalType": "uint256[]",
          "name": "amounts",
          "type": "uint256[]"
        }
      ],
      "stateMutability": "payable",
      "type": "function"
    },
    {
      "inputs": [
        {
          "internalType": "uint256",
          "name": "amountIn",
          "type": "uint256"
        },
        {
          "internalType": "uint256",
          "name": "amountOutMin",
          "type": "uint256"
        },
        {
          "internalType": "address[]",
          "name": "path",
          "type": "address[]"
        },
        {
          "internalType": "address",
          "name": "to",
          "type": "address"
        },
        {
          "internalType": "uint256",
          "name": "deadline",
          "type": "uint256"
        }
      ],
      "name": "swapExactTokensForTokensSupportingFeeOnTransferTokens",
      "outputs": [],
      "stateMutability": "nonpayable",
      "type": "function"
    },
    {
      "inputs": [
        {
          "internalType": "uint256",
          "name": "amountOutMin",
          "type": "uint256"
        },
        {
          "internalType": "address[]",
          "name": "path",
          "type": "address[]"
        },
        {
          "internalType": "address",
          "name": "to",
          "type": "address"
        },
        {
          "internalType": "uint256",
          "name": "deadline",
          "type": "uint256"
        }
      ],
      "name": "swapExactETHForTokensSupportingFeeOnTransferTokens",
      "outputs": [],
      "stateMutability": "payable",
      "type": "function"
    },
    {
      "inputs": [
        {
          "internalType": "uint256",
          "name": "amountIn",
          "type": "uint256"
        },
        {
          "internalType": "uint256",
          "name": "amountOutMin",
          "type": "uint256"
        },
        {
          "internalType": "address[]",
          "name": "path",
          "type": "address[]"
        },
        {
          "internalType": "address",
          "name": "to",
          "type": "address"
        },
        {
          "internalType": "uint256",
          "name": "deadline",
          "type": "uint256"
        }
      ],
      "name": "swapExactTokensForETHSupportingFeeOnTransferTokens",
      "outputs": [],
      "stateMutability": "nonpayable",
      "type": "function"
    },
    {
      "inputs": [
        {
          "internalType": "uint256",
          "name": "amountA",
          "type": "uint256"
        },
        {
          "internalType": "uint256",
          "name": "reserveA",
          "type": "uint256"
        },
        {
          "internalType": "uint256",
          "name": "reserveB",
          "type": "uint256"
        }
      ],
      "name": "quote",
      "outputs": [
        {
          "internalType": "uint256",
          "name": "amountB",
          "type": "uint256"
        }
      ],
      "stateMutability": "pure",
      "type": "function"
    },
    {
      "inputs": [
        {
          "internalType": "uint256",
          "name": "amountIn",
          "type": "uint256"
        },
        {
          "internalType": "uint256",
          "name": "reserveIn",
          "type": "uint256"
        },
        {
          "internalType": "uint256",
          "name": "reserveOut",
          "type": "uint256"
        }
      ],
      "name": "getAmountOut",
      "outputs": [
        {
          "internalType": "uint256",
          "name": "amountOut",
          "type": "uint256"
        }
      ],
      "stateMutability": "pure",
      "type": "function"
    },
    {
      "inputs": [
        {
          "internalType": "uint256",
          "name": "amountOut",
          "type": "uint256"
        },
        {
          "internalType": "uint256",
          "name": "reserveIn",
          "type": "uint256"
        },
        {
          "internalType": "uint256",
          "name": "reserveOut",
          "type": "uint256"
        }
      ],
      "name": "getAmountIn",
      "outputs": [
        {
          "internalType": "uint256",
          "name": "amountIn",
          "type": "uint256"
        }
      ],
      "stateMutability": "pure",
      "type": "function"
    },
    {
      "inputs": [
        {
          "internalType": "uint256",
          "name": "amountIn",
          "type": "uint256"
        },
        {
          "internalType": "address[]",
          "name": "path",
          "type": "address[]"
        }
      ],
      "name": "getAmountsOut",
      "outputs": [
        {
          "internalType": "uint256[]",
          "name": "amounts",
          "type": "uint256[]"
        }
      ],
      "stateMutability": "view",
      "type": "function"
    },
    {
      "inputs": [
        {
          "internalType": "uint256",
          "name": "amountOut",
          "type": "uint256"
        },
        {
          "internalType": "address[]",
          "name": "path",
          "type": "address[]"
        }
      ],
      "name": "getAmountsIn",
      "outputs": [
        {
          "internalType": "uint256[]",
          "name": "amounts",
          "type": "uint256[]"
        }
      ],
      "stateMutability": "view",
      "type": "function"
    }
  ],
  "bytecode": "0x60e06040523480156200001157600080fd5b50604051620042563803806200425683398101604081905262000034916200005c565b6001600160601b0319606093841b811660805291831b821660c05290911b1660a052620000c8565b60008060006060848603121562000071578283fd5b83516200007e81620000af565b60208501519093506200009181620000af565b6040850151909250620000a481620000af565b809150509250925092565b6001600160a01b0381168114620000c557600080fd5b50565b60805160601c60a05160601c60c05160601c61404a6200020c600039806105c75280610af95280611d485280611ebc52508061017a52806104f8528061054e528061063e528061082e5280610b485280610c785280610fc15280611094528061115252806111e852806112f15280611379528061157052806115ce52806116a25280611719528061178d5280611c0e5280611e2d5280611e855280611ee55280611f6b52806120c552806121cb52806122535250806106ae528061076b52806108e952806109275280610a165280610bb85280610c565280610d87528061125d52806113ab52806114df52806117bf52806119c85280611b8e5280611bb75280611bec5280611d035280611e63528061213a5280612285528061291052806129535280612b7c5280612ce45280612f7a528061303c52806130d1525061404a6000f3fe60806040526004361061016a5760003560e01c806385f8c259116100d1578063baa2abde1161008a578063ded9382a11610064578063ded9382a1461044a578063e8e337001461046a578063f305d7191461049a578063fb3bdb41146104ad576101a3565b8063baa2abde146103f5578063c45a015514610415578063d06ca61f1461042a576101a3565b806385f8c2591461034d5780638803dbee1461036d578063ad5c46481461038d578063ad615dec146103a2578063af2979eb146103c2578063b6f9de95146103e2576101a3565b80633f190c70116101235780633f190c70146102985780634a25d94a146102ba5780635b0d5984146102da5780635c11d795146102fa578063791ac9471461031a5780637ff36ab51461033a576101a3565b806302751cec146101a8578063054d50d4146101de57806318cbafe51461020b5780631f00ca74146102385780632195995c1461025857806338ed173914610278576101a3565b366101a357336001600160a01b037f000000000000000000000000000000000000000000000000000000000000000016146101a157fe5b005b600080fd5b3480156101b457600080fd5b506101c86101c3366004613584565b6104c0565b6040516101d59190613ee6565b60405180910390f35b3480156101ea57600080fd5b506101fe6101f9366004613898565b6105fc565b6040516101d59190613f07565b34801561021757600080fd5b5061022b610226366004613827565b610611565b6040516101d59190613a35565b34801561024457600080fd5b5061022b610253366004613770565b6108e2565b34801561026457600080fd5b506101c861027336600461345f565b610918565b34801561028457600080fd5b5061022b610293366004613827565b6109ee565b3480156102a457600080fd5b506102ad610af7565b6040516101d59190613989565b3480156102c657600080fd5b5061022b6102d5366004613827565b610b1b565b3480156102e657600080fd5b506101c86102f53660046135e1565b610c47565b34801561030657600080fd5b506101a1610315366004613827565b610d3b565b34801561032657600080fd5b506101a1610335366004613827565b610f96565b61022b61034836600461370b565b6111c3565b34801561035957600080fd5b506101fe610368366004613898565b6114aa565b34801561037957600080fd5b5061022b610388366004613827565b6114b7565b34801561039957600080fd5b506102ad61156e565b3480156103ae57600080fd5b506101fe6103bd366004613898565b611592565b3480156103ce57600080fd5b506101c86103dd366004613584565b61159f565b6101a16103f036600461370b565b61167f565b34801561040157600080fd5b506101c86104103660046133ee565b611998565b34801561042157600080fd5b506102ad611b8c565b34801561043657600080fd5b5061022b610445366004613770565b611bb0565b34801561045657600080fd5b506101c86104653660046135e1565b611bdd565b34801561047657600080fd5b5061048a610485366004613509565b611cc0565b6040516101d59493929190613f60565b61048a6104a8366004613584565b611e00565b61022b6104bb36600461370b565b6120a0565b6104c8613319565b81428110156104f25760405162461bcd60e51b81526004016104e990613a79565b60405180910390fd5b610521887f00000000000000000000000000000000000000000000000000000000000000008989893089611998565b9150610532888584600001516123b6565b6020820151604051632e1a7d4d60e01b81526001600160a01b037f00000000000000000000000000000000000000000000000000000000000000001691632e1a7d4d916105829190600401613f07565b600060405180830381600087803b15801561059c57600080fd5b505af11580156105b0573d6000803e3d6000fd5b505050506105c28483602001516124a4565b6105f17f00000000000000000000000000000000000000000000000000000000000000008584604001516123b6565b509695505050505050565b6000610609848484612536565b949350505050565b606081428110156106345760405162461bcd60e51b81526004016104e990613a79565b6001600160a01b037f0000000000000000000000000000000000000000000000000000000000000000168686600019810181811061066e57fe5b905060200201602081019061068391906133af565b6001600160a01b0316146106a95760405162461bcd60e51b81526004016104e990613daa565b6107077f0000000000000000000000000000000000000000000000000000000000000000898888808060200260200160405190810160405280939291908181526020018383602002808284376000920191909152506125e892505050565b9150868260018451038151811061071a57fe5b602002602001015110156107405760405162461bcd60e51b81526004016104e990613d2a565b6107ed8686600081811061075057fe5b905060200201602081019061076591906133af565b336107d37f00000000000000000000000000000000000000000000000000000000000000008a8a600081811061079757fe5b90506020020160208101906107ac91906133af565b8b8b60018181106107b957fe5b90506020020160208101906107ce91906133af565b612700565b856000815181106107e057fe5b6020026020010151612770565b61082c82878780806020026020016040519081016040528093929190818152602001838360200280828437600092019190915250309250612861915050565b7f00000000000000000000000000000000000000000000000000000000000000006001600160a01b0316632e1a7d4d8360018551038151811061086b57fe5b60200260200101516040518263ffffffff1660e01b815260040161088f9190613f07565b600060405180830381600087803b1580156108a957600080fd5b505af11580156108bd573d6000803e3d6000fd5b505050506105f184836001855103815181106108d557fe5b60200260200101516124a4565b606061090f7f00000000000000000000000000000000000000000000000000000000000000008484612a21565b90505b92915050565b610920613319565b600061094d7f00000000000000000000000000000000000000000000000000000000000000008e8e612700565b905060008661095c578b610960565b6000195b60405163d505accf60e01b81529091506001600160a01b0383169063d505accf9061099b903390309086908e908d908d908d9060040161399d565b600060405180830381600087803b1580156109b557600080fd5b505af11580156109c9573d6000803e3d6000fd5b505050506109dc8e8e8e8e8e8e8e611998565b9e9d5050505050505050505050505050565b60608142811015610a115760405162461bcd60e51b81526004016104e990613a79565b610a6f7f0000000000000000000000000000000000000000000000000000000000000000898888808060200260200160405190810160405280939291908181526020018383602002808284376000920191909152506125e892505050565b91508682600184510381518110610a8257fe5b60200260200101511015610aa85760405162461bcd60e51b81526004016104e990613d2a565b610ab88686600081811061075057fe5b6105f182878780806020026020016040519081016040528093929190818152602001838360200280828437600092019190915250899250612861915050565b7f000000000000000000000000000000000000000000000000000000000000000081565b60608142811015610b3e5760405162461bcd60e51b81526004016104e990613a79565b6001600160a01b037f00000000000000000000000000000000000000000000000000000000000000001686866000198101818110610b7857fe5b9050602002016020810190610b8d91906133af565b6001600160a01b031614610bb35760405162461bcd60e51b81526004016104e990613daa565b610c117f000000000000000000000000000000000000000000000000000000000000000089888880806020026020016040519081016040528093929190818152602001838360200280828437600092019190915250612a2192505050565b91508682600081518110610c2157fe5b602002602001015111156107405760405162461bcd60e51b81526004016104e990613c64565b610c4f613319565b6000610c9c7f00000000000000000000000000000000000000000000000000000000000000008d7f0000000000000000000000000000000000000000000000000000000000000000612700565b9050600086610cab578b610caf565b6000195b60405163d505accf60e01b81529091506001600160a01b0383169063d505accf90610cea903390309086908e908d908d908d9060040161399d565b600060405180830381600087803b158015610d0457600080fd5b505af1158015610d18573d6000803e3d6000fd5b50505050610d2a8d8d8d8d8d8d61159f565b9d9c50505050505050505050505050565b8042811015610d5c5760405162461bcd60e51b81526004016104e990613a79565b610ddb85856000818110610d6c57fe5b9050602002016020810190610d8191906133af565b33610dd57f000000000000000000000000000000000000000000000000000000000000000089896000818110610db357fe5b9050602002016020810190610dc891906133af565b8a8a60018181106107b957fe5b8a612770565b600085856000198101818110610ded57fe5b9050602002016020810190610e0291906133af565b6001600160a01b03166370a08231856040518263ffffffff1660e01b8152600401610e2d9190613989565b60206040518083038186803b158015610e4557600080fd5b505afa158015610e59573d6000803e3d6000fd5b505050506040513d601f19601f82011682018060405250810190610e7d91906136f3565b9050610ebd868680806020026020016040519081016040528093929190818152602001838360200280828437600092019190915250889250612b25915050565b86610f6e8288886000198101818110610ed257fe5b9050602002016020810190610ee791906133af565b6001600160a01b03166370a08231886040518263ffffffff1660e01b8152600401610f129190613989565b60206040518083038186803b158015610f2a57600080fd5b505afa158015610f3e573d6000803e3d6000fd5b505050506040513d601f19601f82011682018060405250810190610f6291906136f3565b9063ffffffff612d9c16565b1015610f8c5760405162461bcd60e51b81526004016104e990613d2a565b5050505050505050565b8042811015610fb75760405162461bcd60e51b81526004016104e990613a79565b6001600160a01b037f00000000000000000000000000000000000000000000000000000000000000001685856000198101818110610ff157fe5b905060200201602081019061100691906133af565b6001600160a01b03161461102c5760405162461bcd60e51b81526004016104e990613daa565b61103c85856000818110610d6c57fe5b61107a858580806020026020016040519081016040528093929190818152602001838360200280828437600092019190915250309250612b25915050565b6040516370a0823160e01b81526000906001600160a01b037f000000000000000000000000000000000000000000000000000000000000000016906370a08231906110c9903090600401613989565b60206040518083038186803b1580156110e157600080fd5b505afa1580156110f5573d6000803e3d6000fd5b505050506040513d601f19601f8201168201806040525081019061111991906136f3565b90508681101561113b5760405162461bcd60e51b81526004016104e990613d2a565b604051632e1a7d4d60e01b81526001600160a01b037f00000000000000000000000000000000000000000000000000000000000000001690632e1a7d4d90611187908490600401613f07565b600060405180830381600087803b1580156111a157600080fd5b505af11580156111b5573d6000803e3d6000fd5b50505050610f8c84826124a4565b606081428110156111e65760405162461bcd60e51b81526004016104e990613a79565b7f00000000000000000000000000000000000000000000000000000000000000006001600160a01b03168686600081811061121d57fe5b905060200201602081019061123291906133af565b6001600160a01b0316146112585760405162461bcd60e51b81526004016104e990613daa565b6112b67f0000000000000000000000000000000000000000000000000000000000000000348888808060200260200160405190810160405280939291908181526020018383602002808284376000920191909152506125e892505050565b915086826001845103815181106112c957fe5b602002602001015110156112ef5760405162461bcd60e51b81526004016104e990613d2a565b7f00000000000000000000000000000000000000000000000000000000000000006001600160a01b031663d0e30db08360008151811061132b57fe5b60200260200101516040518263ffffffff1660e01b81526004016000604051808303818588803b15801561135e57600080fd5b505af1158015611372573d6000803e3d6000fd5b50505050507f00000000000000000000000000000000000000000000000000000000000000006001600160a01b031663a9059cbb6113d77f000000000000000000000000000000000000000000000000000000000000000089896000818110610db357fe5b846000815181106113e457fe5b60200260200101516040518363ffffffff1660e01b8152600401611409929190613a1c565b602060405180830381600087803b15801561142357600080fd5b505af1158015611437573d6000803e3d6000fd5b505050506040513d601f19601f8201168201806040525081019061145b9190613677565b61146157fe5b6114a082878780806020026020016040519081016040528093929190818152602001838360200280828437600092019190915250899250612861915050565b5095945050505050565b6000610609848484612dbf565b606081428110156114da5760405162461bcd60e51b81526004016104e990613a79565b6115387f000000000000000000000000000000000000000000000000000000000000000089888880806020026020016040519081016040528093929190818152602001838360200280828437600092019190915250612a2192505050565b9150868260008151811061154857fe5b60200260200101511115610aa85760405162461bcd60e51b81526004016104e990613c64565b7f000000000000000000000000000000000000000000000000000000000000000081565b6000610609848484612e71565b6115a7613319565b81428110156115c85760405162461bcd60e51b81526004016104e990613a79565b6115f7887f00000000000000000000000000000000000000000000000000000000000000008989893089611998565b915061053288858a6001600160a01b03166370a08231306040518263ffffffff1660e01b815260040161162a9190613989565b60206040518083038186803b15801561164257600080fd5b505afa158015611656573d6000803e3d6000fd5b505050506040513d601f19601f8201168201806040525081019061167a91906136f3565b6123b6565b80428110156116a05760405162461bcd60e51b81526004016104e990613a79565b7f00000000000000000000000000000000000000000000000000000000000000006001600160a01b0316858560008181106116d757fe5b90506020020160208101906116ec91906133af565b6001600160a01b0316146117125760405162461bcd60e51b81526004016104e990613daa565b60003490507f00000000000000000000000000000000000000000000000000000000000000006001600160a01b031663d0e30db0826040518263ffffffff1660e01b81526004016000604051808303818588803b15801561177257600080fd5b505af1158015611786573d6000803e3d6000fd5b50505050507f00000000000000000000000000000000000000000000000000000000000000006001600160a01b031663a9059cbb6117eb7f000000000000000000000000000000000000000000000000000000000000000089896000818110610db357fe5b836040518363ffffffff1660e01b8152600401611809929190613a1c565b602060405180830381600087803b15801561182357600080fd5b505af1158015611837573d6000803e3d6000fd5b505050506040513d601f19601f8201168201806040525081019061185b9190613677565b61186157fe5b60008686600019810181811061187357fe5b905060200201602081019061188891906133af565b6001600160a01b03166370a08231866040518263ffffffff1660e01b81526004016118b39190613989565b60206040518083038186803b1580156118cb57600080fd5b505afa1580156118df573d6000803e3d6000fd5b505050506040513d601f19601f8201168201806040525081019061190391906136f3565b9050611943878780806020026020016040519081016040528093929190818152602001838360200280828437600092019190915250899250612b25915050565b87610f6e828989600019810181811061195857fe5b905060200201602081019061196d91906133af565b6001600160a01b03166370a08231896040518263ffffffff1660e01b8152600401610f129190613989565b6119a0613319565b81428110156119c15760405162461bcd60e51b81526004016104e990613a79565b60006119ee7f00000000000000000000000000000000000000000000000000000000000000008b8b612700565b6040516323b872dd60e01b81529091506001600160a01b038216906323b872dd90611a2190339085908d906004016139de565b602060405180830381600087803b158015611a3b57600080fd5b505af1158015611a4f573d6000803e3d6000fd5b505050506040513d601f19601f82011682018060405250810190611a739190613677565b506000806000836001600160a01b03166389afcb44896040518263ffffffff1660e01b8152600401611aa59190613989565b606060405180830381600087803b158015611abf57600080fd5b505af1158015611ad3573d6000803e3d6000fd5b505050506040513d601f19601f82011682018060405250810190611af791906138c3565b9250925092506000611b098e8e612edf565b506040880183905290506001600160a01b038e811690821614611b2d578284611b30565b83835b60208901528088528b1115611b575760405162461bcd60e51b81526004016104e990613e68565b8987602001511015611b7b5760405162461bcd60e51b81526004016104e990613cac565b505050505050979650505050505050565b7f000000000000000000000000000000000000000000000000000000000000000081565b606061090f7f000000000000000000000000000000000000000000000000000000000000000084846125e8565b611be5613319565b6000611c327f00000000000000000000000000000000000000000000000000000000000000008d7f0000000000000000000000000000000000000000000000000000000000000000612700565b9050600086611c41578b611c45565b6000195b60405163d505accf60e01b81529091506001600160a01b0383169063d505accf90611c80903390309086908e908d908d908d9060040161399d565b600060405180830381600087803b158015611c9a57600080fd5b505af1158015611cae573d6000803e3d6000fd5b50505050610d2a8d8d8d8d8d8d6104c0565b6000806000808442811015611ce75760405162461bcd60e51b81526004016104e990613a79565b611cf58d8d8d8d8d8d612f69565b919650945092506000611d297f00000000000000000000000000000000000000000000000000000000000000008f8f612700565b9050611d378e338389612770565b611d438d338388612770565b611d6f7f0000000000000000000000000000000000000000000000000000000000000000338387612770565b6040516335313c2160e11b81526001600160a01b03821690636a62784290611d9b908b90600401613989565b602060405180830381600087803b158015611db557600080fd5b505af1158015611dc9573d6000803e3d6000fd5b505050506040513d601f19601f82011682018060405250810190611ded91906136f3565b9250505098509850985098945050505050565b6000806000808442811015611e275760405162461bcd60e51b81526004016104e990613a79565b611e558b7f00000000000000000000000000000000000000000000000000000000000000008c348d8d612f69565b919650945092506000611ea97f00000000000000000000000000000000000000000000000000000000000000008d7f0000000000000000000000000000000000000000000000000000000000000000612700565b9050611eb78c338389612770565b611ee37f0000000000000000000000000000000000000000000000000000000000000000338387612770565b7f00000000000000000000000000000000000000000000000000000000000000006001600160a01b031663d0e30db0866040518263ffffffff1660e01b81526004016000604051808303818588803b158015611f3e57600080fd5b505af1158015611f52573d6000803e3d6000fd5b505060405163a9059cbb60e01b81526001600160a01b037f000000000000000000000000000000000000000000000000000000000000000016935063a9059cbb9250611fa5915084908990600401613a1c565b602060405180830381600087803b158015611fbf57600080fd5b505af1158015611fd3573d6000803e3d6000fd5b505050506040513d601f19601f82011682018060405250810190611ff79190613677565b611ffd57fe5b6040516335313c2160e11b81526001600160a01b03821690636a62784290612029908b90600401613989565b602060405180830381600087803b15801561204357600080fd5b505af1158015612057573d6000803e3d6000fd5b505050506040513d601f19601f8201168201806040525081019061207b91906136f3565b92508434111561209157612091338634036124a4565b50509650965096509692505050565b606081428110156120c35760405162461bcd60e51b81526004016104e990613a79565b7f00000000000000000000000000000000000000000000000000000000000000006001600160a01b0316868660008181106120fa57fe5b905060200201602081019061210f91906133af565b6001600160a01b0316146121355760405162461bcd60e51b81526004016104e990613daa565b6121937f000000000000000000000000000000000000000000000000000000000000000088888880806020026020016040519081016040528093929190818152602001838360200280828437600092019190915250612a2192505050565b915034826000815181106121a357fe5b602002602001015111156121c95760405162461bcd60e51b81526004016104e990613c64565b7f00000000000000000000000000000000000000000000000000000000000000006001600160a01b031663d0e30db08360008151811061220557fe5b60200260200101516040518263ffffffff1660e01b81526004016000604051808303818588803b15801561223857600080fd5b505af115801561224c573d6000803e3d6000fd5b50505050507f00000000000000000000000000000000000000000000000000000000000000006001600160a01b031663a9059cbb6122b17f000000000000000000000000000000000000000000000000000000000000000089896000818110610db357fe5b846000815181106122be57fe5b60200260200101516040518363ffffffff1660e01b81526004016122e3929190613a1c565b602060405180830381600087803b1580156122fd57600080fd5b505af1158015612311573d6000803e3d6000fd5b505050506040513d601f19601f820116820180604052508101906123359190613677565b61233b57fe5b61237a82878780806020026020016040519081016040528093929190818152602001838360200280828437600092019190915250899250612861915050565b8160008151811061238757fe5b60200260200101513411156114a0576114a033836000815181106123a757fe5b602002602001015134036124a4565b60006060846001600160a01b031663a9059cbb85856040516024016123dc929190613a1c565b6040516020818303038152906040529060e01b6020820180516001600160e01b0383818316178352505050506040516124159190613917565b6000604051808303816000865af19150503d8060008114612452576040519150601f19603f3d011682016040523d82523d6000602084013e612457565b606091505b50915091508180156124815750805115806124815750808060200190518101906124819190613677565b61249d5760405162461bcd60e51b81526004016104e990613adf565b5050505050565b604080516000808252602082019092526001600160a01b0384169083906040516124ce9190613917565b60006040518083038185875af1925050503d806000811461250b576040519150601f19603f3d011682016040523d82523d6000602084013e612510565b606091505b50509050806125315760405162461bcd60e51b81526004016104e990613de1565b505050565b60008084116125575760405162461bcd60e51b81526004016104e990613b88565b6000831180156125675750600082115b6125835760405162461bcd60e51b81526004016104e990613eaf565b6000612597856103e563ffffffff6131d516565b905060006125ab828563ffffffff6131d516565b905060006125d1836125c5886103e863ffffffff6131d516565b9063ffffffff61320c16565b90508082816125dc57fe5b04979650505050505050565b606060028251101561260c5760405162461bcd60e51b81526004016104e990613b51565b815167ffffffffffffffff8111801561262457600080fd5b5060405190808252806020026020018201604052801561264e578160200160208202803683370190505b509050828160008151811061265f57fe5b60200260200101818152505060005b60018351038110156126f8576000806126b18786858151811061268d57fe5b60200260200101518786600101815181106126a457fe5b602002602001015161322f565b50915091506126d48484815181106126c557fe5b60200260200101518383612536565b8484600101815181106126e357fe5b6020908102919091010152505060010161266e565b509392505050565b600080600061270f8585612edf565b915091508582826040516020016127279291906138f0565b6040516020818303038152906040528051906020012060405160200161274e929190613933565b60408051601f1981840301815291905280516020909101209695505050505050565b60006060856001600160a01b03166323b872dd868686604051602401612798939291906139de565b6040516020818303038152906040529060e01b6020820180516001600160e01b0383818316178352505050506040516127d19190613917565b6000604051808303816000865af19150503d806000811461280e576040519150601f19603f3d011682016040523d82523d6000602084013e612813565b606091505b509150915081801561283d57508051158061283d57508080602001905181019061283d9190613677565b6128595760405162461bcd60e51b81526004016104e990613e24565b505050505050565b60005b6001835103811015612a1b5760008084838151811061287f57fe5b602002602001015185846001018151811061289657fe5b60200260200101519150915060006128ae8383612edf565b50905060008785600101815181106128c257fe5b60200260200101519050600080836001600160a01b0316866001600160a01b0316146128f0578260006128f4565b6000835b91509150600060028a5103881061290b578861294c565b61294c7f0000000000000000000000000000000000000000000000000000000000000000878c8b6002018151811061293f57fe5b6020026020010151612700565b90506129797f00000000000000000000000000000000000000000000000000000000000000008888612700565b6001600160a01b031663022c0d9f84848460006040519080825280601f01601f1916602001820160405280156129b6576020820181803683370190505b506040518563ffffffff1660e01b81526004016129d69493929190613f10565b600060405180830381600087803b1580156129f057600080fd5b505af1158015612a04573d6000803e3d6000fd5b505060019099019850612864975050505050505050565b50505050565b6060600282511015612a455760405162461bcd60e51b81526004016104e990613b51565b815167ffffffffffffffff81118015612a5d57600080fd5b50604051908082528060200260200182016040528015612a87578160200160208202803683370190505b5090508281600183510381518110612a9b57fe5b60209081029190910101528151600019015b80156126f857600080612add87866001860381518110612ac957fe5b60200260200101518786815181106126a457fe5b5091509150612b00848481518110612af157fe5b60200260200101518383612dbf565b846001850381518110612b0f57fe5b6020908102919091010152505060001901612aad565b60005b600183510381101561253157600080848381518110612b4357fe5b6020026020010151858460010181518110612b5a57fe5b6020026020010151915091506000612b728383612edf565b5090506000612ba27f00000000000000000000000000000000000000000000000000000000000000008585612700565b9050600080600080846001600160a01b0316630902f1ac6040518163ffffffff1660e01b815260040160806040518083038186803b158015612be357600080fd5b505afa158015612bf7573d6000803e3d6000fd5b505050506040513d601f19601f82011682018060405250810190612c1b9190613693565b50506001600160701b031691506001600160701b03169150600080876001600160a01b03168a6001600160a01b031614612c56578284612c59565b83835b91509150612c8d828b6001600160a01b03166370a082318a6040518263ffffffff1660e01b8152600401610f129190613989565b9550612c9a868383612536565b945050505050600080856001600160a01b0316886001600160a01b031614612cc457826000612cc8565b6000835b91509150600060028c51038a10612cdf578a612d13565b612d137f0000000000000000000000000000000000000000000000000000000000000000898e8d6002018151811061293f57fe5b6040805160008152602081019182905263022c0d9f60e01b9091529091506001600160a01b0387169063022c0d9f90612d559086908690869060248101613f10565b600060405180830381600087803b158015612d6f57600080fd5b505af1158015612d83573d6000803e3d6000fd5b50506001909b019a50612b289950505050505050505050565b808203828111156109125760405162461bcd60e51b81526004016104e990613ab0565b6000808411612de05760405162461bcd60e51b81526004016104e990613b16565b600083118015612df05750600082115b612e0c5760405162461bcd60e51b81526004016104e990613eaf565b6000612e306103e8612e24868863ffffffff6131d516565b9063ffffffff6131d516565b90506000612e4a6103e5612e24868963ffffffff612d9c16565b9050612e676001828481612e5a57fe5b049063ffffffff61320c16565b9695505050505050565b6000808411612e925760405162461bcd60e51b81526004016104e990613d76565b600083118015612ea25750600082115b612ebe5760405162461bcd60e51b81526004016104e990613eaf565b82612ecf858463ffffffff6131d516565b81612ed657fe5b04949350505050565b600080826001600160a01b0316846001600160a01b03161415612f145760405162461bcd60e51b81526004016104e990613c1e565b826001600160a01b0316846001600160a01b031610612f34578284612f37565b83835b90925090506001600160a01b038216612f625760405162461bcd60e51b81526004016104e990613cf3565b9250929050565b6000806000806001600160a01b03167f00000000000000000000000000000000000000000000000000000000000000006001600160a01b031663e6a439058b8b6040518363ffffffff1660e01b8152600401612fc6929190613a02565b60206040518083038186803b158015612fde57600080fd5b505afa158015612ff2573d6000803e3d6000fd5b505050506040513d601f19601f8201168201806040525081019061301691906133d2565b6001600160a01b031614156130c7576040516364e329cb60e11b81526001600160a01b037f0000000000000000000000000000000000000000000000000000000000000000169063c9c6539690613073908c908c90600401613a02565b602060405180830381600087803b15801561308d57600080fd5b505af11580156130a1573d6000803e3d6000fd5b505050506040513d601f19601f820116820180604052508101906130c591906133d2565b505b60008060006130f77f00000000000000000000000000000000000000000000000000000000000000008d8d61322f565b92509250925082600014801561310b575081155b1561311f57899550889450600093506131c6565b600061312c8b8585612e71565b905089811161317357878110156131555760405162461bcd60e51b81526004016104e990613cac565b6000613162828585612e71565b8c98509196509094508590506131c4565b60006131808b8587612e71565b90508b81111561318c57fe5b898110156131ac5760405162461bcd60e51b81526004016104e990613e68565b60006131b9828786612e71565b9198508b9750909550505b505b50505096509650969350505050565b60008115806131f0575050808202828282816131ed57fe5b04145b6109125760405162461bcd60e51b81526004016104e990613bc2565b808201828110156109125760405162461bcd60e51b81526004016104e990613bf0565b60008060008061323f8686612edf565b50905060008060006132528a8a8a612700565b6001600160a01b0316630902f1ac6040518163ffffffff1660e01b815260040160806040518083038186803b15801561328a57600080fd5b505afa15801561329e573d6000803e3d6000fd5b505050506040513d601f19601f820116820180604052508101906132c29190613693565b506001600160701b031692506001600160701b031692506001600160701b03169250836001600160a01b0316896001600160a01b031614613304578183613307565b82825b909b909a509098509650505050505050565b60405180606001604052806000815260200160008152602001600081525090565b803561091281613fce565b60008083601f840112613356578182fd5b50813567ffffffffffffffff81111561336d578182fd5b6020830191508360208083028501011115612f6257600080fd5b80516001600160701b038116811461091257600080fd5b803560ff8116811461091257600080fd5b6000602082840312156133c0578081fd5b81356133cb81613fce565b9392505050565b6000602082840312156133e3578081fd5b81516133cb81613fce565b600080600080600080600060e0888a031215613408578283fd5b873561341381613fce565b9650602088013561342381613fce565b955060408801359450606088013593506080880135925060a088013561344881613fce565b8092505060c0880135905092959891949750929550565b60008060008060008060008060008060006101608c8e031215613480578384fd5b8b3561348b81613fce565b9a5060208c013561349b81613fce565b995060408c0135985060608c0135975060808c0135965060a08c01356134c081613fce565b955060c08c0135945060e08c01356134d781613fe6565b93506134e78d6101008e0161339e565b92506101208c013591506101408c013590509295989b509295989b9093969950565b600080600080600080600080610100898b031215613525578384fd5b883561353081613fce565b9750602089013561354081613fce565b965060408901359550606089013594506080890135935060a0890135925060c089013561356c81613fce565b8092505060e089013590509295985092959890939650565b60008060008060008060c0878903121561359c578182fd5b86356135a781613fce565b955060208701359450604087013593506060870135925060808701356135cc81613fce565b8092505060a087013590509295509295509295565b6000806000806000806000806000806101408b8d031215613600578384fd5b8a3561360b81613fce565b995060208b0135985060408b0135975060608b0135965060808b013561363081613fce565b955060a08b0135945060c08b013561364781613fe6565b93506136568c60e08d0161339e565b92506101008b013591506101208b013590509295989b9194979a5092959850565b600060208284031215613688578081fd5b81516133cb81613fe6565b600080600080608085870312156136a8578182fd5b6136b28686613387565b93506136c18660208701613387565b92506136d08660408701613387565b9150606085015163ffffffff811681146136e8578182fd5b939692955090935050565b600060208284031215613704578081fd5b5051919050565b600080600080600060808688031215613722578283fd5b85359450602086013567ffffffffffffffff81111561373f578384fd5b61374b88828901613345565b909550935050604086013561375f81613fce565b949793965091946060013592915050565b60008060408385031215613782578182fd5b8235915060208084013567ffffffffffffffff808211156137a1578384fd5b81860187601f8201126137b2578485fd5b80359250818311156137c2578485fd5b83830291506137d2848301613f7b565b8381528481019082860184840187018b10156137ec578788fd5b8794505b85851015613816576138028b8261333a565b8352600194909401939186019186016137f0565b508096505050505050509250929050565b60008060008060008060a0878903121561383f578384fd5b8635955060208701359450604087013567ffffffffffffffff811115613863578485fd5b61386f89828a01613345565b909550935050606087013561388381613fce565b80925050608087013590509295509295509295565b6000806000606084860312156138ac578081fd5b505081359360208301359350604090920135919050565b6000806000606084860312156138d7578081fd5b8351925060208401519150604084015190509250925092565b6bffffffffffffffffffffffff19606093841b811682529190921b16601482015260280190565b60008251613929818460208701613fa2565b9190910192915050565b6001600160f81b0319815260609290921b6bffffffffffffffffffffffff1916600183015260158201527ff95ccc2634db61d2967ae8edcfd5ea64b486278663b3429d48a983081e5cb463603582015260550190565b6001600160a01b0391909116815260200190565b6001600160a01b0397881681529590961660208601526040850193909352606084019190915260ff16608083015260a082015260c081019190915260e00190565b6001600160a01b039384168152919092166020820152604081019190915260600190565b6001600160a01b0392831681529116602082015260400190565b6001600160a01b03929092168252602082015260400190565b6020808252825182820181905260009190848201906040850190845b81811015613a6d57835183529284019291840191600101613a51565b50909695505050505050565b60208082526019908201527f4d696e69737761705632526f757465723a204558504952454400000000000000604082015260600190565b60208082526015908201527464732d6d6174682d7375622d756e646572666c6f7760581b604082015260600190565b6020808252601f908201527f5472616e7366657248656c7065723a205452414e534645525f4641494c454400604082015260600190565b6020808252602d90820152600080516020613ff583398151915260408201526c13d55514155517d05353d55395609a1b606082015260800190565b6020808252601f908201527f4d696e697377617056324c6962726172793a20494e56414c49445f5041544800604082015260600190565b6020808252602c90820152600080516020613ff583398151915260408201526b125394155517d05353d5539560a21b606082015260800190565b60208082526014908201527364732d6d6174682d6d756c2d6f766572666c6f7760601b604082015260600190565b60208082526014908201527364732d6d6174682d6164642d6f766572666c6f7760601b604082015260600190565b60208082526026908201527f4d696e697377617056324c6962726172793a204944454e544943414c5f41444460408201526552455353455360d01b606082015260800190565b60208082526028908201527f4d696e69737761705632526f757465723a204558434553534956455f494e50556040820152671517d05353d5539560c21b606082015260800190565b60208082526027908201527f4d696e69737761705632526f757465723a20494e53554646494349454e545f4260408201526617d05353d5539560ca1b606082015260800190565b6020808252601f908201527f4d696e697377617056324c6962726172793a205a45524f5f4144445245535300604082015260600190565b6020808252602c908201527f4d696e69737761705632526f757465723a20494e53554646494349454e545f4f60408201526b155514155517d05353d5539560a21b606082015260800190565b6020808252602690820152600080516020613ff5833981519152604082015265105353d5539560d21b606082015260800190565b6020808252601e908201527f4d696e69737761705632526f757465723a20494e56414c49445f504154480000604082015260600190565b60208082526023908201527f5472616e7366657248656c7065723a204554485f5452414e534645525f46414960408201526213115160ea1b606082015260800190565b60208082526024908201527f5472616e7366657248656c7065723a205452414e534645525f46524f4d5f46416040820152631253115160e21b606082015260800190565b60208082526027908201527f4d696e69737761705632526f757465723a20494e53554646494349454e545f4160408201526617d05353d5539560ca1b606082015260800190565b6020808252602990820152600080516020613ff58339815191526040820152684c495155494449545960b81b606082015260800190565b81518152602080830151908201526040918201519181019190915260600190565b90815260200190565b600085825284602083015260018060a01b0384166040830152608060608301528251806080840152613f498160a0850160208701613fa2565b601f01601f19169190910160a00195945050505050565b93845260208401929092526040830152606082015260800190565b60405181810167ffffffffffffffff81118282101715613f9a57600080fd5b604052919050565b60005b83811015613fbd578181015183820152602001613fa5565b83811115612a1b5750506000910152565b6001600160a01b0381168114613fe357600080fd5b50565b8015158114613fe357600080fdfe4d696e697377617056324c6962726172793a20494e53554646494349454e545fa2646970667358221220152db279d5307d9a1890ed31febf1557da82cfde1ee50d0ee04b541da55eaba764736f6c63430006090033",
  "immutableReferences": {
    "2979": [
      {
        "length": 32,
        "start": 1710
      },
      {
        "length": 32,
        "start": 1899
      },
      {
        "length": 32,
        "start": 2281
      },
      {
        "length": 32,
        "start": 2343
      },
      {
        "length": 32,
        "start": 2582
      },
      {
        "length": 32,
        "start": 3000
      },
      {
        "length": 32,
        "start": 3158
      },
      {
        "length": 32,
        "start": 3463
      },
      {
        "length": 32,
        "start": 4701
      },
      {
        "length": 32,
        "start": 5035
      },
      {
        "length": 32,
        "start": 5343
      },
      {
        "length": 32,
        "start": 6079
      },
      {
        "length": 32,
        "start": 6600
      },
      {
        "length": 32,
        "start": 7054
      },
      {
        "length": 32,
        "start": 7095
      },
      {
        "length": 32,
        "start": 7148
      },
      {
        "length": 32,
        "start": 7427
      },
      {
        "length": 32,
        "start": 7779
      },
      {
        "length": 32,
        "start": 8506
      },
      {
        "length": 32,
        "start": 8837
      },
      {
        "length": 32,
        "start": 10512
      },
      {
        "length": 32,
        "start": 10579
      },
      {
        "length": 32,
        "start": 11132
      },
      {
        "length": 32,
        "start": 11492
      },
      {
        "length": 32,
        "start": 12154
      },
      {
        "length": 32,
        "start": 12348
      },
      {
        "length": 32,
        "start": 12497
      }
    ],
    "2982": [
      {
        "length": 32,
        "start": 378
      },
      {
        "length": 32,
        "start": 1272
      },
      {
        "length": 32,
        "start": 1358
      },
      {
        "length": 32,
        "start": 1598
      },
      {
        "length": 32,
        "start": 2094
      },
      {
        "length": 32,
        "start": 2888
      },
      {
        "length": 32,
        "start": 3192
      },
      {
        "length": 32,
        "start": 4033
      },
      {
        "length": 32,
        "start": 4244
      },
      {
        "length": 32,
        "start": 4434
      },
      {
        "length": 32,
        "start": 4584
      },
      {
        "length": 32,
        "start": 4849
      },
      {
        "length": 32,
        "start": 4985
      },
      {
        "length": 32,
        "start": 5488
      },
      {
        "length": 32,
        "start": 5582
      },
      {
        "length": 32,
        "start": 5794
      },
      {
        "length": 32,
        "start": 5913
      },
      {
        "length": 32,
        "start": 6029
      },
      {
        "length": 32,
        "start": 7182
      },
      {
        "length": 32,
        "start": 7725
      },
      {
        "length": 32,
        "start": 7813
      },
      {
        "length": 32,
        "start": 7909
      },
      {
        "length": 32,
        "start": 8043
      },
      {
        "length": 32,
        "start": 8389
      },
      {
        "length": 32,
        "start": 8651
      },
      {
        "length": 32,
        "start": 8787
      }
    ],
    "2985": [
      {
        "length": 32,
        "start": 1479
      },
      {
        "length": 32,
        "start": 2809
      },
      {
        "length": 32,
        "start": 7496
      },
      {
        "length": 32,
        "start": 7868
      }
    ]
  },
  "source": "// SPDX-License-Identifier: SimPL-2.0\npragma solidity=0.6.9;\npragma experimental ABIEncoderV2;\n\nimport './interfaces/IMiniswapFactory.sol';\nimport './libraries/TransferHelper.sol';\n\nimport './interfaces/IMiniswapRouter.sol';\nimport './interfaces/IMiniswapERC20.sol';\nimport './libraries/MiniswapLibrary.sol';\nimport './libraries/SafeMath.sol';\nimport './interfaces/IERC20.sol';\nimport './interfaces/IWETH.sol';\n\ncontract MiniswapRouter is IMiniswapRouter {\n    using SafeMath for uint;\n\n    address public immutable override factory;\n    address public immutable override WETH;\n    address public immutable override MINI;\n\n    modifier ensure(uint deadline) {\n        require(deadline >= block.timestamp, 'MiniswapV2Router: EXPIRED');\n        _;\n    }\n\n    constructor(address _factory,address _mini,address _WETH) public {\n        factory = _factory;\n        MINI = _mini;\n        WETH = _WETH;\n    }\n\n    receive() external payable {\n        assert(msg.sender == WETH); // only accept ETH via fallback from the WETH contract\n    }\n\n    // **** ADD LIQUIDITY ****\n    function _addLiquidity(\n        address tokenA,\n        address tokenB,\n        uint amountADesired,\n        uint amountBDesired,\n        uint amountAMin,\n        uint amountBMin\n    ) internal virtual returns (uint amountA, uint amountB,uint amountMini) {\n        // create the pair if it doesn't exist yet\n        if (IMiniswapFactory(factory).getPair(tokenA, tokenB) == address(0)) {\n            IMiniswapFactory(factory).createPair(tokenA, tokenB);\n        }\n        (uint reserveA, uint reserveB,uint reserveMini) = MiniswapLibrary.getReserves(factory, tokenA, tokenB);\n        if (reserveA == 0 && reserveB == 0) {\n            (amountA, amountB,amountMini) = (amountADesired, amountBDesired,0);\n        } else {\n            uint amountBOptimal = MiniswapLibrary.quote(amountADesired, reserveA, reserveB);\n            if (amountBOptimal <= amountBDesired) {\n                require(amountBOptimal >= amountBMin, 'MiniswapV2Router: INSUFFICIENT_B_AMOUNT');\n                uint amountMiniOptimal = MiniswapLibrary.quote(amountBOptimal,reserveB,reserveMini);\n                (amountA, amountB ,amountMini) = (amountADesired, amountBOptimal,amountMiniOptimal);\n            } else {\n                uint amountAOptimal = MiniswapLibrary.quote(amountBDesired, reserveB, reserveA);\n                assert(amountAOptimal <= amountADesired);\n                require(amountAOptimal >= amountAMin, 'MiniswapV2Router: INSUFFICIENT_A_AMOUNT');\n                uint amountMiniOptimal = MiniswapLibrary.quote(amountAOptimal,reserveA,reserveMini);\n                (amountA, amountB,amountMini) = (amountAOptimal, amountBDesired ,amountMiniOptimal);\n            }\n        }\n    }\n    function addLiquidity(\n        address tokenA,\n        address tokenB,\n        uint amountADesired,\n        uint amountBDesired,\n        uint amountAMin,\n        uint amountBMin,\n        address to,\n        uint deadline\n    ) external virtual override ensure(deadline) returns (uint amountA, uint amountB,uint amountMini, uint liquidity) {\n        (amountA, amountB,amountMini) = _addLiquidity(tokenA, tokenB, amountADesired,amountBDesired, amountAMin, amountBMin);\n        address pair = MiniswapLibrary.pairFor(factory, tokenA, tokenB);\n        TransferHelper.safeTransferFrom(tokenA, msg.sender, pair, amountA);\n        TransferHelper.safeTransferFrom(tokenB, msg.sender, pair, amountB);\n        TransferHelper.safeTransferFrom(MINI,msg.sender,pair,amountMini);\n        liquidity = IMiniswapPair(pair).mint(to);\n    }\n    function addLiquidityETH(\n        address token,\n        uint amountTokenDesired,\n        uint amountTokenMin,\n        uint amountETHMin,\n        address to,\n        uint deadline\n    ) external virtual override payable ensure(deadline) returns (uint amountToken, uint amountETH, uint amountMini,uint liquidity) {\n        (amountToken, amountETH,amountMini) = _addLiquidity(\n            token,\n            WETH,\n            amountTokenDesired,\n            msg.value,\n            amountTokenMin,\n            amountETHMin\n        );\n        address pair = MiniswapLibrary.pairFor(factory, token, WETH);\n        TransferHelper.safeTransferFrom(token, msg.sender, pair, amountToken);\n        TransferHelper.safeTransferFrom(MINI,msg.sender,pair,amountMini);\n        IWETH(WETH).deposit{value: amountETH}();\n        assert(IWETH(WETH).transfer(pair, amountETH));\n        liquidity = IMiniswapPair(pair).mint(to);\n        // refund dust eth, if any\n        if (msg.value > amountETH) TransferHelper.safeTransferETH(msg.sender, msg.value - amountETH);\n    }\n\n    // **** REMOVE LIQUIDITY ****\n    function removeLiquidity(\n        address tokenA,\n        address tokenB,\n        uint liquidity,\n        uint amountAMin,\n        uint amountBMin,\n        address to,\n        uint deadline\n    ) public virtual override ensure(deadline) returns (AmountInfo memory amountInfo) {\n        address pair = MiniswapLibrary.pairFor(factory, tokenA, tokenB);\n        IMiniswapERC20(pair).transferFrom(msg.sender, pair, liquidity); // send liquidity to pair\n        (uint amount0, uint amount1,uint amountmini) = IMiniswapPair(pair).burn(to);\n        (address token0,) = MiniswapLibrary.sortTokens(tokenA, tokenB);\n        amountInfo.amountMini = amountmini;\n        (amountInfo.amountA, amountInfo.amountB) = tokenA == token0 ? (amount0, amount1) : (amount1, amount0);\n        require(amountInfo.amountA >= amountAMin, 'MiniswapV2Router: INSUFFICIENT_A_AMOUNT');\n        require(amountInfo.amountB >= amountBMin, 'MiniswapV2Router: INSUFFICIENT_B_AMOUNT');\n    }\n    function removeLiquidityETH(\n        address token,\n        uint liquidity,\n        uint amountTokenMin,\n        uint amountETHMin,\n        address to,\n        uint deadline\n    ) public virtual override ensure(deadline) returns (AmountInfo memory amountInfo) {\n        amountInfo = removeLiquidity(\n            token,\n            WETH,\n            liquidity,\n            amountTokenMin,\n            amountETHMin,\n            address(this),\n            deadline\n        );\n        TransferHelper.safeTransfer(token, to, amountInfo.amountA);\n        IWETH(WETH).withdraw(amountInfo.amountB);\n        TransferHelper.safeTransferETH(to, amountInfo.amountB);\n        TransferHelper.safeTransfer(MINI,to,amountInfo.amountMini);\n    }\n    function removeLiquidityWithPermit(\n        address tokenA,\n        address tokenB,\n        uint liquidity,\n        uint amountAMin,\n        uint amountBMin,\n        address to,\n        uint deadline,\n        bool approveMax, uint8 v, bytes32 r, bytes32 s\n    ) external virtual override returns (AmountInfo memory amountInfo) {\n        address pair = MiniswapLibrary.pairFor(factory, tokenA, tokenB);\n        uint value = approveMax ? uint(-1) : liquidity;\n        IMiniswapERC20(pair).permit(msg.sender, address(this), value, deadline, v, r, s);\n        amountInfo = removeLiquidity(tokenA, tokenB, liquidity, amountAMin, amountBMin, to, deadline);\n    }\n    function removeLiquidityETHWithPermit(\n        address token,\n        uint liquidity,\n        uint amountTokenMin,\n        uint amountETHMin,\n        address to,\n        uint deadline,\n        bool approveMax, uint8 v, bytes32 r, bytes32 s\n    ) external virtual override returns (AmountInfo memory amountInfo) {\n        address pair = MiniswapLibrary.pairFor(factory, token, WETH);\n        uint value = approveMax ? uint(-1) : liquidity;\n        IMiniswapERC20(pair).permit(msg.sender, address(this), value, deadline, v, r, s);\n        amountInfo = removeLiquidityETH(token, liquidity, amountTokenMin, amountETHMin, to, deadline);\n    }\n\n    // **** REMOVE LIQUIDITY (supporting fee-on-transfer tokens) ****\n    function removeLiquidityETHSupportingFeeOnTransferTokens(\n        address token,\n        uint liquidity,\n        uint amountTokenMin,\n        uint amountETHMin,\n        address to,\n        uint deadline\n    ) public virtual override ensure(deadline) returns (AmountInfo memory amountInfo) {\n        amountInfo = removeLiquidity(\n            token,\n            WETH,\n            liquidity,\n            amountTokenMin,\n            amountETHMin,\n            address(this),\n            deadline\n        );\n        TransferHelper.safeTransfer(token, to, IERC20(token).balanceOf(address(this)));\n        IWETH(WETH).withdraw(amountInfo.amountB);\n        TransferHelper.safeTransferETH(to, amountInfo.amountB);\n        TransferHelper.safeTransfer(MINI,to,amountInfo.amountMini);\n    }\n    function removeLiquidityETHWithPermitSupportingFeeOnTransferTokens(\n        address token,\n        uint liquidity,\n        uint amountTokenMin,\n        uint amountETHMin,\n        address to,\n        uint deadline,\n        bool approveMax, uint8 v, bytes32 r, bytes32 s\n    ) external virtual override returns  (AmountInfo memory amountInfo) {\n        address pair = MiniswapLibrary.pairFor(factory, token, WETH);\n        uint value = approveMax ? uint(-1) : liquidity;\n        IMiniswapERC20(pair).permit(msg.sender, address(this), value, deadline, v, r, s);\n        amountInfo = removeLiquidityETHSupportingFeeOnTransferTokens(\n            token, liquidity, amountTokenMin, amountETHMin, to, deadline\n        );\n    }\n\n    // **** SWAP ****\n    // requires the initial amount to have already been sent to the first pair\n    function _swap(uint[] memory amounts, address[] memory path, address _to) internal virtual {\n        for (uint i; i < path.length - 1; i++) {\n            (address input, address output) = (path[i], path[i + 1]);\n            (address token0,) = MiniswapLibrary.sortTokens(input, output);\n            uint amountOut = amounts[i + 1];\n            (uint amount0Out, uint amount1Out) = input == token0 ? (uint(0), amountOut) : (amountOut, uint(0));\n            address to = i < path.length - 2 ? MiniswapLibrary.pairFor(factory, output, path[i + 2]) : _to;\n            IMiniswapPair(MiniswapLibrary.pairFor(factory, input, output)).swap(\n                amount0Out, amount1Out, to, new bytes(0)\n            );\n        }\n    }\n    function swapExactTokensForTokens(\n        uint amountIn,\n        uint amountOutMin,\n        address[] calldata path,\n        address to,\n        uint deadline\n    ) external virtual override ensure(deadline) returns (uint[] memory amounts) {\n        amounts = MiniswapLibrary.getAmountsOut(factory, amountIn, path);\n        require(amounts[amounts.length - 1] >= amountOutMin, 'MiniswapV2Router: INSUFFICIENT_OUTPUT_AMOUNT');\n        TransferHelper.safeTransferFrom(\n            path[0], msg.sender, MiniswapLibrary.pairFor(factory, path[0], path[1]), amounts[0]\n        );\n        _swap(amounts, path, to);\n    }\n    function swapTokensForExactTokens(\n        uint amountOut,\n        uint amountInMax,\n        address[] calldata path,\n        address to,\n        uint deadline\n    ) external virtual override ensure(deadline) returns (uint[] memory amounts) {\n        amounts = MiniswapLibrary.getAmountsIn(factory, amountOut, path);\n        require(amounts[0] <= amountInMax, 'MiniswapV2Router: EXCESSIVE_INPUT_AMOUNT');\n        TransferHelper.safeTransferFrom(\n            path[0], msg.sender, MiniswapLibrary.pairFor(factory, path[0], path[1]), amounts[0]\n        );\n        _swap(amounts, path, to);\n    }\n    function swapExactETHForTokens(uint amountOutMin, address[] calldata path, address to, uint deadline)\n        external\n        virtual\n        override\n        payable\n        ensure(deadline)\n        returns (uint[] memory amounts)\n    {\n        require(path[0] == WETH, 'MiniswapV2Router: INVALID_PATH');\n        amounts = MiniswapLibrary.getAmountsOut(factory, msg.value, path);\n        require(amounts[amounts.length - 1] >= amountOutMin, 'MiniswapV2Router: INSUFFICIENT_OUTPUT_AMOUNT');\n        IWETH(WETH).deposit{value: amounts[0]}();\n        assert(IWETH(WETH).transfer(MiniswapLibrary.pairFor(factory, path[0], path[1]), amounts[0]));\n        _swap(amounts, path, to);\n    }\n    function swapTokensForExactETH(uint amountOut, uint amountInMax, address[] calldata path, address to, uint deadline)\n        external\n        virtual\n        override\n        ensure(deadline)\n        returns (uint[] memory amounts)\n    {\n        require(path[path.length - 1] == WETH, 'MiniswapV2Router: INVALID_PATH');\n        amounts = MiniswapLibrary.getAmountsIn(factory, amountOut, path);\n        require(amounts[0] <= amountInMax, 'MiniswapV2Router: EXCESSIVE_INPUT_AMOUNT');\n        TransferHelper.safeTransferFrom(\n            path[0], msg.sender, MiniswapLibrary.pairFor(factory, path[0], path[1]), amounts[0]\n        );\n        _swap(amounts, path, address(this));\n        IWETH(WETH).withdraw(amounts[amounts.length - 1]);\n        TransferHelper.safeTransferETH(to, amounts[amounts.length - 1]);\n    }\n    function swapExactTokensForETH(uint amountIn, uint amountOutMin, address[] calldata path, address to, uint deadline)\n        external\n        virtual\n        override\n        ensure(deadline)\n        returns (uint[] memory amounts)\n    {\n        require(path[path.length - 1] == WETH, 'MiniswapV2Router: INVALID_PATH');\n        amounts = MiniswapLibrary.getAmountsOut(factory, amountIn, path);\n        require(amounts[amounts.length - 1] >= amountOutMin, 'MiniswapV2Router: INSUFFICIENT_OUTPUT_AMOUNT');\n        TransferHelper.safeTransferFrom(\n            path[0], msg.sender, MiniswapLibrary.pairFor(factory, path[0], path[1]), amounts[0]\n        );\n        _swap(amounts, path, address(this));\n        IWETH(WETH).withdraw(amounts[amounts.length - 1]);\n        TransferHelper.safeTransferETH(to, amounts[amounts.length - 1]);\n    }\n    function swapETHForExactTokens(uint amountOut, address[] calldata path, address to, uint deadline)\n        external\n        virtual\n        override\n        payable\n        ensure(deadline)\n        returns (uint[] memory amounts)\n    {\n        require(path[0] == WETH, 'MiniswapV2Router: INVALID_PATH');\n        amounts = MiniswapLibrary.getAmountsIn(factory, amountOut, path);\n        require(amounts[0] <= msg.value, 'MiniswapV2Router: EXCESSIVE_INPUT_AMOUNT');\n        IWETH(WETH).deposit{value: amounts[0]}();\n        assert(IWETH(WETH).transfer(MiniswapLibrary.pairFor(factory, path[0], path[1]), amounts[0]));\n        _swap(amounts, path, to);\n        // refund dust eth, if any\n        if (msg.value > amounts[0]) TransferHelper.safeTransferETH(msg.sender, msg.value - amounts[0]);\n    }\n\n    // **** SWAP (supporting fee-on-transfer tokens) ****\n    // requires the initial amount to have already been sent to the first pair\n    function _swapSupportingFeeOnTransferTokens(address[] memory path, address _to) internal virtual {\n        for (uint i; i < path.length - 1; i++) {\n            (address input, address output) = (path[i], path[i + 1]);\n            (address token0,) = MiniswapLibrary.sortTokens(input, output);\n            IMiniswapPair pair = IMiniswapPair(MiniswapLibrary.pairFor(factory, input, output));\n            uint amountInput;\n            uint amountOutput;\n            { // scope to avoid stack too deep errors\n            (uint reserve0, uint reserve1,,) = pair.getReserves();\n            (uint reserveInput, uint reserveOutput) = input == token0 ? (reserve0, reserve1) : (reserve1, reserve0);\n            amountInput = IERC20(input).balanceOf(address(pair)).sub(reserveInput);\n            amountOutput = MiniswapLibrary.getAmountOut(amountInput, reserveInput, reserveOutput);\n            }\n            (uint amount0Out, uint amount1Out) = input == token0 ? (uint(0), amountOutput) : (amountOutput, uint(0));\n            address to = i < path.length - 2 ? MiniswapLibrary.pairFor(factory, output, path[i + 2]) : _to;\n            pair.swap(amount0Out, amount1Out, to, new bytes(0));\n        }\n    }\n    function swapExactTokensForTokensSupportingFeeOnTransferTokens(\n        uint amountIn,\n        uint amountOutMin,\n        address[] calldata path,\n        address to,\n        uint deadline\n    ) external virtual override ensure(deadline) {\n        TransferHelper.safeTransferFrom(\n            path[0], msg.sender, MiniswapLibrary.pairFor(factory, path[0], path[1]), amountIn\n        );\n        uint balanceBefore = IERC20(path[path.length - 1]).balanceOf(to);\n        _swapSupportingFeeOnTransferTokens(path, to);\n        require(\n            IERC20(path[path.length - 1]).balanceOf(to).sub(balanceBefore) >= amountOutMin,\n            'MiniswapV2Router: INSUFFICIENT_OUTPUT_AMOUNT'\n        );\n    }\n    function swapExactETHForTokensSupportingFeeOnTransferTokens(\n        uint amountOutMin,\n        address[] calldata path,\n        address to,\n        uint deadline\n    )\n        external\n        virtual\n        override\n        payable\n        ensure(deadline)\n    {\n        require(path[0] == WETH, 'MiniswapV2Router: INVALID_PATH');\n        uint amountIn = msg.value;\n        IWETH(WETH).deposit{value: amountIn}();\n        assert(IWETH(WETH).transfer(MiniswapLibrary.pairFor(factory, path[0], path[1]), amountIn));\n        uint balanceBefore = IERC20(path[path.length - 1]).balanceOf(to);\n        _swapSupportingFeeOnTransferTokens(path, to);\n        require(\n            IERC20(path[path.length - 1]).balanceOf(to).sub(balanceBefore) >= amountOutMin,\n            'MiniswapV2Router: INSUFFICIENT_OUTPUT_AMOUNT'\n        );\n    }\n    function swapExactTokensForETHSupportingFeeOnTransferTokens(\n        uint amountIn,\n        uint amountOutMin,\n        address[] calldata path,\n        address to,\n        uint deadline\n    )\n        external\n        virtual\n        override\n        ensure(deadline)\n    {\n        require(path[path.length - 1] == WETH, 'MiniswapV2Router: INVALID_PATH');\n        TransferHelper.safeTransferFrom(\n            path[0], msg.sender, MiniswapLibrary.pairFor(factory, path[0], path[1]), amountIn\n        );\n        _swapSupportingFeeOnTransferTokens(path, address(this));\n        uint amountOut = IERC20(WETH).balanceOf(address(this));\n        require(amountOut >= amountOutMin, 'MiniswapV2Router: INSUFFICIENT_OUTPUT_AMOUNT');\n        IWETH(WETH).withdraw(amountOut);\n        TransferHelper.safeTransferETH(to, amountOut);\n    }\n\n    // **** LIBRARY FUNCTIONS ****\n    function quote(uint amountA, uint reserveA, uint reserveB) public pure virtual override returns (uint amountB) {\n        return MiniswapLibrary.quote(amountA, reserveA, reserveB);\n    }\n\n    function getAmountOut(uint amountIn, uint reserveIn, uint reserveOut)\n        public\n        pure\n        virtual\n        override\n        returns (uint amountOut)\n    {\n        return MiniswapLibrary.getAmountOut(amountIn, reserveIn, reserveOut);\n    }\n\n    function getAmountIn(uint amountOut, uint reserveIn, uint reserveOut)\n        public\n        pure\n        virtual\n        override\n        returns (uint amountIn)\n    {\n        return MiniswapLibrary.getAmountIn(amountOut, reserveIn, reserveOut);\n    }\n\n    function getAmountsOut(uint amountIn, address[] memory path)\n        public\n        view\n        virtual\n        override\n        returns (uint[] memory amounts)\n    {\n        return MiniswapLibrary.getAmountsOut(factory, amountIn, path);\n    }\n\n    function getAmountsIn(uint amountOut, address[] memory path)\n        public\n        view\n        virtual\n        override\n        returns (uint[] memory amounts)\n    {\n        return MiniswapLibrary.getAmountsIn(factory, amountOut, path);\n    }\n}\n",
  "sourcePath": "/Users/yinwei/work/miniswap/contracts/MiniswapRouter.sol",
  "compiler": {
    "name": "solc",
    "version": "0.6.9+commit.3e3065ac.Emscripten.clang"
  },
  "schemaVersion": "3.2.1",
  "updatedAt": "2020-08-10T06:48:53.207Z",
  "devdoc": {
    "methods": {}
  },
  "userdoc": {
    "methods": {}
  }
}