{
  "contractName": "MiniswapMiner",
  "abi": [
    {
      "inputs": [
        {
          "internalType": "uint256",
          "name": "_minFee",
          "type": "uint256"
        },
        {
          "internalType": "address",
          "name": "_mini",
          "type": "address"
        },
        {
          "internalType": "address",
          "name": "_usdt",
          "type": "address"
        },
        {
          "internalType": "address",
          "name": "_feeder",
          "type": "address"
        }
      ],
      "stateMutability": "nonpayable",
      "type": "constructor"
    },
    {
      "anonymous": false,
      "inputs": [
        {
          "indexed": false,
          "internalType": "address",
          "name": "",
          "type": "address"
        }
      ],
      "name": "AddWhitelist",
      "type": "event"
    },
    {
      "anonymous": false,
      "inputs": [
        {
          "indexed": false,
          "internalType": "address",
          "name": "",
          "type": "address"
        }
      ],
      "name": "RemoveWhitelist",
      "type": "event"
    },
    {
      "inputs": [],
      "name": "feeder",
      "outputs": [
        {
          "internalType": "address",
          "name": "",
          "type": "address"
        }
      ],
      "stateMutability": "view",
      "type": "function"
    },
    {
      "inputs": [],
      "name": "minFee",
      "outputs": [
        {
          "internalType": "uint256",
          "name": "",
          "type": "uint256"
        }
      ],
      "stateMutability": "view",
      "type": "function"
    },
    {
      "inputs": [
        {
          "internalType": "uint256",
          "name": "",
          "type": "uint256"
        }
      ],
      "name": "mineInfo",
      "outputs": [
        {
          "internalType": "uint256",
          "name": "",
          "type": "uint256"
        }
      ],
      "stateMutability": "view",
      "type": "function"
    },
    {
      "inputs": [],
      "name": "owner",
      "outputs": [
        {
          "internalType": "address",
          "name": "",
          "type": "address"
        }
      ],
      "stateMutability": "view",
      "type": "function"
    },
    {
      "inputs": [
        {
          "internalType": "address",
          "name": "",
          "type": "address"
        }
      ],
      "name": "whitelistMap",
      "outputs": [
        {
          "internalType": "bool",
          "name": "",
          "type": "bool"
        }
      ],
      "stateMutability": "view",
      "type": "function"
    },
    {
      "inputs": [
        {
          "internalType": "address",
          "name": "token",
          "type": "address"
        },
        {
          "internalType": "address",
          "name": "to",
          "type": "address"
        }
      ],
      "name": "getToken",
      "outputs": [],
      "stateMutability": "nonpayable",
      "type": "function"
    },
    {
      "inputs": [
        {
          "internalType": "uint256",
          "name": "_minFee",
          "type": "uint256"
        }
      ],
      "name": "changeMinFee",
      "outputs": [],
      "stateMutability": "nonpayable",
      "type": "function"
    },
    {
      "inputs": [
        {
          "internalType": "address",
          "name": "pair",
          "type": "address"
        }
      ],
      "name": "addWhitelist",
      "outputs": [],
      "stateMutability": "nonpayable",
      "type": "function"
    },
    {
      "inputs": [
        {
          "internalType": "address",
          "name": "factory",
          "type": "address"
        },
        {
          "internalType": "address",
          "name": "token0",
          "type": "address"
        },
        {
          "internalType": "address",
          "name": "token1",
          "type": "address"
        }
      ],
      "name": "addWhitelistByTokens",
      "outputs": [],
      "stateMutability": "nonpayable",
      "type": "function"
    },
    {
      "inputs": [
        {
          "internalType": "address",
          "name": "pair",
          "type": "address"
        }
      ],
      "name": "removeWhitelist",
      "outputs": [],
      "stateMutability": "nonpayable",
      "type": "function"
    },
    {
      "inputs": [
        {
          "internalType": "address",
          "name": "factory",
          "type": "address"
        },
        {
          "internalType": "address",
          "name": "token0",
          "type": "address"
        },
        {
          "internalType": "address",
          "name": "token1",
          "type": "address"
        }
      ],
      "name": "removeWhitelistByTokens",
      "outputs": [],
      "stateMutability": "nonpayable",
      "type": "function"
    },
    {
      "inputs": [
        {
          "internalType": "address",
          "name": "factory",
          "type": "address"
        },
        {
          "internalType": "address",
          "name": "feeTemp",
          "type": "address"
        },
        {
          "internalType": "address",
          "name": "to",
          "type": "address"
        },
        {
          "internalType": "address",
          "name": "token",
          "type": "address"
        },
        {
          "internalType": "uint256",
          "name": "amount",
          "type": "uint256"
        }
      ],
      "name": "mining",
      "outputs": [],
      "stateMutability": "nonpayable",
      "type": "function"
    }
  ],
  "bytecode": "0x608060405234801561001057600080fd5b50604051611a59380380611a598339818101604052608081101561003357600080fd5b5080516020820151604083015160609093015160008054336001600160a01b03199182161782556005949094556007805485166001600160a01b0394851617905560088054851695841695909517909455600180549093169116179055436006556119b59081906100a490396000f3fe608060405234801561001057600080fd5b50600436106100b45760003560e01c806378c8cda71161007157806378c8cda7146101d85780638da5cb5b146101fe578063a317ea0614610222578063a788a7161461023f578063cf29ddc414610247578063f80f5dd51461027f576100b4565b806324ec7590146100b957806332531c3c146100d35780635487aae21461010d578063672447141461012a578063699c00381461015a5780636d8f9990146101a0575b600080fd5b6100c16102a5565b60408051918252519081900360200190f35b6100f9600480360360208110156100e957600080fd5b50356001600160a01b03166102ab565b604080519115158252519081900360200190f35b6100c16004803603602081101561012357600080fd5b50356102c0565b6101586004803603604081101561014057600080fd5b506001600160a01b03813581169160200135166102d2565b005b610158600480360360a081101561017057600080fd5b506001600160a01b0381358116916020810135821691604082013581169160608101359091169060800135610420565b610158600480360360608110156101b657600080fd5b506001600160a01b03813581169160208101358216916040909101351661074e565b610158600480360360208110156101ee57600080fd5b50356001600160a01b03166107bd565b61020661082f565b604080516001600160a01b039092168252519081900360200190f35b6101586004803603602081101561023857600080fd5b503561083e565b610206610894565b6101586004803603606081101561025d57600080fd5b506001600160a01b0381358116916020810135821691604090910135166108a3565b6101586004803603602081101561029557600080fd5b50356001600160a01b031661090c565b60055481565b60026020526000908152604090205460ff1681565b60036020526000908152604090205481565b6000546001600160a01b03163314610323576040805162461bcd60e51b815260206004820152600f60248201526e3337b93134b23232b71d37bbb732b960891b604482015290519081900360640190fd5b604080516370a0823160e01b815230600482015290516000916001600160a01b038516916370a0823191602480820192602092909190829003018186803b15801561036d57600080fd5b505afa158015610381573d6000803e3d6000fd5b505050506040513d602081101561039757600080fd5b50516040805163a9059cbb60e01b81526001600160a01b0385811660048301526024820184905291519293509085169163a9059cbb916044808201926020929091908290030181600087803b1580156103ef57600080fd5b505af1158015610403573d6000803e3d6000fd5b505050506040513d602081101561041957600080fd5b5050505050565b3360009081526002602052604090205460ff16151560011461047f576040805162461bcd60e51b8152602060048201526013602482015272199bdc989a5919195b8e9dda1a5d195b1a5cdd606a1b604482015290519081900360640190fd5b61048b82333084610981565b60075460009081906001600160a01b03858116911614156104b05750819050806106d7565b6008546001600160a01b03858116911614156105b557604080516002808252606080830184529260208301908036833701905050905084816000815181106104f457fe5b6001600160a01b03928316602091820292909201015260075482519116908290600190811061051f57fe5b60200260200101906001600160a01b031690816001600160a01b031681525050606061054c898684610ade565b90508060018151811061055b57fe5b6020026020010151935060055484116105775750505050610419565b6105ac89600860009054906101000a90046001600160a01b0316868460008151811061059f57fe5b6020026020010151610c2a565b925050506106d7565b6040805160038082526080820190925260609160208201838036833701905050905084816000815181106105e557fe5b6001600160a01b03928316602091820292909201015260085482519116908290600190811061061057fe5b6001600160a01b03928316602091820292909201015260075482519116908290600290811061063b57fe5b60200260200101906001600160a01b031690816001600160a01b0316815250506060610668898684610ade565b90508060028151811061067757fe5b6020026020010151935060055484116106935750505050610419565b60006106b58a88846001815181106106a757fe5b602002602001015189610e92565b6008549091506106d1908b906001600160a01b03168784610c2a565b93505050505b600754610712906001600160a01b031673111111111111111111111111111111111111111161070d84600263ffffffff6110b316565b61111f565b60075460015461073a916001600160a01b03908116911661070d84600263ffffffff6110b316565b610745828787611282565b50505050505050565b6000546001600160a01b0316331461079f576040805162461bcd60e51b815260206004820152600f60248201526e3337b93134b23232b71d37bbb732b960891b604482015290519081900360640190fd5b60006107ac848484611439565b90506107b78161090c565b50505050565b6000546001600160a01b0316331461080e576040805162461bcd60e51b815260206004820152600f60248201526e3337b93134b23232b71d37bbb732b960891b604482015290519081900360640190fd5b6001600160a01b03166000908152600260205260409020805460ff19169055565b6000546001600160a01b031681565b6000546001600160a01b0316331461088f576040805162461bcd60e51b815260206004820152600f60248201526e3337b93134b23232b71d37bbb732b960891b604482015290519081900360640190fd5b600555565b6001546001600160a01b031681565b6000546001600160a01b031633146108f4576040805162461bcd60e51b815260206004820152600f60248201526e3337b93134b23232b71d37bbb732b960891b604482015290519081900360640190fd5b6000610901848484611439565b90506107b7816107bd565b6000546001600160a01b0316331461095d576040805162461bcd60e51b815260206004820152600f60248201526e3337b93134b23232b71d37bbb732b960891b604482015290519081900360640190fd5b6001600160a01b03166000908152600260205260409020805460ff19166001179055565b604080516001600160a01b0385811660248301528481166044830152606480830185905283518084039091018152608490920183526020820180516001600160e01b03166323b872dd60e01b17815292518251600094606094938a169392918291908083835b60208310610a065780518252601f1990920191602091820191016109e7565b6001836020036101000a0380198251168184511680821785525050505050509050019150506000604051808303816000865af19150503d8060008114610a68576040519150601f19603f3d011682016040523d82523d6000602084013e610a6d565b606091505b5091509150818015610a9b575080511580610a9b5750808060200190516020811015610a9857600080fd5b50515b610ad65760405162461bcd60e51b815260040180806020018281038252602481526020018061195c6024913960400191505060405180910390fd5b505050505050565b6060600282511015610b37576040805162461bcd60e51b815260206004820152601d60248201527f4d696e69737761704c6962726172793a20494e56414c49445f50415448000000604482015290519081900360640190fd5b815167ffffffffffffffff81118015610b4f57600080fd5b50604051908082528060200260200182016040528015610b79578160200160208202803683370190505b5090508281600081518110610b8a57fe5b60200260200101818152505060005b6001835103811015610c2257600080610bdc87868581518110610bb857fe5b6020026020010151878660010181518110610bcf57fe5b60200260200101516114f9565b91509150610bfe848481518110610bef57fe5b602002602001015183836115c7565b848460010181518110610c0d57fe5b60209081029190910101525050600101610b99565b509392505050565b600754604080516370a0823160e01b8152306004820152905160009283926001600160a01b03909116916370a0823191602480820192602092909190829003018186803b158015610c7a57600080fd5b505afa158015610c8e573d6000803e3d6000fd5b505050506040513d6020811015610ca457600080fd5b50516007549091506000908190610cc59088906001600160a01b03166116ab565b915091506000610cd6898484611439565b9050600080896001600160a01b0316856001600160a01b031614610cfc57886000610d00565b6000895b91509150610d0f8a848a61111f565b604080516000808252602082019283905263022c0d9f60e01b835260248201858152604483018590523060648401819052608060848501908152845160a486018190526001600160a01b038a169663022c0d9f968a968a9691949193919260c486019290918190849084905b83811015610d93578181015183820152602001610d7b565b50505050905090810190601f168015610dc05780820380516001836020036101000a031916815260200191505b5095505050505050600060405180830381600087803b158015610de257600080fd5b505af1158015610df6573d6000803e3d6000fd5b5050600754604080516370a0823160e01b81523060048201529051610e8394508a93506001600160a01b03909216916370a0823191602480820192602092909190829003018186803b158015610e4b57600080fd5b505afa158015610e5f573d6000803e3d6000fd5b505050506040513d6020811015610e7557600080fd5b50519063ffffffff61178916565b9b9a5050505050505050505050565b600854604080516370a0823160e01b8152306004820152905160009283926001600160a01b03909116916370a0823191602480820192602092909190829003018186803b158015610ee257600080fd5b505afa158015610ef6573d6000803e3d6000fd5b505050506040513d6020811015610f0c57600080fd5b50516008549091506000908190610f2d9088906001600160a01b03166116ab565b915091506000610f3e898484611439565b9050600080896001600160a01b0316856001600160a01b031614610f6457886000610f68565b6000895b91509150610f778a848a61111f565b604080516000808252602082019283905263022c0d9f60e01b835260248201858152604483018590523060648401819052608060848501908152845160a486018190526001600160a01b038a169663022c0d9f968a968a9691949193919260c486019290918190849084905b83811015610ffb578181015183820152602001610fe3565b50505050905090810190601f1680156110285780820380516001836020036101000a031916815260200191505b5095505050505050600060405180830381600087803b15801561104a57600080fd5b505af115801561105e573d6000803e3d6000fd5b5050600854604080516370a0823160e01b81523060048201529051610e8394508a93506001600160a01b03909216916370a0823191602480820192602092909190829003018186803b158015610e4b57600080fd5b6000808211611109576040805162461bcd60e51b815260206004820152601a60248201527f536166654d6174683a206469766973696f6e206279207a65726f000000000000604482015290519081900360640190fd5b600082848161111457fe5b049150505b92915050565b604080516001600160a01b038481166024830152604480830185905283518084039091018152606490920183526020820180516001600160e01b031663a9059cbb60e01b178152925182516000946060949389169392918291908083835b6020831061119c5780518252601f19909201916020918201910161117d565b6001836020036101000a0380198251168184511680821785525050505050509050019150506000604051808303816000865af19150503d80600081146111fe576040519150601f19603f3d011682016040523d82523d6000602084013e611203565b606091505b5091509150818015611231575080511580611231575080806020019051602081101561122e57600080fd5b50515b610419576040805162461bcd60e51b815260206004820152601f60248201527f5472616e7366657248656c7065723a205452414e534645525f4641494c454400604482015290519081900360640190fd5b60006112ab61177061129f6006544361178990919063ffffffff16565b9063ffffffff6110b316565b905060006112b8826117d9565b60008381526003602052604090205490915081906112ee9087906112e2908263ffffffff61183416565b9063ffffffff61183416565b111561131e5760008281526003602052604090205461131b9060029061129f90849063ffffffff61178916565b94505b84156104195760075460408051631207f0c160e01b81526001600160a01b0386811660048301526024820189905291519190921691631207f0c191604480830192600092919082900301818387803b15801561137957600080fd5b505af115801561138d573d6000803e3d6000fd5b505060075460408051631207f0c160e01b81526001600160a01b038981166004830152602482018b90529151919092169350631207f0c19250604480830192600092919082900301818387803b1580156113e657600080fd5b505af11580156113fa573d6000803e3d6000fd5b505050600083815260036020526040902054611423915086906112e2908263ffffffff61183416565b6000838152600360205260409020555050505050565b600080600061144885856116ab565b604080516bffffffffffffffffffffffff19606094851b811660208084019190915293851b81166034830152825160288184030181526048830184528051908501206001600160f81b031960688401529a90941b9093166069840152607d8301989098527ff4e5803448f77627e58466881f39037111359a1aef599373b9f33b33cbf00106609d808401919091528851808403909101815260bd909201909752805196019590952095945050505050565b600080600061150885856116ab565b509050600080611519888888611439565b6001600160a01b0316630902f1ac6040518163ffffffff1660e01b815260040160606040518083038186803b15801561155157600080fd5b505afa158015611565573d6000803e3d6000fd5b505050506040513d606081101561157b57600080fd5b5080516020909101516dffffffffffffffffffffffffffff91821693501690506001600160a01b03878116908416146115b55780826115b8565b81815b90999098509650505050505050565b60008084116116075760405162461bcd60e51b815260040180806020018281038252602a8152602001806118e7602a913960400191505060405180910390fd5b6000831180156116175750600082115b6116525760405162461bcd60e51b81526004018080602001828103825260278152602001806119116027913960400191505060405180910390fd5b6000611666856103e563ffffffff61188316565b9050600061167a828563ffffffff61188316565b90506000611694836112e2886103e863ffffffff61188316565b905080828161169f57fe5b04979650505050505050565b600080826001600160a01b0316846001600160a01b031614156116ff5760405162461bcd60e51b81526004018080602001828103825260248152602001806119386024913960400191505060405180910390fd5b826001600160a01b0316846001600160a01b03161061171f578284611722565b83835b90925090506001600160a01b038216611782576040805162461bcd60e51b815260206004820152601d60248201527f4d696e69737761704c6962726172793a205a45524f5f41444452455353000000604482015290519081900360640190fd5b9250929050565b80820382811115611119576040805162461bcd60e51b815260206004820152601560248201527464732d6d6174682d7375622d756e646572666c6f7760581b604482015290519081900360640190fd5b6000806117ed83601e63ffffffff6110b316565b90506903cfc82e37e9a74000009150600a81101561182e5761182b600a82900a61129f6969e10de76676d0800000600785900a63ffffffff61188316565b91505b50919050565b80820182811015611119576040805162461bcd60e51b815260206004820152601460248201527364732d6d6174682d6164642d6f766572666c6f7760601b604482015290519081900360640190fd5b600081158061189e5750508082028282828161189b57fe5b04145b611119576040805162461bcd60e51b815260206004820152601460248201527364732d6d6174682d6d756c2d6f766572666c6f7760601b604482015290519081900360640190fdfe4d696e69737761704c6962726172793a20494e53554646494349454e545f494e5055545f414d4f554e544d696e69737761704c6962726172793a20494e53554646494349454e545f4c49515549444954594d696e69737761704c6962726172793a204944454e544943414c5f4144445245535345535472616e7366657248656c7065723a205452414e534645525f46524f4d5f4641494c4544a2646970667358221220abb46fb3310e5a34f3aadd77c7db7d76b20dee7679145a534c43c330ed85d35e64736f6c63430006090033",
  "immutableReferences": {},
  "source": "// SPDX-License-Identifier: SimPL-2.0\npragma solidity=0.6.9;\n\nimport './interfaces/IMiniswapMiner.sol';\nimport './libraries/TransferHelper.sol';\nimport './interfaces/IMiniswapPair.sol';\nimport './libraries/MiniswapLibrary.sol';\nimport './interfaces/IERC20.sol';\nimport './libraries/SafeMath.sol';\nimport './interfaces/IMini.sol';\n\ncontract MiniswapMiner is IMiniswapMiner{\n    using SafeMath for uint;\n    \n    address public override owner;\n    address public override feeder;\n\n    mapping(address=>bool) public override whitelistMap;\n    mapping(uint256=>uint256) public override mineInfo; // day=>issueAmount\n    mapping(address=>uint256) private balances;\n    \n    uint256 public override minFee;\n\n    uint256 firstTxHeight;\n    address MINI;\n    address USDT;\n    mapping (uint=>mapping(address=>bool)) rewardMap;\n    mapping (uint=>uint) rewardAmountByRoundMap;\n\n    constructor(uint256 _minFee,address _mini,address _usdt,address _feeder) public {\n        owner = msg.sender;\n        minFee = _minFee;\n        MINI = _mini;\n        USDT = _usdt;\n        feeder = _feeder;\n        firstTxHeight = block.number;\n    }\n\n    modifier isOwner(){\n        require(msg.sender == owner,\"forbidden:owner\");\n        _;\n    }\n\n    modifier isWhiteAddress(){\n        require(whitelistMap[msg.sender] == true,\"forbidden:whitelist\");\n        _;\n    }\n\n    function getToken(address token,address to) public isOwner() {\n        uint256 balance = IERC20(token).balanceOf(address(this));\n        IERC20(token).transfer(to,balance);\n    }\n\n    function changeMinFee(uint256 _minFee) override public isOwner() {\n        minFee = _minFee;\n    }\n\n    function addWhitelist(address pair) override public isOwner() {\n        whitelistMap[pair] = true;\n    }\n\n    function addWhitelistByTokens(address factory ,address token0,address token1) override public isOwner() {\n        address pair = MiniswapLibrary.pairFor(factory, token0, token1);\n        addWhitelist(pair);\n    }\n\n    function removeWhitelist(address pair) override public isOwner() {\n        whitelistMap[pair] = false;\n    }\n\n    function removeWhitelistByTokens(address factory ,address token0,address token1) override public isOwner() {\n        address pair = MiniswapLibrary.pairFor(factory, token0, token1);\n        removeWhitelist(pair);\n    }\n\n    function mining(address factory,address feeTemp,address to,address token,uint amount) override public isWhiteAddress(){\n        TransferHelper.safeTransferFrom(token,msg.sender,address(this),amount);\n        uint issueAmount;\n        uint miniAmount;\n        if (token == MINI){\n            //send half of increment to address0,the other send to feeder\n            issueAmount = amount;\n            miniAmount = amount;\n        } else if (token == USDT) {\n            //get price from token-USDT-MINI\n            address[] memory path = new address[](2);\n            path[0] = token;\n            path[1] = MINI;\n            uint256[] memory amountsOut = MiniswapLibrary.getAmountsOut(factory,amount,path); //[USDTAmountOut,MINIAmountOut]\n            issueAmount = amountsOut[1];\n            //only mine when usdtout more than minFee\n            if(issueAmount<= minFee)\n                return;\n            miniAmount = swapMini(factory,USDT,issueAmount,amountsOut[0]); //usdt-->mini\n        } else {\n         //get price from token-USDT-MINI\n            address[] memory path = new address[](3);\n            path[0] = token;\n            path[1] = USDT;\n            path[2] = MINI;\n            uint256[] memory amountsOut = MiniswapLibrary.getAmountsOut(factory,amount,path); //[tokenAmountOut,USDTAmountOut,MINIAmountOut]\n            issueAmount = amountsOut[2];\n            //only mine when usdtout more than minFee\n            if(issueAmount<= minFee)\n                return;\n            uint usdtAmount = swapUsdt(factory,token,amountsOut[1],amount); //token-->usdt\n            miniAmount = swapMini(factory,USDT,issueAmount,usdtAmount); //usdt-->mini\n        }\n        //send half of increment to address0,the other half send to feeder\n        TransferHelper.safeTransfer(MINI,address(0x1111111111111111111111111111111111111111), miniAmount.div(2));\n        TransferHelper.safeTransfer(MINI,feeder, miniAmount.div(2));\n        issueMini(issueAmount,feeTemp,to);\n    }\n\n    function swapUsdt(address factory, address token,uint usdtAmount,uint amount) internal returns(uint){\n        uint256 balance0 = IERC20(USDT).balanceOf(address(this));\n        (address token0,address token1) = MiniswapLibrary.sortTokens(token,USDT);\n        address pair_token_usdt = MiniswapLibrary.pairFor(factory,token0,token1);\n        (uint amount0Out ,uint amount1Out) = token0==token ? (uint(0),usdtAmount):(usdtAmount,uint(0));\n        TransferHelper.safeTransfer(token,pair_token_usdt,amount); //send token to pair\n        IMiniswapPair(pair_token_usdt).swap(\n                amount0Out, amount1Out, address(this), new bytes(0)\n            );\n        return IERC20(USDT).balanceOf(address(this)).sub(balance0);\n    }\n\n    function swapMini(address factory, address token,uint issueAmount,uint amount) internal returns(uint){\n        uint256 balance0 = IERC20(MINI).balanceOf(address(this));\n        (address token0,address token1) = MiniswapLibrary.sortTokens(token,MINI);\n        address pair_token_mini = MiniswapLibrary.pairFor(factory,token0,token1);\n        (uint amount0Out ,uint amount1Out) = token0==token ? (uint(0),issueAmount):(issueAmount,uint(0));\n        TransferHelper.safeTransfer(token,pair_token_mini,amount); //send token to pair\n        IMiniswapPair(pair_token_mini).swap(\n                amount0Out, amount1Out, address(this), new bytes(0)\n            );\n        return IERC20(MINI).balanceOf(address(this)).sub(balance0);\n    }\n\n    function issueMini(uint256 issueAmount,address feeTemp,address to) internal {\n        ///////The 6000 block height is one day, 30 day is one month\n        uint durationDay = (block.number.sub(firstTxHeight)).div(6000);\n        uint256 issueAmountLimit = MiniswapLibrary.getIssueAmountLimit(durationDay);\n        //issue mini to liquilidity && user\n        if( mineInfo[durationDay].add(issueAmount).add(issueAmount) > issueAmountLimit){\n            issueAmount = issueAmountLimit.sub( mineInfo[durationDay]).div(2);\n        }\n        if(issueAmount > 0){\n            IMini(MINI).issueTo(to,issueAmount);\n            IMini(MINI).issueTo(feeTemp,issueAmount);\n            mineInfo[durationDay] = mineInfo[durationDay].add(issueAmount).add(issueAmount);\n        }\n    }\n}",
  "sourcePath": "/Users/yinwei/work/miniswap/contracts/MiniswapMiner.sol",
  "compiler": {
    "name": "solc",
    "version": "0.6.9+commit.3e3065ac.Emscripten.clang"
  },
  "schemaVersion": "3.2.1",
  "updatedAt": "2020-08-18T13:44:49.627Z",
  "devdoc": {
    "methods": {}
  },
  "userdoc": {
    "methods": {}
  }
}