{
  "contractName": "MiniswapFactory",
  "abi": [
    {
      "inputs": [
        {
          "internalType": "address",
          "name": "_miner",
          "type": "address"
        },
        {
          "internalType": "address",
          "name": "_mini",
          "type": "address"
        },
        {
          "internalType": "address",
          "name": "_feeToSetter",
          "type": "address"
        }
      ],
      "stateMutability": "nonpayable",
      "type": "constructor"
    },
    {
      "anonymous": false,
      "inputs": [
        {
          "indexed": true,
          "internalType": "address",
          "name": "token0",
          "type": "address"
        },
        {
          "indexed": true,
          "internalType": "address",
          "name": "token1",
          "type": "address"
        },
        {
          "indexed": false,
          "internalType": "address",
          "name": "pair",
          "type": "address"
        },
        {
          "indexed": false,
          "internalType": "uint256",
          "name": "",
          "type": "uint256"
        }
      ],
      "name": "PairCreated",
      "type": "event"
    },
    {
      "inputs": [],
      "name": "MINI",
      "outputs": [
        {
          "internalType": "address",
          "name": "",
          "type": "address"
        }
      ],
      "stateMutability": "view",
      "type": "function"
    },
    {
      "inputs": [
        {
          "internalType": "uint256",
          "name": "",
          "type": "uint256"
        }
      ],
      "name": "allPairs",
      "outputs": [
        {
          "internalType": "address",
          "name": "",
          "type": "address"
        }
      ],
      "stateMutability": "view",
      "type": "function"
    },
    {
      "inputs": [],
      "name": "feeTo",
      "outputs": [
        {
          "internalType": "address",
          "name": "",
          "type": "address"
        }
      ],
      "stateMutability": "view",
      "type": "function"
    },
    {
      "inputs": [],
      "name": "feeToSetter",
      "outputs": [
        {
          "internalType": "address",
          "name": "",
          "type": "address"
        }
      ],
      "stateMutability": "view",
      "type": "function"
    },
    {
      "inputs": [
        {
          "internalType": "address",
          "name": "",
          "type": "address"
        },
        {
          "internalType": "address",
          "name": "",
          "type": "address"
        }
      ],
      "name": "getPair",
      "outputs": [
        {
          "internalType": "address",
          "name": "",
          "type": "address"
        }
      ],
      "stateMutability": "view",
      "type": "function"
    },
    {
      "inputs": [],
      "name": "miner",
      "outputs": [
        {
          "internalType": "address",
          "name": "",
          "type": "address"
        }
      ],
      "stateMutability": "view",
      "type": "function"
    },
    {
      "inputs": [],
      "name": "allPairsLength",
      "outputs": [
        {
          "internalType": "uint256",
          "name": "",
          "type": "uint256"
        }
      ],
      "stateMutability": "view",
      "type": "function"
    },
    {
      "inputs": [
        {
          "internalType": "address",
          "name": "tokenA",
          "type": "address"
        },
        {
          "internalType": "address",
          "name": "tokenB",
          "type": "address"
        }
      ],
      "name": "createPair",
      "outputs": [
        {
          "internalType": "address",
          "name": "pair",
          "type": "address"
        }
      ],
      "stateMutability": "nonpayable",
      "type": "function"
    },
    {
      "inputs": [
        {
          "internalType": "address",
          "name": "_feeTo",
          "type": "address"
        }
      ],
      "name": "setFeeTo",
      "outputs": [],
      "stateMutability": "nonpayable",
      "type": "function"
    },
    {
      "inputs": [
        {
          "internalType": "address",
          "name": "_feeToSetter",
          "type": "address"
        }
      ],
      "name": "setFeeToSetter",
      "outputs": [],
      "stateMutability": "nonpayable",
      "type": "function"
    }
  ],
  "bytecode": "0x608060405234801561001057600080fd5b506040516136743803806136748339818101604052606081101561003357600080fd5b5080516020820151604090920151600180546001600160a01b03199081166001600160a01b0393841617909155600380548216948316949094179093556002805490931691161790556135e98061008b6000396000f3fe608060405234801561001057600080fd5b506004361061009e5760003560e01c8063574f2ba311610066578063574f2ba3146100fc578063a2e74af614610116578063c9c653961461013e578063e6a439051461016c578063f46901ed1461019a5761009e565b8063017e7e58146100a3578063094b7415146100c75780631e3dd18b146100cf578063349dc329146100ec5780633f190c70146100f4575b600080fd5b6100ab6101c0565b604080516001600160a01b039092168252519081900360200190f35b6100ab6101cf565b6100ab600480360360208110156100e557600080fd5b50356101de565b6100ab610205565b6100ab610214565b610104610223565b60408051918252519081900360200190f35b61013c6004803603602081101561012c57600080fd5b50356001600160a01b0316610229565b005b6100ab6004803603604081101561015457600080fd5b506001600160a01b03813581169160200135166102a2565b6100ab6004803603604081101561018257600080fd5b506001600160a01b03813581169160200135166105ef565b61013c600480360360208110156101b057600080fd5b50356001600160a01b0316610615565b6000546001600160a01b031681565b6001546001600160a01b031681565b600581815481106101eb57fe5b6000918252602090912001546001600160a01b0316905081565b6002546001600160a01b031681565b6003546001600160a01b031681565b60055490565b6001546001600160a01b03163314610280576040805162461bcd60e51b815260206004820152601560248201527426b4b734b9bbb0b82b191d102327a92124a22222a760591b604482015290519081900360640190fd5b600180546001600160a01b0319166001600160a01b0392909216919091179055565b6000816001600160a01b0316836001600160a01b0316141561030b576040805162461bcd60e51b815260206004820152601f60248201527f4d696e697377617056323a204944454e544943414c5f41444452455353455300604482015290519081900360640190fd5b600080836001600160a01b0316856001600160a01b03161061032e578385610331565b84845b90925090506001600160a01b038216610391576040805162461bcd60e51b815260206004820152601860248201527f4d696e697377617056323a205a45524f5f414444524553530000000000000000604482015290519081900360640190fd5b6001600160a01b0382811660009081526004602090815260408083208585168452909152902054161561040b576040805162461bcd60e51b815260206004820152601760248201527f4d696e697377617056323a20504149525f455849535453000000000000000000604482015290519081900360640190fd5b60606040518060200161041d9061068e565b6020820181038252601f19601f8201166040525090506000838360405160200180836001600160a01b03166001600160a01b031660601b8152601401826001600160a01b03166001600160a01b031660601b815260140192505050604051602081830303815290604052805190602001209050808251602084016000f560025460035460408051637c643b2f60e11b81526001600160a01b039384166004820152918316602483015287831660448301528683166064830152519297509087169163f8c8765e9160848082019260009290919082900301818387803b15801561050557600080fd5b505af1158015610519573d6000803e3d6000fd5b505050506001600160a01b0384811660008181526004602081815260408084208987168086529083528185208054978d166001600160a01b031998891681179091559383528185208686528352818520805488168517905560058054600181018255958190527f036b6384b5eca791c62761152d0c79bb0604c104a5fb6f4eb0703f3154bb3db090950180549097168417909655925483519283529082015281517f0d3648bd0f6ba80134a33ba9275ac585d9d315f0ad8355cddefde31afa28d0e9929181900390910190a35050505092915050565b60046020908152600092835260408084209091529082529020546001600160a01b031681565b6001546001600160a01b0316331461066c576040805162461bcd60e51b815260206004820152601560248201527426b4b734b9bbb0b82b191d102327a92124a22222a760591b604482015290519081900360640190fd5b600080546001600160a01b0319166001600160a01b0392909216919091179055565b612f188061069c8339019056fe60a06040526001600e5534801561001557600080fd5b506040514690806052612ec68239604080519182900360520182208282018252600b83526a26b4b734b9bbb0b8102b1960a91b6020938401528151808301835260018152603160f81b908401528151808401919091527f6cd1c20ddc31fa4fd3ff773504487b50c7c603edf16f5f1de0aeff7b4e396677818301527fc89efdaa54c0f20c7adf612882df0950f5a951637e0307cdcb4c672f298b8bc66060808301919091526080808301969096523060a0808401919091528351808403909101815260c0909201909252805192019190912060035533901b9091525060805160601c612da461012260003980610c925280610e015280611ce65280611f4252806129275250612da46000f3fe608060405234801561001057600080fd5b50600436106101cf5760003560e01c80636a62784211610104578063ba9a7a56116100a2578063d505accf11610071578063d505accf14610553578063dd62ed3e146105a4578063f8c8765e146105d2578063fff6cae914610610576101cf565b8063ba9a7a5614610515578063bc25cf771461051d578063c45a015514610543578063d21220a71461054b576101cf565b80637ecebe00116100de5780637ecebe001461047757806389afcb441461049d57806395d89b41146104e1578063a9059cbb146104e9576101cf565b80636a6278421461042357806370a08231146104495780637464fc3d1461046f576101cf565b806330adf81f116101715780633644e5151161014b5780633644e515146104035780633f190c701461040b5780635909c0d5146104135780635a3d54931461041b576101cf565b806330adf81f146103d5578063313ce567146103dd578063349dc329146103fb576101cf565b8063095ea7b3116101ad578063095ea7b3146103215780630dfe16811461036157806318160ddd1461038557806323b872dd1461039f576101cf565b8063022c0d9f146101d457806306fdde03146102625780630902f1ac146102df575b600080fd5b610260600480360360808110156101ea57600080fd5b8135916020810135916001600160a01b03604083013516919081019060808101606082013564010000000081111561022157600080fd5b82018360208201111561023357600080fd5b8035906020019184600183028401116401000000008311171561025557600080fd5b509092509050610618565b005b61026a611050565b6040805160208082528351818301528351919283929083019185019080838360005b838110156102a457818101518382015260200161028c565b50505050905090810190601f1680156102d15780820380516001836020036101000a031916815260200191505b509250505060405180910390f35b6102e7611077565b604080516001600160701b0395861681529385166020850152919093168282015263ffffffff909216606082015290519081900360800190f35b61034d6004803603604081101561033757600080fd5b506001600160a01b0381351690602001356110a6565b604080519115158252519081900360200190f35b6103696110bd565b604080516001600160a01b039092168252519081900360200190f35b61038d6110cc565b60408051918252519081900360200190f35b61034d600480360360608110156103b557600080fd5b506001600160a01b038135811691602081013590911690604001356110d2565b61038d61116c565b6103e5611190565b6040805160ff9092168252519081900360200190f35b610369611195565b61038d6111a4565b6103696111aa565b61038d6111b9565b61038d6111bf565b61038d6004803603602081101561043957600080fd5b50356001600160a01b03166111c5565b61038d6004803603602081101561045f57600080fd5b50356001600160a01b0316611616565b61038d611628565b61038d6004803603602081101561048d57600080fd5b50356001600160a01b031661162e565b6104c3600480360360208110156104b357600080fd5b50356001600160a01b0316611640565b60408051938452602084019290925282820152519081900360600190f35b61026a611b42565b61034d600480360360408110156104ff57600080fd5b506001600160a01b038135169060200135611b65565b61038d611b72565b6102606004803603602081101561053357600080fd5b50356001600160a01b0316611b78565b610369611ce4565b610369611d08565b610260600480360360e081101561056957600080fd5b506001600160a01b03813581169160208101359091169060408101359060608101359060ff6080820135169060a08101359060c00135611d17565b61038d600480360360408110156105ba57600080fd5b506001600160a01b0381358116916020013516611f1a565b610260600480360360808110156105e857600080fd5b506001600160a01b038135811691602081013582169160408201358116916060013516611f37565b610260612038565b60008511806106275750600084115b6106625760405162461bcd60e51b8152600401808060200182810382526026815260200180612d496026913960400191505060405180910390fd5b60008061066d611077565b505091509150816001600160701b0316871080156106935750806001600160701b031686105b6106ce5760405162461bcd60e51b8152600401808060200182810382526022815260200180612cfe6022913960400191505060405180910390fd5b60065460075460009182916001600160a01b0391821691908116908916821480159061070c5750806001600160a01b0316896001600160a01b031614155b610756576040805162461bcd60e51b81526020600482015260166024820152754d696e697377617056323a20494e56414c49445f544f60501b604482015290519081900360640190fd5b8a1561076757610767828a8d612212565b891561077857610778818a8c612212565b861561083357886001600160a01b031663bb40ce7f338d8d8c8c6040518663ffffffff1660e01b815260040180866001600160a01b03166001600160a01b03168152602001858152602001848152602001806020018281038252848482818152602001925080828437600081840152601f19601f8201169050808301925050509650505050505050600060405180830381600087803b15801561081a57600080fd5b505af115801561082e573d6000803e3d6000fd5b505050505b604080516370a0823160e01b815230600482015290516001600160a01b038416916370a08231916024808301926020929190829003018186803b15801561087957600080fd5b505afa15801561088d573d6000803e3d6000fd5b505050506040513d60208110156108a357600080fd5b5051604080516370a0823160e01b815230600482015290519195506001600160a01b038316916370a0823191602480820192602092909190829003018186803b1580156108ef57600080fd5b505afa158015610903573d6000803e3d6000fd5b505050506040513d602081101561091957600080fd5b5051925060009150506001600160701b0385168a9003831161093c57600061094b565b89856001600160701b03160383035b9050600089856001600160701b0316038311610968576000610977565b89856001600160701b03160383035b905060008211806109885750600081115b6109c35760405162461bcd60e51b8152600401808060200182810382526025815260200180612cd96025913960400191505060405180910390fd5b60006109f76109d984600363ffffffff6123ac16565b6109eb876103e863ffffffff6123ac16565b9063ffffffff61240f16565b90506000610a0f6109d984600363ffffffff6123ac16565b9050610a40620f4240610a346001600160701b038b8116908b1663ffffffff6123ac16565b9063ffffffff6123ac16565b610a50838363ffffffff6123ac16565b1015610a93576040805162461bcd60e51b815260206004820152600d60248201526c4d696e697377617056323a204b60981b604482015290519081900360640190fd5b505060408051838152602081018390528082018d9052606081018c905290516001600160a01b038b169133917fd78ad95fa46c994b6551d0da85fc275fe613ce37657fb8d5e3d130840159d8229181900360800190a360055460408051630c94c70f60e21b815230600482015290516000926001600160a01b0316916332531c3c916024808301926020929190829003018186803b158015610b3457600080fd5b505afa158015610b48573d6000803e3d6000fd5b505050506040513d6020811015610b5e57600080fd5b50519050808015610b7a57506005546001600160a01b03163314155b15610ed5576000610ba46103e8610b9886600363ffffffff6123ac16565b9063ffffffff61245f16565b90506000610bbf6103e8610b9886600363ffffffff6123ac16565b90508115610d6357600854604080516370a0823160e01b81523060048201529051610c4f92858b03928a926001600160a01b03909216916370a0823191602480820192602092909190829003018186803b158015610c1c57600080fd5b505afa158015610c30573d6000803e3d6000fd5b505050506040513d6020811015610c4657600080fd5b50518c8c6124c9565b600654600554610c6c916001600160a01b039081169116846126a3565b600560009054906101000a90046001600160a01b03166001600160a01b031663ea47186f7f00000000000000000000000000000000000000000000000000000000000000008e600660009054906101000a90046001600160a01b0316866040518563ffffffff1660e01b815260040180856001600160a01b03166001600160a01b03168152602001846001600160a01b03166001600160a01b03168152602001836001600160a01b03166001600160a01b03168152602001828152602001945050505050600060405180830381600087803b158015610d4a57600080fd5b505af1158015610d5e573d6000803e3d6000fd5b505050505b8015610ed257600854604080516370a0823160e01b81523060048201529051610dbe928a92858b03926001600160a01b03909216916370a0823191602480820192602092909190829003018186803b158015610c1c57600080fd5b600754600554610ddb916001600160a01b039081169116836126a3565b600560009054906101000a90046001600160a01b03166001600160a01b031663ea47186f7f00000000000000000000000000000000000000000000000000000000000000008e600760009054906101000a90046001600160a01b0316856040518563ffffffff1660e01b815260040180856001600160a01b03166001600160a01b03168152602001846001600160a01b03166001600160a01b03168152602001836001600160a01b03166001600160a01b03168152602001828152602001945050505050600060405180830381600087803b158015610eb957600080fd5b505af1158015610ecd573d6000803e3d6000fd5b505050505b50505b50600654604080516370a0823160e01b81523060048201529051611043926001600160a01b0316916370a08231916024808301926020929190829003018186803b158015610f2257600080fd5b505afa158015610f36573d6000803e3d6000fd5b505050506040513d6020811015610f4c57600080fd5b5051600754604080516370a0823160e01b815230600482015290516001600160a01b03909216916370a0823191602480820192602092909190829003018186803b158015610f9957600080fd5b505afa158015610fad573d6000803e3d6000fd5b505050506040513d6020811015610fc357600080fd5b5051600854604080516370a0823160e01b815230600482015290516001600160a01b03909216916370a0823191602480820192602092909190829003018186803b15801561101057600080fd5b505afa158015611024573d6000803e3d6000fd5b505050506040513d602081101561103a57600080fd5b505189896124c9565b5050505050505050505050565b6040518060400160405280600b81526020016a26b4b734b9bbb0b8102b1960a91b81525081565b600954600a546001600160701b0380831693600160701b93849004821693918316929190910463ffffffff1690565b60006110b3338484612806565b5060015b92915050565b6006546001600160a01b031681565b60005481565b6001600160a01b038316600090815260026020908152604080832033845290915281205460001914611157576001600160a01b0384166000908152600260209081526040808320338452909152902054611132908363ffffffff61240f16565b6001600160a01b03851660009081526002602090815260408083203384529091529020555b611162848484612868565b5060019392505050565b7f6e71edae12b1b97f4d1f60370fef10105fa2faae0126114a169c64845d6126c981565b601281565b6005546001600160a01b031681565b60035481565b6008546001600160a01b031681565b600b5481565b600c5481565b6000600e54600114611213576040805162461bcd60e51b8152602060048201526012602482015271135a5b9a5cddd85c158c8e881313d0d2d15160721b604482015290519081900360640190fd5b6000600e8190558080611224611077565b50600654604080516370a0823160e01b815230600482015290519497509295509093506000926001600160a01b03909116916370a08231916024808301926020929190829003018186803b15801561127b57600080fd5b505afa15801561128f573d6000803e3d6000fd5b505050506040513d60208110156112a557600080fd5b5051600754604080516370a0823160e01b815230600482015290519293506000926001600160a01b03909216916370a0823191602480820192602092909190829003018186803b1580156112f857600080fd5b505afa15801561130c573d6000803e3d6000fd5b505050506040513d602081101561132257600080fd5b5051600854604080516370a0823160e01b815230600482015290519293506000926001600160a01b03909216916370a0823191602480820192602092909190829003018186803b15801561137557600080fd5b505afa158015611389573d6000803e3d6000fd5b505050506040513d602081101561139f57600080fd5b5051905060006113be846001600160701b03891663ffffffff61240f16565b905060006113db846001600160701b03891663ffffffff61240f16565b905060006113f8846001600160701b03891663ffffffff61240f16565b905060006114068a8a612922565b600054909150806114435761142f6103e86109eb61142a888863ffffffff6123ac16565b612a8b565b9b5061143e60006103e8612add565b611537565b61148f6001600160701b038c16611460878463ffffffff6123ac16565b8161146757fe5b046001600160701b038c16611482878563ffffffff6123ac16565b8161148957fe5b04612b73565b60055460408051630c94c70f60e21b81523060048201529051929e506000926001600160a01b03909216916332531c3c91602480820192602092909190829003018186803b1580156114e057600080fd5b505afa1580156114f4573d6000803e3d6000fd5b505050506040513d602081101561150a57600080fd5b505190508015611535576115328d6001600160701b038c16611482878663ffffffff6123ac16565b9c505b505b60008c116115765760405162461bcd60e51b8152600401808060200182810382526029815260200180612cb06029913960400191505060405180910390fd5b6115808d8d612add565b61158d8888888e8e6124c9565b81156115bd576009546115b9906001600160701b0380821691600160701b90041663ffffffff6123ac16565b600d555b6040805186815260208101869052808201859052905133917fb4c03061fb5b7fed76389d5af8f2e0ddb09f8c70d1333abbb62582835e10accb919081900360600190a250506001600e5550979998505050505050505050565b60016020526000908152604090205481565b600d5481565b60046020526000908152604090205481565b6000806000600e54600114611691576040805162461bcd60e51b8152602060048201526012602482015271135a5b9a5cddd85c158c8e881313d0d2d15160721b604482015290519081900360640190fd5b6000600e819055806116a1611077565b5050600654600754604080516370a0823160e01b815230600482015290519496509294506001600160a01b039182169391169160009184916370a08231916024808301926020929190829003018186803b1580156116fe57600080fd5b505afa158015611712573d6000803e3d6000fd5b505050506040513d602081101561172857600080fd5b5051604080516370a0823160e01b815230600482015290519192506000916001600160a01b038516916370a08231916024808301926020929190829003018186803b15801561177657600080fd5b505afa15801561178a573d6000803e3d6000fd5b505050506040513d60208110156117a057600080fd5b5051600854604080516370a0823160e01b815230600482015290519293506000926001600160a01b03909216916370a0823191602480820192602092909190829003018186803b1580156117f357600080fd5b505afa158015611807573d6000803e3d6000fd5b505050506040513d602081101561181d57600080fd5b50513060009081526001602052604081205491925061183c8989612922565b60005490915080611853848863ffffffff6123ac16565b8161185a57fe5b049c508061186e848763ffffffff6123ac16565b8161187557fe5b049b5080611889848663ffffffff6123ac16565b8161189057fe5b6008549190049b50600160a01b900460ff16156118ac5760009a505b60008d1180156118bc575060008c115b6118f75760405162461bcd60e51b8152600401808060200182810382526029815260200180612d206029913960400191505060405180910390fd5b6119013084612b8b565b61190c888f8f612212565b611917878f8e612212565b60085461192e906001600160a01b03168f8d612212565b604080516370a0823160e01b815230600482015290516001600160a01b038a16916370a08231916024808301926020929190829003018186803b15801561197457600080fd5b505afa158015611988573d6000803e3d6000fd5b505050506040513d602081101561199e57600080fd5b5051604080516370a0823160e01b815230600482015290519197506001600160a01b038916916370a0823191602480820192602092909190829003018186803b1580156119ea57600080fd5b505afa1580156119fe573d6000803e3d6000fd5b505050506040513d6020811015611a1457600080fd5b5051600854604080516370a0823160e01b815230600482015290519297506001600160a01b03909116916370a0823191602480820192602092909190829003018186803b158015611a6457600080fd5b505afa158015611a78573d6000803e3d6000fd5b505050506040513d6020811015611a8e57600080fd5b50519350611a9f8686868d8d6124c9565b8115611acf57600954611acb906001600160701b0380821691600160701b90041663ffffffff6123ac16565b600d555b8d6001600160a01b0316336001600160a01b03167fd175a80c109434bb89948928ab2475a6647c94244cb70002197896423c8833638f8f8f60405180848152602001838152602001828152602001935050505060405180910390a350506001600e5550989a979950959750505050505050565b6040518060400160405280600781526020016626a4a72496ab1960c91b81525081565b60006110b3338484612868565b6103e881565b600e54600114611bc4576040805162461bcd60e51b8152602060048201526012602482015271135a5b9a5cddd85c158c8e881313d0d2d15160721b604482015290519081900360640190fd5b6000600e55600654600754600954604080516370a0823160e01b815230600482015290516001600160a01b039485169490931692611c739285928792611c6e926001600160701b03169185916370a0823191602480820192602092909190829003018186803b158015611c3657600080fd5b505afa158015611c4a573d6000803e3d6000fd5b505050506040513d6020811015611c6057600080fd5b50519063ffffffff61240f16565b612212565b600954604080516370a0823160e01b81523060048201529051611cda9284928792611c6e92600160701b90046001600160701b0316916001600160a01b038616916370a0823191602480820192602092909190829003018186803b158015611c3657600080fd5b50506001600e5550565b7f000000000000000000000000000000000000000000000000000000000000000081565b6007546001600160a01b031681565b42841015611d62576040805162461bcd60e51b8152602060048201526013602482015272135a5b9a5cddd85c158c8e8811561412549151606a1b604482015290519081900360640190fd5b6003546001600160a01b0380891660008181526004602090815260408083208054600180820190925582517f6e71edae12b1b97f4d1f60370fef10105fa2faae0126114a169c64845d6126c98186015280840196909652958d166060860152608085018c905260a085019590955260c08085018b90528151808603909101815260e08501825280519083012061190160f01b6101008601526101028501969096526101228085019690965280518085039096018652610142840180825286519683019690962095839052610162840180825286905260ff89166101828501526101a284018890526101c28401879052519193926101e280820193601f1981019281900390910190855afa158015611e7d573d6000803e3d6000fd5b5050604051601f1901519150506001600160a01b03811615801590611eb35750886001600160a01b0316816001600160a01b0316145b611f04576040805162461bcd60e51b815260206004820152601d60248201527f4d696e697377617056323a20494e56414c49445f5349474e4154555245000000604482015290519081900360640190fd5b611f0f898989612806565b505050505050505050565b600260209081526000928352604080842090915290825290205481565b336001600160a01b037f00000000000000000000000000000000000000000000000000000000000000001614611fac576040805162461bcd60e51b815260206004820152601560248201527426b4b734b9bbb0b82b191d102327a92124a22222a760591b604482015290519081900360640190fd5b600580546001600160a01b038087166001600160a01b0319928316179092556008805486841690831617908190556006805486851690841617908190556007805486861694169390931790925582169116148061201957506007546008546001600160a01b039081169116145b15612032576008805460ff60a01b1916600160a01b1790555b50505050565b600e54600114612084576040805162461bcd60e51b8152602060048201526012602482015271135a5b9a5cddd85c158c8e881313d0d2d15160721b604482015290519081900360640190fd5b6000600e55600654604080516370a0823160e01b8152306004820152905161220b926001600160a01b0316916370a08231916024808301926020929190829003018186803b1580156120d557600080fd5b505afa1580156120e9573d6000803e3d6000fd5b505050506040513d60208110156120ff57600080fd5b5051600754604080516370a0823160e01b815230600482015290516001600160a01b03909216916370a0823191602480820192602092909190829003018186803b15801561214c57600080fd5b505afa158015612160573d6000803e3d6000fd5b505050506040513d602081101561217657600080fd5b5051600854604080516370a0823160e01b815230600482015290516001600160a01b03909216916370a0823191602480820192602092909190829003018186803b1580156121c357600080fd5b505afa1580156121d7573d6000803e3d6000fd5b505050506040513d60208110156121ed57600080fd5b50516009546001600160701b0380821691600160701b9004166124c9565b6001600e55565b604080518082018252601981527f7472616e7366657228616464726573732c75696e74323536290000000000000060209182015281516001600160a01b0385811660248301526044808301869052845180840390910181526064909201845291810180516001600160e01b031663a9059cbb60e01b1781529251815160009460609489169392918291908083835b602083106122bf5780518252601f1990920191602091820191016122a0565b6001836020036101000a0380198251168184511680821785525050505050509050019150506000604051808303816000865af19150503d8060008114612321576040519150601f19603f3d011682016040523d82523d6000602084013e612326565b606091505b5091509150818015612354575080511580612354575080806020019051602081101561235157600080fd5b50515b6123a5576040805162461bcd60e51b815260206004820152601b60248201527f4d696e697377617056323a205452414e534645525f4641494c45440000000000604482015290519081900360640190fd5b5050505050565b60008115806123c7575050808202828282816123c457fe5b04145b6110b7576040805162461bcd60e51b815260206004820152601460248201527364732d6d6174682d6d756c2d6f766572666c6f7760601b604482015290519081900360640190fd5b808203828111156110b7576040805162461bcd60e51b815260206004820152601560248201527464732d6d6174682d7375622d756e646572666c6f7760581b604482015290519081900360640190fd5b60008082116124b5576040805162461bcd60e51b815260206004820152601a60248201527f536166654d6174683a206469766973696f6e206279207a65726f000000000000604482015290519081900360640190fd5b60008284816124c057fe5b04949350505050565b6001600160701b0385118015906124e757506001600160701b038411155b61252f576040805162461bcd60e51b81526020600482015260146024820152734d696e697377617056323a204f564552464c4f5760601b604482015290519081900360640190fd5b600a5463ffffffff42811691600160701b9004811682039081161580159061255f57506001600160701b03841615155b801561257357506001600160701b03831615155b156125e4578063ffffffff166125a18561258c86612c29565b6001600160e01b03169063ffffffff612c3b16565b600b80546001600160e01b03929092169290920201905563ffffffff81166125cc8461258c87612c29565b600c80546001600160e01b0392909216929092020190555b600980546dffffffffffffffffffffffffffff199081166001600160701b038a8116919091176dffffffffffffffffffffffffffff60701b1916600160701b8a831681029190911793849055600a80549093168983161763ffffffff60701b191663ffffffff871682021792839055604080518584168152919094048216602082015291168183015290517f399e76c4388ed3c1e54d08398fe6212304d1d3fda14412ba44b2e51f1e423e9c916060908290030190a150505050505050565b604080516001600160a01b038481166024830152604480830185905283518084039091018152606490920183526020820180516001600160e01b031663095ea7b360e01b178152925182516000946060949389169392918291908083835b602083106127205780518252601f199092019160209182019101612701565b6001836020036101000a0380198251168184511680821785525050505050509050019150506000604051808303816000865af19150503d8060008114612782576040519150601f19603f3d011682016040523d82523d6000602084013e612787565b606091505b50915091508180156127b55750805115806127b557508080602001905160208110156127b257600080fd5b50515b6123a5576040805162461bcd60e51b815260206004820152601e60248201527f5472616e7366657248656c7065723a20415050524f56455f4641494c45440000604482015290519081900360640190fd5b6001600160a01b03808416600081815260026020908152604080832094871680845294825291829020859055815185815291517f8c5be1e5ebec7d5bd14f71427d1e84f3dd0314c0f7b2291e5b200ac8c7c3b9259281900390910190a3505050565b6001600160a01b038316600090815260016020526040902054612891908263ffffffff61240f16565b6001600160a01b0380851660009081526001602052604080822093909355908416815220546128c6908263ffffffff612c6016565b6001600160a01b0380841660008181526001602090815260409182902094909455805185815290519193928716927fddf252ad1be2c89b69c2b068fc378daa952ba7f163c4a11628f55a4df523b3ef92918290030190a3505050565b6000807f00000000000000000000000000000000000000000000000000000000000000006001600160a01b031663017e7e586040518163ffffffff1660e01b815260040160206040518083038186803b15801561297e57600080fd5b505afa158015612992573d6000803e3d6000fd5b505050506040513d60208110156129a857600080fd5b5051600d546001600160a01b038216158015945091925090612a77578015612a725760006129eb61142a6001600160701b0388811690881663ffffffff6123ac16565b905060006129f883612a8b565b905080821115612a6f576000612a26612a17848463ffffffff61240f16565b6000549063ffffffff6123ac16565b90506000612a4b83612a3f86600563ffffffff6123ac16565b9063ffffffff612c6016565b90506000818381612a5857fe5b0490508015612a6b57612a6b8782612add565b5050505b50505b612a83565b8015612a83576000600d555b505092915050565b60006003821115612ace575080600160028204015b81811015612ac857809150600281828581612ab757fe5b040181612ac057fe5b049050612aa0565b50612ad8565b8115612ad8575060015b919050565b600054612af0908263ffffffff612c6016565b60009081556001600160a01b038316815260016020526040902054612b1b908263ffffffff612c6016565b6001600160a01b03831660008181526001602090815260408083209490945583518581529351929391927fddf252ad1be2c89b69c2b068fc378daa952ba7f163c4a11628f55a4df523b3ef9281900390910190a35050565b6000818310612b825781612b84565b825b9392505050565b6001600160a01b038216600090815260016020526040902054612bb4908263ffffffff61240f16565b6001600160a01b03831660009081526001602052604081209190915554612be1908263ffffffff61240f16565b60009081556040805183815290516001600160a01b038516917fddf252ad1be2c89b69c2b068fc378daa952ba7f163c4a11628f55a4df523b3ef919081900360200190a35050565b6001600160701b0316600160701b0290565b60006001600160701b0382166001600160e01b03841681612c5857fe5b049392505050565b808201828110156110b7576040805162461bcd60e51b815260206004820152601460248201527364732d6d6174682d6164642d6f766572666c6f7760601b604482015290519081900360640190fdfe4d696e697377617056323a20494e53554646494349454e545f4c49515549444954595f4d494e5445444d696e697377617056323a20494e53554646494349454e545f494e5055545f414d4f554e544d696e697377617056323a20494e53554646494349454e545f4c49515549444954594d696e697377617056323a20494e53554646494349454e545f4c49515549444954595f4255524e45444d696e697377617056323a20494e53554646494349454e545f4f55545055545f414d4f554e54a2646970667358221220853869b0532b86805ad47b4bd50a6a67d046fad9ad7736f772b3522f918a60b564736f6c63430006090033454950373132446f6d61696e28737472696e67206e616d652c737472696e672076657273696f6e2c75696e7432353620636861696e49642c6164647265737320766572696679696e67436f6e747261637429a264697066735822122074d08338182c36c5948399a5222d81196e6da9784e6dc6de5a4c9224d106625364736f6c63430006090033",
  "immutableReferences": {},
  "source": "// SPDX-License-Identifier: SimPL-2.0\npragma solidity=0.6.9;\n\nimport './interfaces/IMiniswapFactory.sol';\nimport './interfaces/IMiniswapMiner.sol';\nimport './MiniswapPair.sol';\nimport './MiniswapMiner.sol';\n\ncontract MiniswapFactory is IMiniswapFactory {\n    address override public feeTo;\n    address override public feeToSetter;\n    address override public miner;\n    address override public MINI;\n\n    mapping(address => mapping(address => address)) override public getPair;\n    address[] override public allPairs;\n\n    event PairCreated(address indexed token0, address indexed token1, address pair, uint);\n\n    constructor(address _miner,address _mini,address _feeToSetter) public {\n        feeToSetter = _feeToSetter;\n        MINI = _mini;\n        miner = _miner;\n    }\n\n    function allPairsLength() override external view returns (uint) {\n        return allPairs.length;\n    }\n\n    function createPair(address tokenA, address tokenB) override external returns (address pair) {\n        require(tokenA != tokenB, 'MiniswapV2: IDENTICAL_ADDRESSES');\n        (address token0, address token1) = tokenA < tokenB ? (tokenA, tokenB) : (tokenB, tokenA);\n        require(token0 != address(0), 'MiniswapV2: ZERO_ADDRESS');\n        require(getPair[token0][token1] == address(0), 'MiniswapV2: PAIR_EXISTS'); // single check is sufficient\n        bytes memory bytecode = type(MiniswapPair).creationCode;\n        bytes32 salt = keccak256(abi.encodePacked(token0, token1));\n        assembly {\n            pair := create2(0, add(bytecode, 32), mload(bytecode), salt)\n        }\n        IMiniswapPair(pair).initialize(miner,MINI,token0, token1);\n        getPair[token0][token1] = pair;\n        getPair[token1][token0] = pair; // populate mapping in the reverse direction\n        allPairs.push(pair);\n        emit PairCreated(token0, token1, pair, allPairs.length);\n    }\n\n    function setFeeTo(address _feeTo) override external {\n        require(msg.sender == feeToSetter, 'MiniswapV2: FORBIDDEN');\n        feeTo = _feeTo;\n    }\n\n    function setFeeToSetter(address _feeToSetter) override external {\n        require(msg.sender == feeToSetter, 'MiniswapV2: FORBIDDEN');\n        feeToSetter = _feeToSetter;\n    }\n}\n",
  "sourcePath": "/Users/tpkeeper/solwork/Miniswap-Core/contracts/MiniswapFactory.sol",
  "compiler": {
    "name": "solc",
    "version": "0.6.9+commit.3e3065ac.Emscripten.clang"
  },
  "schemaVersion": "3.2.2",
  "updatedAt": "2020-08-12T02:52:39.854Z",
  "devdoc": {
    "methods": {}
  },
  "userdoc": {
    "methods": {}
  }
}