{
  "contractName": "MiniswapPair",
  "abi": [
    {
      "inputs": [],
      "stateMutability": "nonpayable",
      "type": "constructor"
    },
    {
      "anonymous": false,
      "inputs": [
        {
          "indexed": true,
          "internalType": "address",
          "name": "owner",
          "type": "address"
        },
        {
          "indexed": true,
          "internalType": "address",
          "name": "spender",
          "type": "address"
        },
        {
          "indexed": false,
          "internalType": "uint256",
          "name": "value",
          "type": "uint256"
        }
      ],
      "name": "Approval",
      "type": "event"
    },
    {
      "anonymous": false,
      "inputs": [
        {
          "indexed": true,
          "internalType": "address",
          "name": "sender",
          "type": "address"
        },
        {
          "indexed": false,
          "internalType": "uint256",
          "name": "amount0",
          "type": "uint256"
        },
        {
          "indexed": false,
          "internalType": "uint256",
          "name": "amount1",
          "type": "uint256"
        },
        {
          "indexed": false,
          "internalType": "uint256",
          "name": "amountmini",
          "type": "uint256"
        },
        {
          "indexed": true,
          "internalType": "address",
          "name": "to",
          "type": "address"
        }
      ],
      "name": "Burn",
      "type": "event"
    },
    {
      "anonymous": false,
      "inputs": [
        {
          "indexed": true,
          "internalType": "address",
          "name": "sender",
          "type": "address"
        },
        {
          "indexed": false,
          "internalType": "uint256",
          "name": "amount0",
          "type": "uint256"
        },
        {
          "indexed": false,
          "internalType": "uint256",
          "name": "amount1",
          "type": "uint256"
        }
      ],
      "name": "Mint",
      "type": "event"
    },
    {
      "anonymous": false,
      "inputs": [
        {
          "indexed": true,
          "internalType": "address",
          "name": "sender",
          "type": "address"
        },
        {
          "indexed": false,
          "internalType": "uint256",
          "name": "amount0In",
          "type": "uint256"
        },
        {
          "indexed": false,
          "internalType": "uint256",
          "name": "amount1In",
          "type": "uint256"
        },
        {
          "indexed": false,
          "internalType": "uint256",
          "name": "amount0Out",
          "type": "uint256"
        },
        {
          "indexed": false,
          "internalType": "uint256",
          "name": "amount1Out",
          "type": "uint256"
        },
        {
          "indexed": true,
          "internalType": "address",
          "name": "to",
          "type": "address"
        }
      ],
      "name": "Swap",
      "type": "event"
    },
    {
      "anonymous": false,
      "inputs": [
        {
          "indexed": false,
          "internalType": "uint112",
          "name": "reserve0",
          "type": "uint112"
        },
        {
          "indexed": false,
          "internalType": "uint112",
          "name": "reserve1",
          "type": "uint112"
        }
      ],
      "name": "Sync",
      "type": "event"
    },
    {
      "anonymous": false,
      "inputs": [
        {
          "indexed": true,
          "internalType": "address",
          "name": "from",
          "type": "address"
        },
        {
          "indexed": true,
          "internalType": "address",
          "name": "to",
          "type": "address"
        },
        {
          "indexed": false,
          "internalType": "uint256",
          "name": "value",
          "type": "uint256"
        }
      ],
      "name": "Transfer",
      "type": "event"
    },
    {
      "inputs": [],
      "name": "DOMAIN_SEPARATOR",
      "outputs": [
        {
          "internalType": "bytes32",
          "name": "",
          "type": "bytes32"
        }
      ],
      "stateMutability": "view",
      "type": "function"
    },
    {
      "inputs": [],
      "name": "MINI",
      "outputs": [
        {
          "internalType": "address",
          "name": "",
          "type": "address"
        }
      ],
      "stateMutability": "view",
      "type": "function"
    },
    {
      "inputs": [],
      "name": "MINIMUM_LIQUIDITY",
      "outputs": [
        {
          "internalType": "uint256",
          "name": "",
          "type": "uint256"
        }
      ],
      "stateMutability": "view",
      "type": "function"
    },
    {
      "inputs": [],
      "name": "PERMIT_TYPEHASH",
      "outputs": [
        {
          "internalType": "bytes32",
          "name": "",
          "type": "bytes32"
        }
      ],
      "stateMutability": "view",
      "type": "function"
    },
    {
      "inputs": [
        {
          "internalType": "address",
          "name": "",
          "type": "address"
        },
        {
          "internalType": "address",
          "name": "",
          "type": "address"
        }
      ],
      "name": "allowance",
      "outputs": [
        {
          "internalType": "uint256",
          "name": "",
          "type": "uint256"
        }
      ],
      "stateMutability": "view",
      "type": "function"
    },
    {
      "inputs": [
        {
          "internalType": "address",
          "name": "spender",
          "type": "address"
        },
        {
          "internalType": "uint256",
          "name": "value",
          "type": "uint256"
        }
      ],
      "name": "approve",
      "outputs": [
        {
          "internalType": "bool",
          "name": "",
          "type": "bool"
        }
      ],
      "stateMutability": "nonpayable",
      "type": "function"
    },
    {
      "inputs": [
        {
          "internalType": "address",
          "name": "",
          "type": "address"
        }
      ],
      "name": "balanceOf",
      "outputs": [
        {
          "internalType": "uint256",
          "name": "",
          "type": "uint256"
        }
      ],
      "stateMutability": "view",
      "type": "function"
    },
    {
      "inputs": [],
      "name": "decimals",
      "outputs": [
        {
          "internalType": "uint8",
          "name": "",
          "type": "uint8"
        }
      ],
      "stateMutability": "view",
      "type": "function"
    },
    {
      "inputs": [],
      "name": "factory",
      "outputs": [
        {
          "internalType": "address",
          "name": "",
          "type": "address"
        }
      ],
      "stateMutability": "view",
      "type": "function"
    },
    {
      "inputs": [],
      "name": "feeTemp",
      "outputs": [
        {
          "internalType": "address",
          "name": "",
          "type": "address"
        }
      ],
      "stateMutability": "view",
      "type": "function"
    },
    {
      "inputs": [],
      "name": "kLast",
      "outputs": [
        {
          "internalType": "uint256",
          "name": "",
          "type": "uint256"
        }
      ],
      "stateMutability": "view",
      "type": "function"
    },
    {
      "inputs": [],
      "name": "miner",
      "outputs": [
        {
          "internalType": "address",
          "name": "",
          "type": "address"
        }
      ],
      "stateMutability": "view",
      "type": "function"
    },
    {
      "inputs": [],
      "name": "name",
      "outputs": [
        {
          "internalType": "string",
          "name": "",
          "type": "string"
        }
      ],
      "stateMutability": "view",
      "type": "function"
    },
    {
      "inputs": [
        {
          "internalType": "address",
          "name": "",
          "type": "address"
        }
      ],
      "name": "nonces",
      "outputs": [
        {
          "internalType": "uint256",
          "name": "",
          "type": "uint256"
        }
      ],
      "stateMutability": "view",
      "type": "function"
    },
    {
      "inputs": [
        {
          "internalType": "address",
          "name": "owner",
          "type": "address"
        },
        {
          "internalType": "address",
          "name": "spender",
          "type": "address"
        },
        {
          "internalType": "uint256",
          "name": "value",
          "type": "uint256"
        },
        {
          "internalType": "uint256",
          "name": "deadline",
          "type": "uint256"
        },
        {
          "internalType": "uint8",
          "name": "v",
          "type": "uint8"
        },
        {
          "internalType": "bytes32",
          "name": "r",
          "type": "bytes32"
        },
        {
          "internalType": "bytes32",
          "name": "s",
          "type": "bytes32"
        }
      ],
      "name": "permit",
      "outputs": [],
      "stateMutability": "nonpayable",
      "type": "function"
    },
    {
      "inputs": [],
      "name": "price0CumulativeLast",
      "outputs": [
        {
          "internalType": "uint256",
          "name": "",
          "type": "uint256"
        }
      ],
      "stateMutability": "view",
      "type": "function"
    },
    {
      "inputs": [],
      "name": "price1CumulativeLast",
      "outputs": [
        {
          "internalType": "uint256",
          "name": "",
          "type": "uint256"
        }
      ],
      "stateMutability": "view",
      "type": "function"
    },
    {
      "inputs": [],
      "name": "symbol",
      "outputs": [
        {
          "internalType": "string",
          "name": "",
          "type": "string"
        }
      ],
      "stateMutability": "view",
      "type": "function"
    },
    {
      "inputs": [],
      "name": "token0",
      "outputs": [
        {
          "internalType": "address",
          "name": "",
          "type": "address"
        }
      ],
      "stateMutability": "view",
      "type": "function"
    },
    {
      "inputs": [],
      "name": "token1",
      "outputs": [
        {
          "internalType": "address",
          "name": "",
          "type": "address"
        }
      ],
      "stateMutability": "view",
      "type": "function"
    },
    {
      "inputs": [],
      "name": "totalFeeAmount",
      "outputs": [
        {
          "internalType": "uint256",
          "name": "",
          "type": "uint256"
        }
      ],
      "stateMutability": "view",
      "type": "function"
    },
    {
      "inputs": [],
      "name": "totalSupply",
      "outputs": [
        {
          "internalType": "uint256",
          "name": "",
          "type": "uint256"
        }
      ],
      "stateMutability": "view",
      "type": "function"
    },
    {
      "inputs": [
        {
          "internalType": "address",
          "name": "to",
          "type": "address"
        },
        {
          "internalType": "uint256",
          "name": "value",
          "type": "uint256"
        }
      ],
      "name": "transfer",
      "outputs": [
        {
          "internalType": "bool",
          "name": "",
          "type": "bool"
        }
      ],
      "stateMutability": "nonpayable",
      "type": "function"
    },
    {
      "inputs": [
        {
          "internalType": "address",
          "name": "from",
          "type": "address"
        },
        {
          "internalType": "address",
          "name": "to",
          "type": "address"
        },
        {
          "internalType": "uint256",
          "name": "value",
          "type": "uint256"
        }
      ],
      "name": "transferFrom",
      "outputs": [
        {
          "internalType": "bool",
          "name": "",
          "type": "bool"
        }
      ],
      "stateMutability": "nonpayable",
      "type": "function"
    },
    {
      "inputs": [
        {
          "internalType": "address",
          "name": "",
          "type": "address"
        }
      ],
      "name": "userInFeeAmount",
      "outputs": [
        {
          "internalType": "uint256",
          "name": "",
          "type": "uint256"
        }
      ],
      "stateMutability": "view",
      "type": "function"
    },
    {
      "inputs": [],
      "name": "getReserves",
      "outputs": [
        {
          "internalType": "uint112",
          "name": "_reserve0",
          "type": "uint112"
        },
        {
          "internalType": "uint112",
          "name": "_reserve1",
          "type": "uint112"
        },
        {
          "internalType": "uint32",
          "name": "_blockTimestampLast",
          "type": "uint32"
        }
      ],
      "stateMutability": "view",
      "type": "function"
    },
    {
      "inputs": [
        {
          "internalType": "address",
          "name": "_miner",
          "type": "address"
        },
        {
          "internalType": "address",
          "name": "_mini",
          "type": "address"
        },
        {
          "internalType": "address",
          "name": "_token0",
          "type": "address"
        },
        {
          "internalType": "address",
          "name": "_token1",
          "type": "address"
        }
      ],
      "name": "initialize",
      "outputs": [],
      "stateMutability": "nonpayable",
      "type": "function"
    },
    {
      "inputs": [
        {
          "internalType": "address",
          "name": "to",
          "type": "address"
        }
      ],
      "name": "getMineFeeAmount",
      "outputs": [
        {
          "internalType": "uint256",
          "name": "amountMINI",
          "type": "uint256"
        }
      ],
      "stateMutability": "view",
      "type": "function"
    },
    {
      "inputs": [
        {
          "internalType": "address",
          "name": "to",
          "type": "address"
        }
      ],
      "name": "mint",
      "outputs": [
        {
          "internalType": "uint256",
          "name": "liquidity",
          "type": "uint256"
        }
      ],
      "stateMutability": "nonpayable",
      "type": "function"
    },
    {
      "inputs": [
        {
          "internalType": "address",
          "name": "to",
          "type": "address"
        }
      ],
      "name": "burn",
      "outputs": [
        {
          "internalType": "uint256",
          "name": "amount0",
          "type": "uint256"
        },
        {
          "internalType": "uint256",
          "name": "amount1",
          "type": "uint256"
        },
        {
          "internalType": "uint256",
          "name": "amountMINI",
          "type": "uint256"
        }
      ],
      "stateMutability": "nonpayable",
      "type": "function"
    },
    {
      "inputs": [
        {
          "internalType": "uint256",
          "name": "amount0Out",
          "type": "uint256"
        },
        {
          "internalType": "uint256",
          "name": "amount1Out",
          "type": "uint256"
        },
        {
          "internalType": "address",
          "name": "to",
          "type": "address"
        },
        {
          "internalType": "bytes",
          "name": "data",
          "type": "bytes"
        }
      ],
      "name": "swap",
      "outputs": [],
      "stateMutability": "nonpayable",
      "type": "function"
    },
    {
      "inputs": [
        {
          "internalType": "address",
          "name": "to",
          "type": "address"
        }
      ],
      "name": "skim",
      "outputs": [],
      "stateMutability": "nonpayable",
      "type": "function"
    },
    {
      "inputs": [],
      "name": "sync",
      "outputs": [],
      "stateMutability": "nonpayable",
      "type": "function"
    }
  ],
  "bytecode": "0x60a0604052600160105534801561001557600080fd5b5060405146908060526141538239604080519182900360520182208282018252600883526704d696e69737761760c41b6020938401528151808301835260018152603160f81b908401528151808401919091527fec7d8713b76b4c784aed92d89eeed862bc4363b0cff44d31006e21aa4547c332818301527fc89efdaa54c0f20c7adf612882df0950f5a951637e0307cdcb4c672f298b8bc66060808301919091526080808301969096523060a0808401919091528351808403909101815260c0909201909252805192019190912060035533901b9091525060805160601c61402a61012960003980610d855280610e6152806116f152806117cd5280612bd85280612e325280613a30525061402a6000f3fe608060405234801561001057600080fd5b50600436106101fb5760003560e01c806370a082311161011a578063ba9a7a56116100ad578063d21220a71161007c578063d21220a7146105c9578063d505accf146105d1578063dd62ed3e14610622578063f8c8765e14610650578063fff6cae91461068e576101fb565b8063ba9a7a561461058b578063bc25cf7714610593578063bd821f34146105b9578063c45a0155146105c1576101fb565b80638d7cf63a116100e95780638d7cf63a1461052957806395d89b411461054f5780639652171614610557578063a9059cbb1461055f576101fb565b806370a08231146104915780637464fc3d146104b75780637ecebe00146104bf57806389afcb44146104e5576101fb565b806330adf81f116101925780633f190c70116101615780633f190c70146104535780635909c0d51461045b5780635a3d5493146104635780636a6278421461046b576101fb565b806330adf81f1461041d578063313ce56714610425578063349dc329146104435780633644e5151461044b576101fb565b80630dfe1681116101ce5780630dfe16811461038357806318160ddd146103a757806318eb696a146103c157806323b872dd146103e7576101fb565b8063022c0d9f1461020057806306fdde031461028e5780630902f1ac1461030b578063095ea7b314610343575b600080fd5b61028c6004803603608081101561021657600080fd5b8135916020810135916001600160a01b03604083013516919081019060808101606082013564010000000081111561024d57600080fd5b82018360208201111561025f57600080fd5b8035906020019184600183028401116401000000008311171561028157600080fd5b509092509050610696565b005b610296611957565b6040805160208082528351818301528351919283929083019185019080838360005b838110156102d05781810151838201526020016102b8565b50505050905090810190601f1680156102fd5780820380516001836020036101000a031916815260200191505b509250505060405180910390f35b61031361197b565b604080516001600160701b03948516815292909316602083015263ffffffff168183015290519081900360600190f35b61036f6004803603604081101561035957600080fd5b506001600160a01b0381351690602001356119a5565b604080519115158252519081900360200190f35b61038b6119bc565b604080516001600160a01b039092168252519081900360200190f35b6103af6119cb565b60408051918252519081900360200190f35b6103af600480360360208110156103d757600080fd5b50356001600160a01b03166119d1565b61036f600480360360608110156103fd57600080fd5b506001600160a01b038135811691602081013590911690604001356119e3565b6103af611a7d565b61042d611aa1565b6040805160ff9092168252519081900360200190f35b61038b611aa6565b6103af611ab5565b61038b611abb565b6103af611aca565b6103af611ad0565b6103af6004803603602081101561048157600080fd5b50356001600160a01b0316611ad6565b6103af600480360360208110156104a757600080fd5b50356001600160a01b03166120e6565b6103af6120f8565b6103af600480360360208110156104d557600080fd5b50356001600160a01b03166120fe565b61050b600480360360208110156104fb57600080fd5b50356001600160a01b0316612110565b60408051938452602084019290925282820152519081900360600190f35b6103af6004803603602081101561053f57600080fd5b50356001600160a01b0316612837565b610296612936565b6103af612956565b61036f6004803603604081101561057557600080fd5b506001600160a01b03813516906020013561295c565b6103af612969565b61028c600480360360208110156105a957600080fd5b50356001600160a01b031661296f565b61038b612bc7565b61038b612bd6565b61038b612bfa565b61028c600480360360e08110156105e757600080fd5b506001600160a01b03813581169160208101359091169060408101359060608101359060ff6080820135169060a08101359060c00135612c09565b6103af6004803603604081101561063857600080fd5b506001600160a01b0381358116916020013516612e0a565b61028c6004803603608081101561066657600080fd5b506001600160a01b038135811691602081013582169160408201358116916060013516612e27565b61028c612f8f565b6005546001600160a01b03163314611098576010546001146106f2576040805162461bcd60e51b815260206004820152601060248201526f135a5b9a5cddd85c0e881313d0d2d15160821b604482015290519081900360640190fd5b6000601055841515806107055750600084115b6107405760405162461bcd60e51b8152600401808060200182810382526024815260200180613fd16024913960400191505060405180910390fd5b60008061074b61197b565b5091509150816001600160701b0316871080156107705750806001600160701b031686105b6107c1576040805162461bcd60e51b815260206004820181905260248201527f4d696e69737761703a20494e53554646494349454e545f4c4951554944495459604482015290519081900360640190fd5b60065460075460009182916001600160a01b039182169190811690891682148015906107ff5750806001600160a01b0316896001600160a01b031614155b610847576040805162461bcd60e51b81526020600482015260146024820152734d696e69737761703a20494e56414c49445f544f60601b604482015290519081900360640190fd5b8a1561085857610858828a8d613153565b891561086957610869818a8c613153565b861561092457886001600160a01b0316632fd2a1de338d8d8c8c6040518663ffffffff1660e01b815260040180866001600160a01b03166001600160a01b03168152602001858152602001848152602001806020018281038252848482818152602001925080828437600081840152601f19601f8201169050808301925050509650505050505050600060405180830381600087803b15801561090b57600080fd5b505af115801561091f573d6000803e3d6000fd5b505050505b604080516370a0823160e01b815230600482015290516001600160a01b038416916370a08231916024808301926020929190829003018186803b15801561096a57600080fd5b505afa15801561097e573d6000803e3d6000fd5b505050506040513d602081101561099457600080fd5b5051604080516370a0823160e01b815230600482015290519195506001600160a01b038316916370a0823191602480820192602092909190829003018186803b1580156109e057600080fd5b505afa1580156109f4573d6000803e3d6000fd5b505050506040513d6020811015610a0a57600080fd5b5051925060009150506001600160701b0385168a90038311610a2d576000610a3c565b89856001600160701b03160383035b9050600089856001600160701b0316038311610a59576000610a68565b89856001600160701b03160383035b90506000821180610a795750600081115b610ab45760405162461bcd60e51b8152600401808060200182810382526023815260200180613fae6023913960400191505060405180910390fd5b6000610ae8610aca84600363ffffffff6132e616565b610adc876103e863ffffffff6132e616565b9063ffffffff61334916565b90506000610b00610aca84600363ffffffff6132e616565b9050610b31620f4240610b256001600160701b038b8116908b1663ffffffff6132e616565b9063ffffffff6132e616565b610b41838363ffffffff6132e616565b1015610b82576040805162461bcd60e51b815260206004820152600b60248201526a4d696e69737761703a204b60a81b604482015290519081900360640190fd5b505060408051838152602081018390528082018d9052606081018c905290516001600160a01b038b169133917fd78ad95fa46c994b6551d0da85fc275fe613ce37657fb8d5e3d130840159d8229181900360800190a360055460408051630c94c70f60e21b815230600482015290516000926001600160a01b0316916332531c3c916024808301926020929190829003018186803b158015610c2357600080fd5b505afa158015610c37573d6000803e3d6000fd5b505050506040513d6020811015610c4d57600080fd5b50519050808015610c6957506005546001600160a01b03163314155b15610f9057600854600954604080516370a0823160e01b81526001600160a01b039283166004820152905160009392909216916370a0823191602480820192602092909190829003018186803b158015610cc257600080fd5b505afa158015610cd6573d6000803e3d6000fd5b505050506040513d6020811015610cec57600080fd5b505190508a6000610d166103e8610d0a88600363ffffffff6132e616565b9063ffffffff61339916565b90506000610d316103e8610d0a88600363ffffffff6132e616565b90508115610e0f57610d47828a03898d8d613403565b600654600554610d64916001600160a01b039081169116846135c7565b60055460095460065460408051630d33800760e31b81526001600160a01b037f0000000000000000000000000000000000000000000000000000000000000000811660048301529384166024820152878416604482015291831660648301526084820186905251919092169163699c00389160a480830192600092919082900301818387803b158015610df657600080fd5b505af1158015610e0a573d6000803e3d6000fd5b505050505b8015610eeb57610e2389828a038d8d613403565b600754600554610e40916001600160a01b039081169116836135c7565b60055460095460075460408051630d33800760e31b81526001600160a01b037f0000000000000000000000000000000000000000000000000000000000000000811660048301529384166024820152878416604482015291831660648301526084820185905251919092169163699c00389160a480830192600092919082900301818387803b158015610ed257600080fd5b505af1158015610ee6573d6000803e3d6000fd5b505050505b600854600954604080516370a0823160e01b81526001600160a01b039283166004820152905160009392909216916370a0823191602480820192602092909190829003018186803b158015610f3f57600080fd5b505afa158015610f53573d6000803e3d6000fd5b505050506040513d6020811015610f6957600080fd5b5051600b54909150610f87908690610adc908463ffffffff61372a16565b600b5550505050505b50600654604080516370a0823160e01b81523060048201529051611087926001600160a01b0316916370a08231916024808301926020929190829003018186803b158015610fdd57600080fd5b505afa158015610ff1573d6000803e3d6000fd5b505050506040513d602081101561100757600080fd5b5051600754604080516370a0823160e01b815230600482015290516001600160a01b03909216916370a0823191602480820192602092909190829003018186803b15801561105457600080fd5b505afa158015611068573d6000803e3d6000fd5b505050506040513d602081101561107e57600080fd5b50518888613403565b505060016010555061195092505050565b60008511806110a75750600084115b6110e25760405162461bcd60e51b8152600401808060200182810382526024815260200180613fd16024913960400191505060405180910390fd5b6000806110ed61197b565b5091509150816001600160701b0316871080156111125750806001600160701b031686105b611163576040805162461bcd60e51b815260206004820181905260248201527f4d696e69737761703a20494e53554646494349454e545f4c4951554944495459604482015290519081900360640190fd5b60065460075460009182916001600160a01b039182169190811690891682148015906111a15750806001600160a01b0316896001600160a01b031614155b6111e9576040805162461bcd60e51b81526020600482015260146024820152734d696e69737761703a20494e56414c49445f544f60601b604482015290519081900360640190fd5b8a156111fa576111fa828a8d613153565b891561120b5761120b818a8c613153565b86156112c657886001600160a01b0316632fd2a1de338d8d8c8c6040518663ffffffff1660e01b815260040180866001600160a01b03166001600160a01b03168152602001858152602001848152602001806020018281038252848482818152602001925080828437600081840152601f19601f8201169050808301925050509650505050505050600060405180830381600087803b1580156112ad57600080fd5b505af11580156112c1573d6000803e3d6000fd5b505050505b604080516370a0823160e01b815230600482015290516001600160a01b038416916370a08231916024808301926020929190829003018186803b15801561130c57600080fd5b505afa158015611320573d6000803e3d6000fd5b505050506040513d602081101561133657600080fd5b5051604080516370a0823160e01b815230600482015290519195506001600160a01b038316916370a0823191602480820192602092909190829003018186803b15801561138257600080fd5b505afa158015611396573d6000803e3d6000fd5b505050506040513d60208110156113ac57600080fd5b5051925060009150506001600160701b0385168a900383116113cf5760006113de565b89856001600160701b03160383035b9050600089856001600160701b03160383116113fb57600061140a565b89856001600160701b03160383035b9050600082118061141b5750600081115b6114565760405162461bcd60e51b8152600401808060200182810382526023815260200180613fae6023913960400191505060405180910390fd5b600061146c610aca84600363ffffffff6132e616565b90506000611484610aca84600363ffffffff6132e616565b90506114a9620f4240610b256001600160701b038b8116908b1663ffffffff6132e616565b6114b9838363ffffffff6132e616565b10156114fa576040805162461bcd60e51b815260206004820152600b60248201526a4d696e69737761703a204b60a81b604482015290519081900360640190fd5b505060408051838152602081018390528082018d9052606081018c905290516001600160a01b038b169133917fd78ad95fa46c994b6551d0da85fc275fe613ce37657fb8d5e3d130840159d8229181900360800190a360055460408051630c94c70f60e21b815230600482015290516000926001600160a01b0316916332531c3c916024808301926020929190829003018186803b15801561159b57600080fd5b505afa1580156115af573d6000803e3d6000fd5b505050506040513d60208110156115c557600080fd5b505190508080156115e157506005546001600160a01b03163314155b156118fc57600854600954604080516370a0823160e01b81526001600160a01b039283166004820152905160009392909216916370a0823191602480820192602092909190829003018186803b15801561163a57600080fd5b505afa15801561164e573d6000803e3d6000fd5b505050506040513d602081101561166457600080fd5b505190508a60006116826103e8610d0a88600363ffffffff6132e616565b9050600061169d6103e8610d0a88600363ffffffff6132e616565b9050811561177b576116b3828a03898d8d613403565b6006546005546116d0916001600160a01b039081169116846135c7565b60055460095460065460408051630d33800760e31b81526001600160a01b037f0000000000000000000000000000000000000000000000000000000000000000811660048301529384166024820152878416604482015291831660648301526084820186905251919092169163699c00389160a480830192600092919082900301818387803b15801561176257600080fd5b505af1158015611776573d6000803e3d6000fd5b505050505b80156118575761178f89828a038d8d613403565b6007546005546117ac916001600160a01b039081169116836135c7565b60055460095460075460408051630d33800760e31b81526001600160a01b037f0000000000000000000000000000000000000000000000000000000000000000811660048301529384166024820152878416604482015291831660648301526084820185905251919092169163699c00389160a480830192600092919082900301818387803b15801561183e57600080fd5b505af1158015611852573d6000803e3d6000fd5b505050505b600854600954604080516370a0823160e01b81526001600160a01b039283166004820152905160009392909216916370a0823191602480820192602092909190829003018186803b1580156118ab57600080fd5b505afa1580156118bf573d6000803e3d6000fd5b505050506040513d60208110156118d557600080fd5b5051600b549091506118f3908690610adc908463ffffffff61372a16565b600b5550505050505b50600654604080516370a0823160e01b81523060048201529051611949926001600160a01b0316916370a08231916024808301926020929190829003018186803b158015610fdd57600080fd5b5050505050505b5050505050565b6040518060400160405280600881526020016704d696e69737761760c41b81525081565b600c546001600160701b0380821692600160701b830490911691600160e01b900463ffffffff1690565b60006119b2338484613779565b5060015b92915050565b6006546001600160a01b031681565b60005481565b600a6020526000908152604090205481565b6001600160a01b038316600090815260026020908152604080832033845290915281205460001914611a68576001600160a01b0384166000908152600260209081526040808320338452909152902054611a43908363ffffffff61334916565b6001600160a01b03851660009081526002602090815260408083203384529091529020555b611a738484846137db565b5060019392505050565b7f6e71edae12b1b97f4d1f60370fef10105fa2faae0126114a169c64845d6126c981565b601281565b6005546001600160a01b031681565b60035481565b6008546001600160a01b031681565b600d5481565b600e5481565b6005546000906001600160a01b03163314611e2c57601054600114611b35576040805162461bcd60e51b815260206004820152601060248201526f135a5b9a5cddd85c0e881313d0d2d15160821b604482015290519081900360640190fd5b600060108190556001600160a01b0383168152600a602052604090205415611b6257611b6082613895565b505b600080611b6d61197b565b50600654604080516370a0823160e01b815230600482015290519395509193506000926001600160a01b03909116916370a08231916024808301926020929190829003018186803b158015611bc157600080fd5b505afa158015611bd5573d6000803e3d6000fd5b505050506040513d6020811015611beb57600080fd5b5051600754604080516370a0823160e01b815230600482015290519293506000926001600160a01b03909216916370a0823191602480820192602092909190829003018186803b158015611c3e57600080fd5b505afa158015611c52573d6000803e3d6000fd5b505050506040513d6020811015611c6857600080fd5b505190506000611c87836001600160701b03871663ffffffff61334916565b90506000611ca4836001600160701b03871663ffffffff61334916565b90506000611cb28787613a2b565b60005490915080611cef57611cdb6103e8610adc611cd6878763ffffffff6132e616565b613b94565b9850611cea60006103e8613be5565b611d3e565b611d3b6001600160701b038916611d0c868463ffffffff6132e616565b81611d1357fe5b046001600160701b038916611d2e868563ffffffff6132e616565b81611d3557fe5b04613c7b565b98505b60008911611d7d5760405162461bcd60e51b8152600401808060200182810382526027815260200180613f876027913960400191505060405180910390fd5b611d878a8a613be5565b600b546001600160a01b038b166000908152600a6020526040902055611daf86868a8a613403565b8115611ddf57600c54611ddb906001600160701b0380821691600160701b90041663ffffffff6132e616565b600f555b6040805185815260208101859052815133927f4c209b5fc8ad50758f13e2e1088ba56a560dff690a1c6fef26394f4c03821c4f928290030190a250506001601055506120e1945050505050565b6001600160a01b0382166000908152600a602052604090205415611e5557611e5382613895565b505b600080611e6061197b565b50600654604080516370a0823160e01b815230600482015290519395509193506000926001600160a01b03909116916370a08231916024808301926020929190829003018186803b158015611eb457600080fd5b505afa158015611ec8573d6000803e3d6000fd5b505050506040513d6020811015611ede57600080fd5b5051600754604080516370a0823160e01b815230600482015290519293506000926001600160a01b03909216916370a0823191602480820192602092909190829003018186803b158015611f3157600080fd5b505afa158015611f45573d6000803e3d6000fd5b505050506040513d6020811015611f5b57600080fd5b505190506000611f7a836001600160701b03871663ffffffff61334916565b90506000611f97836001600160701b03871663ffffffff61334916565b90506000611fa58787613a2b565b60005490915080611fdd57611fc96103e8610adc611cd6878763ffffffff6132e616565b9850611fd860006103e8613be5565b611ffd565b611ffa6001600160701b038916611d0c868463ffffffff6132e616565b98505b6000891161203c5760405162461bcd60e51b8152600401808060200182810382526027815260200180613f876027913960400191505060405180910390fd5b6120468a8a613be5565b600b546001600160a01b038b166000908152600a602052604090205561206e86868a8a613403565b811561209e57600c5461209a906001600160701b0380821691600160701b90041663ffffffff6132e616565b600f555b6040805185815260208101859052815133927f4c209b5fc8ad50758f13e2e1088ba56a560dff690a1c6fef26394f4c03821c4f928290030190a250505050505050505b919050565b60016020526000908152604090205481565b600f5481565b60046020526000908152604090205481565b600554600090819081906001600160a01b031633146124d957601054600114612173576040805162461bcd60e51b815260206004820152601060248201526f135a5b9a5cddd85c0e881313d0d2d15160821b604482015290519081900360640190fd5b600060108190558061218361197b565b50600654600754604080516370a0823160e01b815230600482015290519496509294506001600160a01b039182169391169160009184916370a08231916024808301926020929190829003018186803b1580156121df57600080fd5b505afa1580156121f3573d6000803e3d6000fd5b505050506040513d602081101561220957600080fd5b5051604080516370a0823160e01b815230600482015290519192506000916001600160a01b038516916370a08231916024808301926020929190829003018186803b15801561225757600080fd5b505afa15801561226b573d6000803e3d6000fd5b505050506040513d602081101561228157600080fd5b5051306000908152600160205260408120549192506122a08888613a2b565b600054909150806122b7848763ffffffff6132e616565b816122be57fe5b049b50806122d2848663ffffffff6132e616565b816122d957fe5b049a5060008c1180156122ec575060008b115b6123275760405162461bcd60e51b8152600401808060200182810382526027815260200180613f606027913960400191505060405180910390fd5b6123308d613895565b995061233c3084613c93565b612347878e8e613153565b612352868e8d613153565b604080516370a0823160e01b815230600482015290516001600160a01b038916916370a08231916024808301926020929190829003018186803b15801561239857600080fd5b505afa1580156123ac573d6000803e3d6000fd5b505050506040513d60208110156123c257600080fd5b5051604080516370a0823160e01b815230600482015290519196506001600160a01b038816916370a0823191602480820192602092909190829003018186803b15801561240e57600080fd5b505afa158015612422573d6000803e3d6000fd5b505050506040513d602081101561243857600080fd5b5051935061244885858b8b613403565b811561247857600c54612474906001600160701b0380821691600160701b90041663ffffffff6132e616565b600f555b604080518d8152602081018d90528082018c905290516001600160a01b038f169133917fd175a80c109434bb89948928ab2475a6647c94244cb70002197896423c8833639181900360600190a3505060016010555061283095505050505050565b6000806124e461197b565b50600654600754604080516370a0823160e01b815230600482015290519496509294506001600160a01b039182169391169160009184916370a08231916024808301926020929190829003018186803b15801561254057600080fd5b505afa158015612554573d6000803e3d6000fd5b505050506040513d602081101561256a57600080fd5b5051604080516370a0823160e01b815230600482015290519192506000916001600160a01b038516916370a08231916024808301926020929190829003018186803b1580156125b857600080fd5b505afa1580156125cc573d6000803e3d6000fd5b505050506040513d60208110156125e257600080fd5b5051306000908152600160205260408120549192506126018888613a2b565b60005490915080612618848763ffffffff6132e616565b8161261f57fe5b049b5080612633848663ffffffff6132e616565b8161263a57fe5b049a5060008c11801561264d575060008b115b6126885760405162461bcd60e51b8152600401808060200182810382526027815260200180613f606027913960400191505060405180910390fd5b6126918d613895565b995061269d3084613c93565b6126a8878e8e613153565b6126b3868e8d613153565b604080516370a0823160e01b815230600482015290516001600160a01b038916916370a08231916024808301926020929190829003018186803b1580156126f957600080fd5b505afa15801561270d573d6000803e3d6000fd5b505050506040513d602081101561272357600080fd5b5051604080516370a0823160e01b815230600482015290519196506001600160a01b038816916370a0823191602480820192602092909190829003018186803b15801561276f57600080fd5b505afa158015612783573d6000803e3d6000fd5b505050506040513d602081101561279957600080fd5b505193506127a985858b8b613403565b81156127d957600c546127d5906001600160701b0380821691600160701b90041663ffffffff6132e616565b600f555b604080518d8152602081018d90528082018c905290516001600160a01b038f169133917fd175a80c109434bb89948928ab2475a6647c94244cb70002197896423c8833639181900360600190a35050505050505050505b9193909250565b600854600954604080516370a0823160e01b81526001600160a01b0392831660048201529051600093849316916370a08231916024808301926020929190829003018186803b15801561288957600080fd5b505afa15801561289d573d6000803e3d6000fd5b505050506040513d60208110156128b357600080fd5b50516001600160a01b0384166000908152600a6020526040812054600b5492935090916128e59163ffffffff61334916565b9050600b54600014156128fb576000925061292f565b60008054600b54308352600160205260409092205461292c92610d0a9182908690610b25908963ffffffff6132e616565b92505b5050919050565b604051806040016040528060048152602001634d494e4960e01b81525081565b600b5481565b60006119b23384846137db565b6103e881565b6005546001600160a01b03163314612aed576010546001146129cb576040805162461bcd60e51b815260206004820152601060248201526f135a5b9a5cddd85c0e881313d0d2d15160821b604482015290519081900360640190fd5b6000601055600654600754600c54604080516370a0823160e01b815230600482015290516001600160a01b039485169490931692612a7a9285928792612a75926001600160701b03169185916370a0823191602480820192602092909190829003018186803b158015612a3d57600080fd5b505afa158015612a51573d6000803e3d6000fd5b505050506040513d6020811015612a6757600080fd5b50519063ffffffff61334916565b613153565b600c54604080516370a0823160e01b81523060048201529051612ae19284928792612a7592600160701b90046001600160701b0316916001600160a01b038616916370a0823191602480820192602092909190829003018186803b158015612a3d57600080fd5b50506001601055612bc4565b600654600754600c54604080516370a0823160e01b815230600482015290516001600160a01b039485169490931692612b5a9285928792612a75926001600160701b03169185916370a0823191602480820192602092909190829003018186803b158015612a3d57600080fd5b600c54604080516370a0823160e01b81523060048201529051612bc19284928792612a7592600160701b90046001600160701b0316916001600160a01b038616916370a0823191602480820192602092909190829003018186803b158015612a3d57600080fd5b50505b50565b6009546001600160a01b031681565b7f000000000000000000000000000000000000000000000000000000000000000081565b6007546001600160a01b031681565b42841015612c52576040805162461bcd60e51b8152602060048201526011602482015270135a5b9a5cddd85c0e8811561412549151607a1b604482015290519081900360640190fd5b6003546001600160a01b0380891660008181526004602090815260408083208054600180820190925582517f6e71edae12b1b97f4d1f60370fef10105fa2faae0126114a169c64845d6126c98186015280840196909652958d166060860152608085018c905260a085019590955260c08085018b90528151808603909101815260e08501825280519083012061190160f01b6101008601526101028501969096526101228085019690965280518085039096018652610142840180825286519683019690962095839052610162840180825286905260ff89166101828501526101a284018890526101c28401879052519193926101e280820193601f1981019281900390910190855afa158015612d6d573d6000803e3d6000fd5b5050604051601f1901519150506001600160a01b03811615801590612da35750886001600160a01b0316816001600160a01b0316145b612df4576040805162461bcd60e51b815260206004820152601b60248201527f4d696e69737761703a20494e56414c49445f5349474e41545552450000000000604482015290519081900360640190fd5b612dff898989613779565b505050505050505050565b600260209081526000928352604080842090915290825290205481565b336001600160a01b037f00000000000000000000000000000000000000000000000000000000000000001614612e9a576040805162461bcd60e51b815260206004820152601360248201527226b4b734b9bbb0b81d102327a92124a22222a760691b604482015290519081900360640190fd5b600580546001600160a01b038087166001600160a01b03199283161790925560068054858416908316179055600780548484169083161790556008805492861692909116919091179055604051606090612ef660208201613d68565b601f1982820381018352601f9091011660408181526006546007546bffffffffffffffffffffffff19606092831b81166020868101919091529190921b9091166034840152815160288185030181526048909301909152815191810191909120825192935091600091839190850183f5600980546001600160a01b0319166001600160a01b039290921691909117905550505050505050565b6005546001600160a01b0316331461310557601054600114612feb576040805162461bcd60e51b815260206004820152601060248201526f135a5b9a5cddd85c0e881313d0d2d15160821b604482015290519081900360640190fd5b6000601055600654604080516370a0823160e01b815230600482015290516130fb926001600160a01b0316916370a08231916024808301926020929190829003018186803b15801561303c57600080fd5b505afa158015613050573d6000803e3d6000fd5b505050506040513d602081101561306657600080fd5b5051600754604080516370a0823160e01b815230600482015290516001600160a01b03909216916370a0823191602480820192602092909190829003018186803b1580156130b357600080fd5b505afa1580156130c7573d6000803e3d6000fd5b505050506040513d60208110156130dd57600080fd5b5051600c546001600160701b0380821691600160701b900416613403565b6001601055613151565b600654604080516370a0823160e01b81523060048201529051613151926001600160a01b0316916370a08231916024808301926020929190829003018186803b15801561303c57600080fd5b565b604080518082018252601981527f7472616e7366657228616464726573732c75696e74323536290000000000000060209182015281516001600160a01b0385811660248301526044808301869052845180840390910181526064909201845291810180516001600160e01b031663a9059cbb60e01b1781529251815160009460609489169392918291908083835b602083106132005780518252601f1990920191602091820191016131e1565b6001836020036101000a0380198251168184511680821785525050505050509050019150506000604051808303816000865af19150503d8060008114613262576040519150601f19603f3d011682016040523d82523d6000602084013e613267565b606091505b5091509150818015613295575080511580613295575080806020019051602081101561329257600080fd5b50515b611950576040805162461bcd60e51b815260206004820152601960248201527f4d696e69737761703a205452414e534645525f4641494c454400000000000000604482015290519081900360640190fd5b6000811580613301575050808202828282816132fe57fe5b04145b6119b6576040805162461bcd60e51b815260206004820152601460248201527364732d6d6174682d6d756c2d6f766572666c6f7760601b604482015290519081900360640190fd5b808203828111156119b6576040805162461bcd60e51b815260206004820152601560248201527464732d6d6174682d7375622d756e646572666c6f7760581b604482015290519081900360640190fd5b60008082116133ef576040805162461bcd60e51b815260206004820152601a60248201527f536166654d6174683a206469766973696f6e206279207a65726f000000000000604482015290519081900360640190fd5b60008284816133fa57fe5b04949350505050565b6001600160701b03841180159061342157506001600160701b038311155b613467576040805162461bcd60e51b81526020600482015260126024820152714d696e69737761703a204f564552464c4f5760701b604482015290519081900360640190fd5b600c5463ffffffff42811691600160e01b9004811682039081161580159061349757506001600160701b03841615155b80156134ab57506001600160701b03831615155b1561351c578063ffffffff166134d9856134c486613d31565b6001600160e01b03169063ffffffff613d4316565b600d80546001600160e01b03929092169290920201905563ffffffff8116613504846134c487613d31565b600e80546001600160e01b0392909216929092020190555b600c80546dffffffffffffffffffffffffffff19166001600160701b03888116919091176dffffffffffffffffffffffffffff60701b1916600160701b8883168102919091176001600160e01b0316600160e01b63ffffffff871602179283905560408051848416815291909304909116602082015281517f1c411e9a96e071241c2f21f7726b17ae89e3cab4c78be50e062b03a9fffbbad1929181900390910190a1505050505050565b604080516001600160a01b038481166024830152604480830185905283518084039091018152606490920183526020820180516001600160e01b031663095ea7b360e01b178152925182516000946060949389169392918291908083835b602083106136445780518252601f199092019160209182019101613625565b6001836020036101000a0380198251168184511680821785525050505050509050019150506000604051808303816000865af19150503d80600081146136a6576040519150601f19603f3d011682016040523d82523d6000602084013e6136ab565b606091505b50915091508180156136d95750805115806136d957508080602001905160208110156136d657600080fd5b50515b611950576040805162461bcd60e51b815260206004820152601e60248201527f5472616e7366657248656c7065723a20415050524f56455f4641494c45440000604482015290519081900360640190fd5b808201828110156119b6576040805162461bcd60e51b815260206004820152601460248201527364732d6d6174682d6164642d6f766572666c6f7760601b604482015290519081900360640190fd5b6001600160a01b03808416600081815260026020908152604080832094871680845294825291829020859055815185815291517f8c5be1e5ebec7d5bd14f71427d1e84f3dd0314c0f7b2291e5b200ac8c7c3b9259281900390910190a3505050565b6001600160a01b038316600090815260016020526040902054613804908263ffffffff61334916565b6001600160a01b038085166000908152600160205260408082209390935590841681522054613839908263ffffffff61372a16565b6001600160a01b0380841660008181526001602090815260409182902094909455805185815290519193928716927fddf252ad1be2c89b69c2b068fc378daa952ba7f163c4a11628f55a4df523b3ef92918290030190a3505050565b600854600954604080516370a0823160e01b81526001600160a01b0392831660048201529051600093849316916370a08231916024808301926020929190829003018186803b1580156138e757600080fd5b505afa1580156138fb573d6000803e3d6000fd5b505050506040513d602081101561391157600080fd5b50516001600160a01b0384166000908152600a6020526040812054600b5492935090916139439163ffffffff61334916565b9050600b5460001415613959576000925061398d565b60008054600b54308352600160205260409092205461398a92610d0a9182908690610b25908963ffffffff6132e616565b92505b8215613a0c576009546008546040805163e1a2f31560e01b81526001600160a01b0392831660048201528783166024820152604481018790529051919092169163e1a2f31591606480830192600092919082900301818387803b1580156139f357600080fd5b505af1158015613a07573d6000803e3d6000fd5b505050505b50506001600160a01b039091166000908152600a602052604081205590565b6000807f00000000000000000000000000000000000000000000000000000000000000006001600160a01b031663017e7e586040518163ffffffff1660e01b815260040160206040518083038186803b158015613a8757600080fd5b505afa158015613a9b573d6000803e3d6000fd5b505050506040513d6020811015613ab157600080fd5b5051600f546001600160a01b038216158015945091925090613b80578015613b7b576000613af4611cd66001600160701b0388811690881663ffffffff6132e616565b90506000613b0183613b94565b905080821115613b78576000613b2f613b20848463ffffffff61334916565b6000549063ffffffff6132e616565b90506000613b5483613b4886600563ffffffff6132e616565b9063ffffffff61372a16565b90506000818381613b6157fe5b0490508015613b7457613b748782613be5565b5050505b50505b613b8c565b8015613b8c576000600f555b505092915050565b60006003821115613bd7575080600160028204015b81811015613bd157809150600281828581613bc057fe5b040181613bc957fe5b049050613ba9565b506120e1565b81156120e157506001919050565b600054613bf8908263ffffffff61372a16565b60009081556001600160a01b038316815260016020526040902054613c23908263ffffffff61372a16565b6001600160a01b03831660008181526001602090815260408083209490945583518581529351929391927fddf252ad1be2c89b69c2b068fc378daa952ba7f163c4a11628f55a4df523b3ef9281900390910190a35050565b6000818310613c8a5781613c8c565b825b9392505050565b6001600160a01b038216600090815260016020526040902054613cbc908263ffffffff61334916565b6001600160a01b03831660009081526001602052604081209190915554613ce9908263ffffffff61334916565b60009081556040805183815290516001600160a01b038516917fddf252ad1be2c89b69c2b068fc378daa952ba7f163c4a11628f55a4df523b3ef919081900360200190a35050565b6001600160701b0316600160701b0290565b60006001600160701b0382166001600160e01b03841681613d6057fe5b049392505050565b6101ea80613d768339019056fe608060405234801561001057600080fd5b50600080546001600160a01b031916331790556101b8806100326000396000f3fe608060405234801561001057600080fd5b50600436106100365760003560e01c80638da5cb5b1461003b578063e1a2f3151461005f575b600080fd5b610043610097565b604080516001600160a01b039092168252519081900360200190f35b6100956004803603606081101561007557600080fd5b506001600160a01b038135811691602081013590911690604001356100a6565b005b6000546001600160a01b031681565b6000546001600160a01b031633146100f1576040805162461bcd60e51b81526020600482015260096024820152683337b93134b23232b760b91b604482015290519081900360640190fd5b826001600160a01b031663a9059cbb83836040518363ffffffff1660e01b815260040180836001600160a01b03166001600160a01b0316815260200182815260200192505050602060405180830381600087803b15801561015157600080fd5b505af1158015610165573d6000803e3d6000fd5b505050506040513d602081101561017b57600080fd5b505050505056fea26469706673582212200db1a3f7a60cd83baa05e5fdb65df83cf2137cb86727325f2fe68a8ed2011ad864736f6c634300060900334d696e69737761703a20494e53554646494349454e545f4c49515549444954595f4255524e45444d696e69737761703a20494e53554646494349454e545f4c49515549444954595f4d494e5445444d696e69737761703a20494e53554646494349454e545f494e5055545f414d4f554e544d696e69737761703a20494e53554646494349454e545f4f55545055545f414d4f554e54a2646970667358221220b8db53daadbc3bc2c461bb9f6be68a29e1a9abf889ae2188aa10214b912454fe64736f6c63430006090033454950373132446f6d61696e28737472696e67206e616d652c737472696e672076657273696f6e2c75696e7432353620636861696e49642c6164647265737320766572696679696e67436f6e747261637429",
  "immutableReferences": {
    "1634": [
      {
        "length": 32,
        "start": 3461
      },
      {
        "length": 32,
        "start": 3681
      },
      {
        "length": 32,
        "start": 5873
      },
      {
        "length": 32,
        "start": 6093
      },
      {
        "length": 32,
        "start": 11224
      },
      {
        "length": 32,
        "start": 11826
      },
      {
        "length": 32,
        "start": 14896
      }
    ]
  },
  "source": "// SPDX-License-Identifier: SimPL-2.0\npragma solidity =0.6.9;\n\nimport \"./interfaces/IMiniswapPair.sol\";\nimport \"./MiniswapERC20.sol\";\nimport \"./libraries/Math.sol\";\nimport \"./libraries/UQ112x112.sol\";\nimport \"./libraries/TransferHelper.sol\";\nimport \"./interfaces/IERC20.sol\";\nimport \"./interfaces/IMiniswapFactory.sol\";\nimport \"./interfaces/IMiniswapCallee.sol\";\nimport \"./interfaces/IMiniswapMiner.sol\";\nimport \"./TokenTemp.sol\";\n\ncontract MiniswapPair is IMiniswapPair, MiniswapERC20 {\n    using SafeMath for uint256;\n    using UQ112x112 for uint224;\n\n    uint256 public constant override MINIMUM_LIQUIDITY = 10**3;\n    bytes4 private constant SELECTOR = bytes4(\n        keccak256(bytes(\"transfer(address,uint256)\"))\n    );\n\n    address public immutable override factory;\n    address public override miner;\n    address public override token0;\n    address public override token1;\n    address public override MINI;\n    address public override feeTemp;\n\n    mapping(address => uint256) public override userInFeeAmount;\n\n    uint256 public override totalFeeAmount;\n\n    uint112 private reserve0; // uses single storage slot, accessible via getReserves\n    uint112 private reserve1; // uses single storage slot, accessible via getReserves\n    uint32 private blockTimestampLast; // uses single storage slot, accessible via getReserves\n\n    uint256 public override price0CumulativeLast;\n    uint256 public override price1CumulativeLast;\n    uint256 public override kLast; // reserve0 * reserve1, as of immediately after the most recent liquidity event\n\n    uint256 private unlocked = 1;\n    modifier lock() {\n        if (msg.sender != miner) {\n            require(unlocked == 1, \"Miniswap: LOCKED\");\n            unlocked = 0;\n            _;\n            unlocked = 1;\n        } else {\n            _;\n        }\n    }\n\n    function getReserves()\n        public\n        override\n        view\n        returns (\n            uint112 _reserve0,\n            uint112 _reserve1,\n            uint32 _blockTimestampLast\n        )\n    {\n        _reserve0 = reserve0;\n        _reserve1 = reserve1;\n        _blockTimestampLast = blockTimestampLast;\n    }\n\n    function _safeTransfer(\n        address token,\n        address to,\n        uint256 value\n    ) private {\n        (bool success, bytes memory data) = token.call(\n            abi.encodeWithSelector(SELECTOR, to, value)\n        );\n        require(\n            success && (data.length == 0 || abi.decode(data, (bool))),\n            \"Miniswap: TRANSFER_FAILED\"\n        );\n    }\n\n    event Mint(address indexed sender, uint256 amount0, uint256 amount1);\n    event Burn(\n        address indexed sender,\n        uint256 amount0,\n        uint256 amount1,\n        uint256 amountmini,\n        address indexed to\n    );\n    event Swap(\n        address indexed sender,\n        uint256 amount0In,\n        uint256 amount1In,\n        uint256 amount0Out,\n        uint256 amount1Out,\n        address indexed to\n    );\n    event Sync(uint112 reserve0, uint112 reserve1);\n\n    constructor() public {\n        factory = msg.sender;\n    }\n\n    // called once by the factory at time of deployment\n    function initialize(\n        address _miner,\n        address _mini,\n        address _token0,\n        address _token1\n    ) external override {\n        require(msg.sender == factory, \"Miniswap: FORBIDDEN\"); // sufficient check\n\n        miner = _miner;\n        token0 = _token0;\n        token1 = _token1;\n        MINI = _mini;\n\n        bytes memory bytecode = type(TokenTemp).creationCode;\n        bytes32 salt = keccak256(abi.encodePacked(token0, token1));\n        address _tokenTemp;\n        assembly {\n            _tokenTemp := create2(0, add(bytecode, 32), mload(bytecode), salt)\n        }\n        feeTemp = _tokenTemp;\n    }\n\n    // update reserves and, on the first call per block, price accumulators\n    function _update(\n        uint256 balance0,\n        uint256 balance1,\n        uint112 _reserve0,\n        uint112 _reserve1\n    ) private {\n        require(\n            balance0 <= uint112(-1) && balance1 <= uint112(-1),\n            \"Miniswap: OVERFLOW\"\n        );\n        uint32 blockTimestamp = uint32(block.timestamp % 2**32);\n        uint32 timeElapsed = blockTimestamp - blockTimestampLast; // overflow is desired\n        if (timeElapsed > 0 && _reserve0 != 0 && _reserve1 != 0) {\n            // * never overflows, and + overflow is desired\n            price0CumulativeLast +=\n                uint256(UQ112x112.encode(_reserve1).uqdiv(_reserve0)) *\n                timeElapsed;\n            price1CumulativeLast +=\n                uint256(UQ112x112.encode(_reserve0).uqdiv(_reserve1)) *\n                timeElapsed;\n        }\n        reserve0 = uint112(balance0);\n        reserve1 = uint112(balance1);\n        blockTimestampLast = blockTimestamp;\n        emit Sync(reserve0, reserve1);\n    }\n\n    // if fee is on, mint liquidity equivalent to 1/6th of the growth in sqrt(k)\n    function _mintFee(uint112 _reserve0, uint112 _reserve1)\n        private\n        returns (bool feeOn)\n    {\n        address feeTo = IMiniswapFactory(factory).feeTo();\n        feeOn = feeTo != address(0);\n        uint256 _kLast = kLast; // gas savings\n        if (feeOn) {\n            if (_kLast != 0) {\n                uint256 rootK = Math.sqrt(uint256(_reserve0).mul(_reserve1));\n                uint256 rootKLast = Math.sqrt(_kLast);\n                if (rootK > rootKLast) {\n                    uint256 numerator = totalSupply.mul(rootK.sub(rootKLast));\n                    uint256 denominator = rootK.mul(5).add(rootKLast);\n                    uint256 liquidity = numerator / denominator;\n                    if (liquidity > 0) _mint(feeTo, liquidity);\n                }\n            }\n        } else if (_kLast != 0) {\n            kLast = 0;\n        }\n    }\n\n    function _settlementMineFee(address to)\n        private\n        returns (uint256 amountMINI)\n    {\n        uint256 balance = IERC20(MINI).balanceOf(feeTemp);\n        uint256 durationFee = totalFeeAmount.sub(userInFeeAmount[to]);\n        if (totalFeeAmount == 0) {\n            amountMINI = 0;\n        } else {\n            amountMINI = balanceOf[address(this)]\n                .mul(balance)\n                .mul(durationFee)\n                .div(totalFeeAmount)\n                .div(totalSupply);\n        }\n        if (amountMINI > 0) {\n            TokenTemp(feeTemp).sendTokenTo(MINI, to, amountMINI);\n        }\n        userInFeeAmount[to] = 0;\n    }\n\n    function getMineFeeAmount(address to) external override view returns(uint amountMINI){\n        uint256 balance = IERC20(MINI).balanceOf(feeTemp);\n        uint256 durationFee = totalFeeAmount.sub(userInFeeAmount[to]);\n        if (totalFeeAmount == 0) {\n            amountMINI = 0;\n        } else {\n            amountMINI = balanceOf[address(this)]\n                .mul(balance)\n                .mul(durationFee)\n                .div(totalFeeAmount)\n                .div(totalSupply);\n        }\n    }\n\n    // this low-level function should be called from a contract which performs important safety checks\n    function mint(address to)\n        external\n        override\n        lock\n        returns (uint256 liquidity)\n    {\n        if (userInFeeAmount[to] > 0) {\n            _settlementMineFee(to);\n        }\n        (uint112 _reserve0, uint112 _reserve1, ) = getReserves(); // gas savings\n        uint256 balance0 = IERC20(token0).balanceOf(address(this));\n        uint256 balance1 = IERC20(token1).balanceOf(address(this));\n        uint256 amount0 = balance0.sub(_reserve0);\n        uint256 amount1 = balance1.sub(_reserve1);\n\n        bool feeOn = _mintFee(_reserve0, _reserve1);\n        uint256 _totalSupply = totalSupply; // gas savings, must be defined here since totalSupply can update in _mintFee\n        if (_totalSupply == 0) {\n            liquidity = Math.sqrt(amount0.mul(amount1)).sub(MINIMUM_LIQUIDITY);\n            _mint(address(0), MINIMUM_LIQUIDITY); // permanently lock the first MINIMUM_LIQUIDITY tokens\n        } else {\n            liquidity = Math.min(\n                amount0.mul(_totalSupply) / _reserve0,\n                amount1.mul(_totalSupply) / _reserve1\n            );\n        }\n        require(liquidity > 0, \"Miniswap: INSUFFICIENT_LIQUIDITY_MINTED\");\n        _mint(to, liquidity);\n        userInFeeAmount[to] = totalFeeAmount;\n        _update(balance0, balance1, _reserve0, _reserve1);\n        if (feeOn) kLast = uint256(reserve0).mul(reserve1); // reserve0 and reserve1 are up-to-date\n        emit Mint(msg.sender, amount0, amount1);\n    }\n\n    // this low-level function should be called from a contract which performs important safety checks\n    function burn(address to)\n        external\n        override\n        lock\n        returns (\n            uint256 amount0,\n            uint256 amount1,\n            uint256 amountMINI\n        )\n    {\n        (uint112 _reserve0, uint112 _reserve1, ) = getReserves(); // gas savings\n        address _token0 = token0; // gas savings\n        address _token1 = token1; // gas savings\n        uint256 balance0 = IERC20(_token0).balanceOf(address(this));\n        uint256 balance1 = IERC20(_token1).balanceOf(address(this));\n        uint256 liquidity = balanceOf[address(this)];\n\n        bool feeOn = _mintFee(_reserve0, _reserve1);\n        uint256 _totalSupply = totalSupply; // gas savings, must be defined here since totalSupply can update in _mintFee\n        amount0 = liquidity.mul(balance0) / _totalSupply; // using balances ensures pro-rata distribution\n        amount1 = liquidity.mul(balance1) / _totalSupply; // using balances ensures pro-rata distribution\n        require(\n            amount0 > 0 && amount1 > 0,\n            \"Miniswap: INSUFFICIENT_LIQUIDITY_BURNED\"\n        );\n        amountMINI = _settlementMineFee(to);\n        _burn(address(this), liquidity);\n        _safeTransfer(_token0, to, amount0);\n        _safeTransfer(_token1, to, amount1);\n\n\n        balance0 = IERC20(_token0).balanceOf(address(this));\n        balance1 = IERC20(_token1).balanceOf(address(this));\n\n        _update(balance0, balance1, _reserve0, _reserve1);\n        if (feeOn) kLast = uint256(reserve0).mul(reserve1); // reserve0 and reserve1 are up-to-date\n        emit Burn(msg.sender, amount0, amount1, amountMINI, to);\n    }\n\n    // this low-level function should be called from a contract which performs important safety checks\n    function swap(\n        uint256 amount0Out,\n        uint256 amount1Out,\n        address to,\n        bytes calldata data\n    ) external override lock() {\n        require(\n            amount0Out > 0 || amount1Out > 0,\n            \"Miniswap: INSUFFICIENT_OUTPUT_AMOUNT\"\n        );\n        (uint112 _reserve0, uint112 _reserve1, ) = getReserves(); // gas savings\n        require(\n            amount0Out < _reserve0 && amount1Out < _reserve1,\n            \"Miniswap: INSUFFICIENT_LIQUIDITY\"\n        );\n\n        uint256 balance0;\n        uint256 balance1;\n        {\n            // scope for _token{0,1}, avoids stack too deep errors\n            address _token0 = token0;\n            address _token1 = token1;\n            require(to != _token0 && to != _token1, \"Miniswap: INVALID_TO\");\n            if (amount0Out > 0) _safeTransfer(_token0, to, amount0Out); // optimistically transfer tokens\n            if (amount1Out > 0) _safeTransfer(_token1, to, amount1Out); // optimistically transfer tokens\n            if (data.length > 0)\n                IMiniswapCallee(to).miniswapCall(\n                    msg.sender,\n                    amount0Out,\n                    amount1Out,\n                    data\n                );\n            balance0 = IERC20(_token0).balanceOf(address(this));\n            balance1 = IERC20(_token1).balanceOf(address(this));\n        }\n        uint256 amount0In = balance0 > _reserve0 - amount0Out\n            ? balance0 - (_reserve0 - amount0Out)\n            : 0;\n        uint256 amount1In = balance1 > _reserve1 - amount1Out\n            ? balance1 - (_reserve1 - amount1Out)\n            : 0;\n\n        require(\n            amount0In > 0 || amount1In > 0,\n            \"Miniswap: INSUFFICIENT_INPUT_AMOUNT\"\n        );\n\n        {\n            // scope for reserve{0,1}Adjusted, avoids stack too deep errors\n            uint256 balance0Adjusted = balance0.mul(1000).sub(amount0In.mul(3));\n            uint256 balance1Adjusted = balance1.mul(1000).sub(amount1In.mul(3));\n            require(\n                balance0Adjusted.mul(balance1Adjusted) >=\n                    uint256(_reserve0).mul(_reserve1).mul(1000**2),\n                \"Miniswap: K\"\n            );\n        }\n\n        emit Swap(msg.sender, amount0In, amount1In, amount0Out, amount1Out, to);\n\n        {\n            bool isWhiteAddr = IMiniswapMiner(miner).whitelistMap(\n                address(this)\n            );\n            if (isWhiteAddr && msg.sender != miner) {\n                uint256 balanceOfFee0 = IERC20(MINI).balanceOf(feeTemp);\n                address _to = to;\n                uint256 fee0 = amount0In.mul(3).div(1000);\n                uint256 fee1 = amount1In.mul(3).div(1000);\n                if (fee0 > 0) {\n                    _update(balance0 - fee0, balance1, _reserve0, _reserve1);\n                    TransferHelper.safeApprove(token0, miner, fee0); //send token to miner\n                    IMiniswapMiner(miner).mining(\n                        factory,\n                        feeTemp,\n                        _to,\n                        token0,\n                        fee0\n                    );\n                }\n                if (fee1 > 0) {\n                    _update(balance0, balance1 - fee1, _reserve0, _reserve1);\n                    TransferHelper.safeApprove(token1, miner, fee1); //send token to miner\n                    IMiniswapMiner(miner).mining(\n                        factory,\n                        feeTemp,\n                        _to,\n                        token1,\n                        fee1\n                    );\n                }\n                uint256 balanceOfFee1 = IERC20(MINI).balanceOf(feeTemp);\n                totalFeeAmount = totalFeeAmount.add(balanceOfFee1).sub(\n                    balanceOfFee0\n                );\n            }\n        }\n\n        _update(\n            IERC20(token0).balanceOf(address(this)),\n            IERC20(token1).balanceOf(address(this)),\n            _reserve0,\n            _reserve1\n        );\n    }\n\n    // force balances to match reserves\n    function skim(address to) external override lock {\n        address _token0 = token0; // gas savings\n        address _token1 = token1; // gas savings\n        _safeTransfer(\n            _token0,\n            to,\n            IERC20(_token0).balanceOf(address(this)).sub(reserve0)\n        );\n        _safeTransfer(\n            _token1,\n            to,\n            IERC20(_token1).balanceOf(address(this)).sub(reserve1)\n        );\n    }\n\n    // force reserves to match balances\n    function sync() external override lock {\n        _update(\n            IERC20(token0).balanceOf(address(this)),\n            IERC20(token1).balanceOf(address(this)),\n            reserve0,\n            reserve1\n        );\n    }\n}\n",
  "sourcePath": "/Users/yinwei/work/miniswap/contracts/MiniswapPair.sol",
  "compiler": {
    "name": "solc",
    "version": "0.6.9+commit.3e3065ac.Emscripten.clang"
  },
  "schemaVersion": "3.2.1",
  "updatedAt": "2020-08-18T13:44:49.646Z",
  "devdoc": {
    "methods": {}
  },
  "userdoc": {
    "methods": {}
  }
}