{
  "contractName": "TokenTemp",
  "abi": [
    {
      "inputs": [],
      "stateMutability": "nonpayable",
      "type": "constructor"
    },
    {
      "inputs": [],
      "name": "owner",
      "outputs": [
        {
          "internalType": "address",
          "name": "",
          "type": "address"
        }
      ],
      "stateMutability": "view",
      "type": "function"
    },
    {
      "inputs": [
        {
          "internalType": "address",
          "name": "token",
          "type": "address"
        },
        {
          "internalType": "address",
          "name": "to",
          "type": "address"
        },
        {
          "internalType": "uint256",
          "name": "amount",
          "type": "uint256"
        }
      ],
      "name": "sendTokenTo",
      "outputs": [],
      "stateMutability": "nonpayable",
      "type": "function"
    }
  ],
  "bytecode": "0x608060405234801561001057600080fd5b50600080546001600160a01b031916331790556101b8806100326000396000f3fe608060405234801561001057600080fd5b50600436106100365760003560e01c80638da5cb5b1461003b578063e1a2f3151461005f575b600080fd5b610043610097565b604080516001600160a01b039092168252519081900360200190f35b6100956004803603606081101561007557600080fd5b506001600160a01b038135811691602081013590911690604001356100a6565b005b6000546001600160a01b031681565b6000546001600160a01b031633146100f1576040805162461bcd60e51b81526020600482015260096024820152683337b93134b23232b760b91b604482015290519081900360640190fd5b826001600160a01b031663a9059cbb83836040518363ffffffff1660e01b815260040180836001600160a01b03166001600160a01b0316815260200182815260200192505050602060405180830381600087803b15801561015157600080fd5b505af1158015610165573d6000803e3d6000fd5b505050506040513d602081101561017b57600080fd5b505050505056fea26469706673582212200db1a3f7a60cd83baa05e5fdb65df83cf2137cb86727325f2fe68a8ed2011ad864736f6c63430006090033",
  "immutableReferences": {},
  "source": "// SPDX-License-Identifier: SimPL-2.0\npragma solidity=0.6.9;\n\nimport \"./interfaces/IERC20.sol\";\n\ncontract TokenTemp {\n    address public owner;\n\n    constructor() public {\n        owner = msg.sender;\n    }\n\n    function sendTokenTo(address token,address to,uint amount) public{\n        require(msg.sender == owner,\"forbidden\");\n        IERC20(token).transfer(to,amount);\n    }\n}",
  "sourcePath": "/Users/yinwei/work/miniswap/contracts/TokenTemp.sol",
  "compiler": {
    "name": "solc",
    "version": "0.6.9+commit.3e3065ac.Emscripten.clang"
  },
  "schemaVersion": "3.2.1",
  "updatedAt": "2020-08-18T13:44:49.714Z",
  "devdoc": {
    "methods": {}
  },
  "userdoc": {
    "methods": {}
  }
}